{
  "address": "0xd53ceed38417652cf9f5d1ef40F876a21e859bc4",
  "abi": [
    {
      "inputs": [
        {
          "internalType": "address",
          "name": "_tokenAddress",
          "type": "address"
        }
      ],
      "stateMutability": "nonpayable",
      "type": "constructor"
    },
    {
      "inputs": [
        {
          "internalType": "address",
          "name": "owner",
          "type": "address"
        }
      ],
      "name": "OwnableInvalidOwner",
      "type": "error"
    },
    {
      "inputs": [
        {
          "internalType": "address",
          "name": "account",
          "type": "address"
        }
      ],
      "name": "OwnableUnauthorizedAccount",
      "type": "error"
    },
    {
      "anonymous": false,
      "inputs": [
        {
          "indexed": true,
          "internalType": "uint256",
          "name": "projectId",
          "type": "uint256"
        },
        {
          "indexed": false,
          "internalType": "uint256",
          "name": "amount",
          "type": "uint256"
        },
        {
          "indexed": false,
          "internalType": "bool",
          "name": "isEth",
          "type": "bool"
        }
      ],
      "name": "FundsDistributed",
      "type": "event"
    },
    {
      "anonymous": false,
      "inputs": [
        {
          "indexed": true,
          "internalType": "address",
          "name": "previousOwner",
          "type": "address"
        },
        {
          "indexed": true,
          "internalType": "address",
          "name": "newOwner",
          "type": "address"
        }
      ],
      "name": "OwnershipTransferred",
      "type": "event"
    },
    {
      "anonymous": false,
      "inputs": [
        {
          "indexed": true,
          "internalType": "uint256",
          "name": "projectId",
          "type": "uint256"
        },
        {
          "indexed": false,
          "internalType": "string",
          "name": "comment",
          "type": "string"
        },
        {
          "indexed": false,
          "internalType": "bool",
          "name": "approved",
          "type": "bool"
        }
      ],
      "name": "ProgressReviewed",
      "type": "event"
    },
    {
      "anonymous": false,
      "inputs": [
        {
          "indexed": true,
          "internalType": "uint256",
          "name": "projectId",
          "type": "uint256"
        },
        {
          "indexed": false,
          "internalType": "uint256",
          "name": "progress",
          "type": "uint256"
        },
        {
          "indexed": false,
          "internalType": "string",
          "name": "details",
          "type": "string"
        }
      ],
      "name": "ProgressUpdated",
      "type": "event"
    },
    {
      "anonymous": false,
      "inputs": [
        {
          "indexed": true,
          "internalType": "uint256",
          "name": "projectId",
          "type": "uint256"
        },
        {
          "indexed": true,
          "internalType": "address",
          "name": "creator",
          "type": "address"
        },
        {
          "indexed": false,
          "internalType": "uint256",
          "name": "goalAmount",
          "type": "uint256"
        },
        {
          "indexed": false,
          "internalType": "uint256",
          "name": "deadline",
          "type": "uint256"
        }
      ],
      "name": "ProjectCreated",
      "type": "event"
    },
    {
      "anonymous": false,
      "inputs": [
        {
          "indexed": true,
          "internalType": "uint256",
          "name": "projectId",
          "type": "uint256"
        },
        {
          "indexed": true,
          "internalType": "address",
          "name": "supporter",
          "type": "address"
        },
        {
          "indexed": false,
          "internalType": "uint256",
          "name": "amount",
          "type": "uint256"
        },
        {
          "indexed": false,
          "internalType": "bool",
          "name": "isEth",
          "type": "bool"
        }
      ],
      "name": "ProjectFunded",
      "type": "event"
    },
    {
      "anonymous": false,
      "inputs": [
        {
          "indexed": true,
          "internalType": "uint256",
          "name": "projectId",
          "type": "uint256"
        },
        {
          "indexed": true,
          "internalType": "address",
          "name": "supporter",
          "type": "address"
        },
        {
          "indexed": false,
          "internalType": "uint256",
          "name": "amount",
          "type": "uint256"
        },
        {
          "indexed": false,
          "internalType": "bool",
          "name": "isEth",
          "type": "bool"
        }
      ],
      "name": "RefundIssued",
      "type": "event"
    },
    {
      "inputs": [
        {
          "internalType": "uint256",
          "name": "",
          "type": "uint256"
        },
        {
          "internalType": "uint256",
          "name": "",
          "type": "uint256"
        }
      ],
      "name": "approvalComments",
      "outputs": [
        {
          "internalType": "string",
          "name": "",
          "type": "string"
        }
      ],
      "stateMutability": "view",
      "type": "function"
    },
    {
      "inputs": [
        {
          "internalType": "uint256",
          "name": "",
          "type": "uint256"
        },
        {
          "internalType": "address",
          "name": "",
          "type": "address"
        }
      ],
      "name": "contributions",
      "outputs": [
        {
          "internalType": "uint256",
          "name": "",
          "type": "uint256"
        }
      ],
      "stateMutability": "view",
      "type": "function"
    },
    {
      "inputs": [
        {
          "internalType": "string",
          "name": "_title",
          "type": "string"
        },
        {
          "internalType": "string",
          "name": "_description",
          "type": "string"
        },
        {
          "internalType": "string",
          "name": "_link",
          "type": "string"
        },
        {
          "internalType": "uint256",
          "name": "_goalAmount",
          "type": "uint256"
        },
        {
          "internalType": "uint256",
          "name": "_deadline",
          "type": "uint256"
        }
      ],
      "name": "createProject",
      "outputs": [],
      "stateMutability": "nonpayable",
      "type": "function"
    },
    {
      "inputs": [
        {
          "internalType": "address",
          "name": "",
          "type": "address"
        }
      ],
      "name": "creatorBalances",
      "outputs": [
        {
          "internalType": "uint256",
          "name": "",
          "type": "uint256"
        }
      ],
      "stateMutability": "view",
      "type": "function"
    },
    {
      "inputs": [
        {
          "internalType": "address",
          "name": "",
          "type": "address"
        }
      ],
      "name": "creatorEthBalances",
      "outputs": [
        {
          "internalType": "uint256",
          "name": "",
          "type": "uint256"
        }
      ],
      "stateMutability": "view",
      "type": "function"
    },
    {
      "inputs": [
        {
          "internalType": "uint256",
          "name": "_projectId",
          "type": "uint256"
        }
      ],
      "name": "distributeFunds",
      "outputs": [],
      "stateMutability": "nonpayable",
      "type": "function"
    },
    {
      "inputs": [
        {
          "internalType": "uint256",
          "name": "",
          "type": "uint256"
        },
        {
          "internalType": "address",
          "name": "",
          "type": "address"
        }
      ],
      "name": "ethContributions",
      "outputs": [
        {
          "internalType": "uint256",
          "name": "",
          "type": "uint256"
        }
      ],
      "stateMutability": "view",
      "type": "function"
    },
    {
      "inputs": [
        {
          "internalType": "address",
          "name": "_creator",
          "type": "address"
        }
      ],
      "name": "getCreatorBalance",
      "outputs": [
        {
          "internalType": "uint256",
          "name": "",
          "type": "uint256"
        }
      ],
      "stateMutability": "view",
      "type": "function"
    },
    {
      "inputs": [
        {
          "internalType": "address",
          "name": "_creator",
          "type": "address"
        }
      ],
      "name": "getCreatorEthBalance",
      "outputs": [
        {
          "internalType": "uint256",
          "name": "",
          "type": "uint256"
        }
      ],
      "stateMutability": "view",
      "type": "function"
    },
    {
      "inputs": [
        {
          "internalType": "address",
          "name": "_user",
          "type": "address"
        }
      ],
      "name": "getPlatformBalance",
      "outputs": [
        {
          "internalType": "uint256",
          "name": "",
          "type": "uint256"
        }
      ],
      "stateMutability": "view",
      "type": "function"
    },
    {
      "inputs": [
        {
          "internalType": "uint256",
          "name": "_projectId",
          "type": "uint256"
        }
      ],
      "name": "getProjectDetails",
      "outputs": [
        {
          "internalType": "address",
          "name": "",
          "type": "address"
        },
        {
          "internalType": "uint256",
          "name": "",
          "type": "uint256"
        },
        {
          "internalType": "uint256",
          "name": "",
          "type": "uint256"
        },
        {
          "internalType": "uint256",
          "name": "",
          "type": "uint256"
        },
        {
          "internalType": "bool",
          "name": "",
          "type": "bool"
        },
        {
          "internalType": "uint256",
          "name": "",
          "type": "uint256"
        }
      ],
      "stateMutability": "view",
      "type": "function"
    },
    {
      "inputs": [],
      "name": "owner",
      "outputs": [
        {
          "internalType": "address",
          "name": "",
          "type": "address"
        }
      ],
      "stateMutability": "view",
      "type": "function"
    },
    {
      "inputs": [
        {
          "internalType": "uint256",
          "name": "",
          "type": "uint256"
        },
        {
          "internalType": "uint256",
          "name": "",
          "type": "uint256"
        }
      ],
      "name": "progressDetails",
      "outputs": [
        {
          "internalType": "string",
          "name": "",
          "type": "string"
        }
      ],
      "stateMutability": "view",
      "type": "function"
    },
    {
      "inputs": [],
      "name": "projectCount",
      "outputs": [
        {
          "internalType": "uint256",
          "name": "",
          "type": "uint256"
        }
      ],
      "stateMutability": "view",
      "type": "function"
    },
    {
      "inputs": [
        {
          "internalType": "uint256",
          "name": "",
          "type": "uint256"
        },
        {
          "internalType": "uint256",
          "name": "",
          "type": "uint256"
        }
      ],
      "name": "projectInvestors",
      "outputs": [
        {
          "internalType": "address",
          "name": "",
          "type": "address"
        }
      ],
      "stateMutability": "view",
      "type": "function"
    },
    {
      "inputs": [
        {
          "internalType": "uint256",
          "name": "",
          "type": "uint256"
        }
      ],
      "name": "projects",
      "outputs": [
        {
          "internalType": "address payable",
          "name": "creator",
          "type": "address"
        },
        {
          "internalType": "string",
          "name": "title",
          "type": "string"
        },
        {
          "internalType": "string",
          "name": "description",
          "type": "string"
        },
        {
          "internalType": "string",
          "name": "link",
          "type": "string"
        },
        {
          "internalType": "uint256",
          "name": "goalAmount",
          "type": "uint256"
        },
        {
          "internalType": "uint256",
          "name": "currentAmount",
          "type": "uint256"
        },
        {
          "internalType": "uint256",
          "name": "deadline",
          "type": "uint256"
        },
        {
          "internalType": "bool",
          "name": "completed",
          "type": "bool"
        },
        {
          "internalType": "uint256",
          "name": "currentProgress",
          "type": "uint256"
        }
      ],
      "stateMutability": "view",
      "type": "function"
    },
    {
      "inputs": [],
      "name": "renounceOwnership",
      "outputs": [],
      "stateMutability": "nonpayable",
      "type": "function"
    },
    {
      "inputs": [
        {
          "internalType": "uint256",
          "name": "_projectId",
          "type": "uint256"
        },
        {
          "internalType": "uint256",
          "name": "_progress",
          "type": "uint256"
        },
        {
          "internalType": "string",
          "name": "_comment",
          "type": "string"
        },
        {
          "internalType": "bool",
          "name": "_approved",
          "type": "bool"
        }
      ],
      "name": "reviewProgress",
      "outputs": [],
      "stateMutability": "nonpayable",
      "type": "function"
    },
    {
      "inputs": [
        {
          "internalType": "uint256",
          "name": "_projectId",
          "type": "uint256"
        }
      ],
      "name": "supportProjectWithEth",
      "outputs": [],
      "stateMutability": "payable",
      "type": "function"
    },
    {
      "inputs": [
        {
          "internalType": "uint256",
          "name": "_projectId",
          "type": "uint256"
        },
        {
          "internalType": "uint256",
          "name": "_amount",
          "type": "uint256"
        }
      ],
      "name": "supportProjectWithToken",
      "outputs": [],
      "stateMutability": "nonpayable",
      "type": "function"
    },
    {
      "inputs": [],
      "name": "token",
      "outputs": [
        {
          "internalType": "contract IERC20",
          "name": "",
          "type": "address"
        }
      ],
      "stateMutability": "view",
      "type": "function"
    },
    {
      "inputs": [
        {
          "internalType": "address",
          "name": "newOwner",
          "type": "address"
        }
      ],
      "name": "transferOwnership",
      "outputs": [],
      "stateMutability": "nonpayable",
      "type": "function"
    },
    {
      "inputs": [
        {
          "internalType": "address",
          "name": "to",
          "type": "address"
        },
        {
          "internalType": "uint256",
          "name": "value",
          "type": "uint256"
        }
      ],
      "name": "transferTokens",
      "outputs": [
        {
          "internalType": "bool",
          "name": "",
          "type": "bool"
        }
      ],
      "stateMutability": "nonpayable",
      "type": "function"
    },
    {
      "inputs": [
        {
          "internalType": "uint256",
          "name": "_projectId",
          "type": "uint256"
        },
        {
          "internalType": "uint256",
          "name": "_progress",
          "type": "uint256"
        },
        {
          "internalType": "string",
          "name": "_details",
          "type": "string"
        }
      ],
      "name": "updateProgress",
      "outputs": [],
      "stateMutability": "nonpayable",
      "type": "function"
    },
    {
      "inputs": [
        {
          "internalType": "uint256",
          "name": "_projectId",
          "type": "uint256"
        },
        {
          "internalType": "uint256",
          "name": "_newGoalAmount",
          "type": "uint256"
        },
        {
          "internalType": "uint256",
          "name": "_newDeadline",
          "type": "uint256"
        }
      ],
      "name": "updateProject",
      "outputs": [],
      "stateMutability": "nonpayable",
      "type": "function"
    }
  ],
  "transactionHash": "0x1b787adde94e363357f653ba368050aedea030e68c94cf7a6f6aa70ff68f013c",
  "args": [
    "0x085500B2462eC1B4f3A4fc40c29de9243533F5D6"
  ],
  "numDeployments": 5,
  "solcInputHash": "bf00968dcff847e7a1e4cd64988e7cfc",
  "bytecode": "0x608060405260006002553480156200001657600080fd5b506040516200418c3803806200418c83398181016040528101906200003c9190620003b7565b33600073ffffffffffffffffffffffffffffffffffffffff168173ffffffffffffffffffffffffffffffffffffffff1603620000b25760006040517f1e4fbdf7000000000000000000000000000000000000000000000000000000008152600401620000a99190620003fa565b60405180910390fd5b620000c3816200011d60201b60201c565b5080600160006101000a81548173ffffffffffffffffffffffffffffffffffffffff021916908373ffffffffffffffffffffffffffffffffffffffff1602179055506200011633620001e160201b60201c565b5062000417565b60008060009054906101000a900473ffffffffffffffffffffffffffffffffffffffff169050816000806101000a81548173ffffffffffffffffffffffffffffffffffffffff021916908373ffffffffffffffffffffffffffffffffffffffff1602179055508173ffffffffffffffffffffffffffffffffffffffff168173ffffffffffffffffffffffffffffffffffffffff167f8be0079c531659141344cd1fd0a4f28419497f9722a3daafe3b4186f6b6457e060405160405180910390a35050565b620001f16200027a60201b60201c565b600073ffffffffffffffffffffffffffffffffffffffff168173ffffffffffffffffffffffffffffffffffffffff1603620002665760006040517f1e4fbdf70000000000000000000000000000000000000000000000000000000081526004016200025d9190620003fa565b60405180910390fd5b62000277816200011d60201b60201c565b50565b6200028a6200031c60201b60201c565b73ffffffffffffffffffffffffffffffffffffffff16620002b06200032460201b60201c565b73ffffffffffffffffffffffffffffffffffffffff16146200031a57620002dc6200031c60201b60201c565b6040517f118cdaa7000000000000000000000000000000000000000000000000000000008152600401620003119190620003fa565b60405180910390fd5b565b600033905090565b60008060009054906101000a900473ffffffffffffffffffffffffffffffffffffffff16905090565b600080fd5b600073ffffffffffffffffffffffffffffffffffffffff82169050919050565b60006200037f8262000352565b9050919050565b620003918162000372565b81146200039d57600080fd5b50565b600081519050620003b18162000386565b92915050565b600060208284031215620003d057620003cf6200034d565b5b6000620003e084828501620003a0565b91505092915050565b620003f48162000372565b82525050565b6000602082019050620004116000830184620003e9565b92915050565b613d6580620004276000396000f3fe6080604052600436106101665760003560e01c80636a78c833116100d1578063b9b1060b1161008a578063d5f2cf0511610064578063d5f2cf05146105aa578063f2fde38b146105e7578063f726f71514610610578063fc0c546a1461063957610166565b8063b9b1060b14610507578063bbbf146a14610544578063bec3fa171461056d57610166565b80636a78c833146103f9578063715018a6146104365780637a25f1001461044d5780638b44da95146104765780638da5cb5b146104b3578063b93a5339146104de57610166565b8063350d171711610123578063350d1717146102ac57806336fbad26146102e95780633d891f59146103145780635955eb15146103515780635b3259681461037a5780635f8439e3146103b757610166565b8063056c29ee1461016b57806309cf7ffc14610194578063107046bd146101d15780631b5d5f81146102165780632a782802146102325780633170ee1d1461026f575b600080fd5b34801561017757600080fd5b50610192600480360381019061018d919061267a565b610664565b005b3480156101a057600080fd5b506101bb60048036038101906101b691906127a7565b6108a0565b6040516101c891906127e3565b60405180910390f35b3480156101dd57600080fd5b506101f860048036038101906101f391906127fe565b6108e9565b60405161020d999897969594939291906128e6565b60405180910390f35b610230600480360381019061022b91906127fe565b610afc565b005b34801561023e57600080fd5b50610259600480360381019061025491906127a7565b610d6d565b60405161026691906127e3565b60405180910390f35b34801561027b57600080fd5b50610296600480360381019061029191906127a7565b610d85565b6040516102a391906127e3565b60405180910390f35b3480156102b857600080fd5b506102d360048036038101906102ce9190612988565b610e79565b6040516102e091906129c8565b60405180910390f35b3480156102f557600080fd5b506102fe610f26565b60405161030b91906127e3565b60405180910390f35b34801561032057600080fd5b5061033b600480360381019061033691906129ea565b610f2c565b60405161034891906127e3565b60405180910390f35b34801561035d57600080fd5b5061037860048036038101906103739190612a2a565b610f51565b005b34801561038657600080fd5b506103a1600480360381019061039c91906127a7565b611077565b6040516103ae91906127e3565b60405180910390f35b3480156103c357600080fd5b506103de60048036038101906103d991906127fe565b61108f565b6040516103f096959493929190612a8c565b60405180910390f35b34801561040557600080fd5b50610420600480360381019061041b91906127a7565b611110565b60405161042d91906127e3565b60405180910390f35b34801561044257600080fd5b5061044b611159565b005b34801561045957600080fd5b50610474600480360381019061046f9190612b4d565b61116d565b005b34801561048257600080fd5b5061049d60048036038101906104989190612988565b611340565b6040516104aa9190612bc1565b60405180910390f35b3480156104bf57600080fd5b506104c861138e565b6040516104d59190612bc1565b60405180910390f35b3480156104ea57600080fd5b5061050560048036038101906105009190612c08565b6113b7565b005b34801561051357600080fd5b5061052e60048036038101906105299190612988565b611b1c565b60405161053b91906129c8565b60405180910390f35b34801561055057600080fd5b5061056b60048036038101906105669190612988565b611bc9565b005b34801561057957600080fd5b50610594600480360381019061058f9190612c90565b611eef565b6040516105a19190612cd0565b60405180910390f35b3480156105b657600080fd5b506105d160048036038101906105cc91906129ea565b611f99565b6040516105de91906127e3565b60405180910390f35b3480156105f357600080fd5b5061060e600480360381019061060991906127a7565b611fbe565b005b34801561061c57600080fd5b50610637600480360381019061063291906127fe565b612044565b005b34801561064557600080fd5b5061064e612371565b60405161065b9190612d4a565b60405180910390f35b600082116106a7576040517f08c379a000000000000000000000000000000000000000000000000000000000815260040161069e90612dd7565b60405180910390fd5b4281116106e9576040517f08c379a00000000000000000000000000000000000000000000000000000000081526004016106e090612e43565b60405180910390fd5b6040518061012001604052803373ffffffffffffffffffffffffffffffffffffffff16815260200186815260200185815260200184815260200183815260200160008152602001828152602001600015158152602001600081525060036000600254815260200190815260200160002060008201518160000160006101000a81548173ffffffffffffffffffffffffffffffffffffffff021916908373ffffffffffffffffffffffffffffffffffffffff16021790555060208201518160010190816107b59190613065565b5060408201518160020190816107cb9190613065565b5060608201518160030190816107e19190613065565b506080820151816004015560a0820151816005015560c0820151816006015560e08201518160070160006101000a81548160ff02191690831515021790555061010082015181600801559050503373ffffffffffffffffffffffffffffffffffffffff166002547fb5d890eb2df709d2f732ed81f328b444e49c1618ed8d64c53c0a040ec4040e1e8484604051610879929190613137565b60405180910390a3600260008154809291906108949061318f565b91905055505050505050565b6000600860008373ffffffffffffffffffffffffffffffffffffffff1673ffffffffffffffffffffffffffffffffffffffff168152602001908152602001600020549050919050565b60036020528060005260406000206000915090508060000160009054906101000a900473ffffffffffffffffffffffffffffffffffffffff169080600101805461093290612e92565b80601f016020809104026020016040519081016040528092919081815260200182805461095e90612e92565b80156109ab5780601f10610980576101008083540402835291602001916109ab565b820191906000526020600020905b81548152906001019060200180831161098e57829003601f168201915b5050505050908060020180546109c090612e92565b80601f01602080910402602001604051908101604052809291908181526020018280546109ec90612e92565b8015610a395780601f10610a0e57610100808354040283529160200191610a39565b820191906000526020600020905b815481529060010190602001808311610a1c57829003601f168201915b505050505090806003018054610a4e90612e92565b80601f0160208091040260200160405190810160405280929190818152602001828054610a7a90612e92565b8015610ac75780601f10610a9c57610100808354040283529160200191610ac7565b820191906000526020600020905b815481529060010190602001808311610aaa57829003601f168201915b5050505050908060040154908060050154908060060154908060070160009054906101000a900460ff16908060080154905089565b600060036000838152602001908152602001600020905080600601544210610b59576040517f08c379a0000000000000000000000000000000000000000000000000000000008152600401610b5090613223565b60405180910390fd5b60003411610b9c576040517f08c379a0000000000000000000000000000000000000000000000000000000008152600401610b939061328f565b60405180910390fd5b34816005016000828254610bb091906132af565b92505081905550346005600084815260200190815260200160002060003373ffffffffffffffffffffffffffffffffffffffff1673ffffffffffffffffffffffffffffffffffffffff1681526020019081526020016000206000828254610c1791906132af565b92505081905550346005600084815260200190815260200160002060003373ffffffffffffffffffffffffffffffffffffffff1673ffffffffffffffffffffffffffffffffffffffff1681526020019081526020016000205403610cea57600a6000838152602001908152602001600020339080600181540180825580915050600190039060005260206000200160009091909190916101000a81548173ffffffffffffffffffffffffffffffffffffffff021916908373ffffffffffffffffffffffffffffffffffffffff1602179055505b8060040154816005015410610d175760018160070160006101000a81548160ff0219169083151502179055505b3373ffffffffffffffffffffffffffffffffffffffff16827f296213327784aed1db3e4aef381db3aa91efdaf000bf7527e0de40be86a21f9f346001604051610d619291906132e3565b60405180910390a35050565b60086020528060005260406000206000915090505481565b600080600090506000805b600254811015610e63576004600082815260200190815260200160002060008673ffffffffffffffffffffffffffffffffffffffff1673ffffffffffffffffffffffffffffffffffffffff1681526020019081526020016000205483610df691906132af565b92506005600082815260200190815260200160002060008673ffffffffffffffffffffffffffffffffffffffff1673ffffffffffffffffffffffffffffffffffffffff1681526020019081526020016000205482610e5491906132af565b91508080600101915050610d90565b508082610e7091906132af565b92505050919050565b6007602052816000526040600020602052806000526040600020600091509150508054610ea590612e92565b80601f0160208091040260200160405190810160405280929190818152602001828054610ed190612e92565b8015610f1e5780601f10610ef357610100808354040283529160200191610f1e565b820191906000526020600020905b815481529060010190602001808311610f0157829003601f168201915b505050505081565b60025481565b6004602052816000526040600020602052806000526040600020600091509150505481565b60006003600085815260200190815260200160002090508060000160009054906101000a900473ffffffffffffffffffffffffffffffffffffffff1673ffffffffffffffffffffffffffffffffffffffff163373ffffffffffffffffffffffffffffffffffffffff1614610ffa576040517f08c379a0000000000000000000000000000000000000000000000000000000008152600401610ff190613358565b60405180910390fd5b8060070160009054906101000a900460ff161561104c576040517f08c379a0000000000000000000000000000000000000000000000000000000008152600401611043906133c4565b60405180910390fd5b600083111561105f578281600401819055505b42821115611071578181600601819055505b50505050565b60096020528060005260406000206000915090505481565b60008060008060008060006003600089815260200190815260200160002090508060000160009054906101000a900473ffffffffffffffffffffffffffffffffffffffff168160040154826005015483600601548460070160009054906101000a900460ff1685600801549650965096509650965096505091939550919395565b6000600960008373ffffffffffffffffffffffffffffffffffffffff1673ffffffffffffffffffffffffffffffffffffffff168152602001908152602001600020549050919050565b611161612397565b61116b600061241e565b565b60006003600086815260200190815260200160002090508060000160009054906101000a900473ffffffffffffffffffffffffffffffffffffffff1673ffffffffffffffffffffffffffffffffffffffff163373ffffffffffffffffffffffffffffffffffffffff1614611216576040517f08c379a000000000000000000000000000000000000000000000000000000000815260040161120d90613456565b60405180910390fd5b601e8414806112255750603284145b806112305750604684145b8061123b5750606484145b61127a576040517f08c379a0000000000000000000000000000000000000000000000000000000008152600401611271906134c2565b60405180910390fd5b806008015484116112c0576040517f08c379a00000000000000000000000000000000000000000000000000000000081526004016112b790613554565b60405180910390fd5b838160080181905550828260066000888152602001908152602001600020600087815260200190815260200160002091826112fc92919061357f565b50847f600f24eb98aa4205c376079c1cc9195e841a77574da91b88a61cfe6c612b56c18585856040516113319392919061367c565b60405180910390a25050505050565b600a602052816000526040600020818154811061135c57600080fd5b906000526020600020016000915091509054906101000a900473ffffffffffffffffffffffffffffffffffffffff1681565b60008060009054906101000a900473ffffffffffffffffffffffffffffffffffffffff16905090565b8460006005600083815260200190815260200160002060003373ffffffffffffffffffffffffffffffffffffffff1673ffffffffffffffffffffffffffffffffffffffff168152602001908152602001600020541180611467575060006004600083815260200190815260200160002060003373ffffffffffffffffffffffffffffffffffffffff1673ffffffffffffffffffffffffffffffffffffffff16815260200190815260200160002054115b6114a6576040517f08c379a000000000000000000000000000000000000000000000000000000000815260040161149d906136fa565b60405180910390fd5b600060036000888152602001908152602001600020905085816008015414611503576040517f08c379a00000000000000000000000000000000000000000000000000000000081526004016114fa9061378c565b60405180910390fd5b80600401548160050154101561154e576040517f08c379a00000000000000000000000000000000000000000000000000000000081526004016115459061381e565b60405180910390fd5b8484600760008a81526020019081526020016000206000898152602001908152602001600020918261158192919061357f565b508215611aad5760006064826008015483600401546115a0919061383e565b6115aa91906138af565b90506000811115611aa75780600960008460000160009054906101000a900473ffffffffffffffffffffffffffffffffffffffff1673ffffffffffffffffffffffffffffffffffffffff1673ffffffffffffffffffffffffffffffffffffffff168152602001908152602001600020600082825461162891906132af565b92505081905550877ff76e1f2eb07b2469e4d234c31a9e74911c283b015d12d264993fbb5544bb1b2e8260006040516116629291906132e3565b60405180910390a26000670de0b6b3a76400009050600160009054906101000a900473ffffffffffffffffffffffffffffffffffffffff1673ffffffffffffffffffffffffffffffffffffffff1663095ea7b330836040518363ffffffff1660e01b81526004016116d49291906138e0565b6020604051808303816000875af11580156116f3573d6000803e3d6000fd5b505050506040513d601f19601f82011682018060405250810190611717919061391e565b506000600a60008b81526020019081526020016000208054806020026020016040519081016040528092919081815260200182805480156117ad57602002820191906000526020600020905b8160009054906101000a900473ffffffffffffffffffffffffffffffffffffffff1673ffffffffffffffffffffffffffffffffffffffff1681526020019060010190808311611763575b5050505050905060005b81518110156119265760008282815181106117d5576117d461394b565b5b602002602001015190506000600460008e815260200190815260200160002060008373ffffffffffffffffffffffffffffffffffffffff1673ffffffffffffffffffffffffffffffffffffffff16815260200190815260200160002054111561191857600160009054906101000a900473ffffffffffffffffffffffffffffffffffffffff1673ffffffffffffffffffffffffffffffffffffffff1663a9059cbb82866040518363ffffffff1660e01b81526004016118959291906138e0565b6020604051808303816000875af11580156118b4573d6000803e3d6000fd5b505050506040513d601f19601f820116820180604052508101906118d8919061391e565b611917576040517f08c379a000000000000000000000000000000000000000000000000000000000815260040161190e906139c6565b60405180910390fd5b5b5080806001019150506117b7565b50600160009054906101000a900473ffffffffffffffffffffffffffffffffffffffff1673ffffffffffffffffffffffffffffffffffffffff1663a9059cbb8560000160009054906101000a900473ffffffffffffffffffffffffffffffffffffffff16846040518363ffffffff1660e01b81526004016119a8929190613a07565b6020604051808303816000875af11580156119c7573d6000803e3d6000fd5b505050506040513d601f19601f820116820180604052508101906119eb919061391e565b611a2a576040517f08c379a0000000000000000000000000000000000000000000000000000000008152600401611a2190613a7c565b60405180910390fd5b81600860008660000160009054906101000a900473ffffffffffffffffffffffffffffffffffffffff1673ffffffffffffffffffffffffffffffffffffffff1673ffffffffffffffffffffffffffffffffffffffff1681526020019081526020016000206000828254611a9d91906132af565b9250508190555050505b50611ad7565b601e8614611acb5760148160080154611ac69190613a9c565b611ace565b60005b81600801819055505b867fc5e6a549ac2c3754eb5455486bb1b8f04d2ae3e444764d35909d59537e4a51a0868686604051611b0b93929190613ad0565b60405180910390a250505050505050565b6006602052816000526040600020602052806000526040600020600091509150508054611b4890612e92565b80601f0160208091040260200160405190810160405280929190818152602001828054611b7490612e92565b8015611bc15780601f10611b9657610100808354040283529160200191611bc1565b820191906000526020600020905b815481529060010190602001808311611ba457829003601f168201915b505050505081565b600060036000848152602001908152602001600020905080600601544210611c26576040517f08c379a0000000000000000000000000000000000000000000000000000000008152600401611c1d90613223565b60405180910390fd5b60008211611c69576040517f08c379a0000000000000000000000000000000000000000000000000000000008152600401611c609061328f565b60405180910390fd5b600160009054906101000a900473ffffffffffffffffffffffffffffffffffffffff1673ffffffffffffffffffffffffffffffffffffffff166323b872dd3330856040518463ffffffff1660e01b8152600401611cc893929190613b02565b6020604051808303816000875af1158015611ce7573d6000803e3d6000fd5b505050506040513d601f19601f82011682018060405250810190611d0b919061391e565b611d4a576040517f08c379a0000000000000000000000000000000000000000000000000000000008152600401611d4190613b85565b60405180910390fd5b81816005016000828254611d5e91906132af565b92505081905550816004600085815260200190815260200160002060003373ffffffffffffffffffffffffffffffffffffffff1673ffffffffffffffffffffffffffffffffffffffff1681526020019081526020016000206000828254611dc591906132af565b92505081905550816004600085815260200190815260200160002060003373ffffffffffffffffffffffffffffffffffffffff1673ffffffffffffffffffffffffffffffffffffffff1681526020019081526020016000205403611e9857600a6000848152602001908152602001600020339080600181540180825580915050600190039060005260206000200160009091909190916101000a81548173ffffffffffffffffffffffffffffffffffffffff021916908373ffffffffffffffffffffffffffffffffffffffff1602179055505b3373ffffffffffffffffffffffffffffffffffffffff16837f296213327784aed1db3e4aef381db3aa91efdaf000bf7527e0de40be86a21f9f846000604051611ee29291906132e3565b60405180910390a3505050565b6000600160009054906101000a900473ffffffffffffffffffffffffffffffffffffffff1673ffffffffffffffffffffffffffffffffffffffff1663a9059cbb84846040518363ffffffff1660e01b8152600401611f4e9291906138e0565b6020604051808303816000875af1158015611f6d573d6000803e3d6000fd5b505050506040513d601f19601f82011682018060405250810190611f91919061391e565b905092915050565b6005602052816000526040600020602052806000526040600020600091509150505481565b611fc6612397565b600073ffffffffffffffffffffffffffffffffffffffff168173ffffffffffffffffffffffffffffffffffffffff16036120385760006040517f1e4fbdf700000000000000000000000000000000000000000000000000000000815260040161202f9190612bc1565b60405180910390fd5b6120418161241e565b50565b600060036000838152602001908152602001600020905080600601544210156120a2576040517f08c379a000000000000000000000000000000000000000000000000000000000815260040161209990613bf1565b60405180910390fd5b8060070160009054906101000a900460ff16156120f4576040517f08c379a00000000000000000000000000000000000000000000000000000000081526004016120eb90613c5d565b60405180910390fd5b8060040154816005015410612350576000479050600081111561234e5760006005600085815260200190815260200160002060003373ffffffffffffffffffffffffffffffffffffffff1673ffffffffffffffffffffffffffffffffffffffff168152602001908152602001600020549050600081111561234c5760006005600086815260200190815260200160002060003373ffffffffffffffffffffffffffffffffffffffff1673ffffffffffffffffffffffffffffffffffffffff1681526020019081526020016000208190555060008360000160009054906101000a900473ffffffffffffffffffffffffffffffffffffffff1673ffffffffffffffffffffffffffffffffffffffff168260405161220f90613cae565b60006040518083038185875af1925050503d806000811461224c576040519150601f19603f3d011682016040523d82523d6000602084013e612251565b606091505b5050905080612295576040517f08c379a000000000000000000000000000000000000000000000000000000000815260040161228c90613d0f565b60405180910390fd5b81600960008660000160009054906101000a900473ffffffffffffffffffffffffffffffffffffffff1673ffffffffffffffffffffffffffffffffffffffff1673ffffffffffffffffffffffffffffffffffffffff168152602001908152602001600020600082825461230891906132af565b92505081905550847ff76e1f2eb07b2469e4d234c31a9e74911c283b015d12d264993fbb5544bb1b2e8360016040516123429291906132e3565b60405180910390a2505b505b505b60018160070160006101000a81548160ff0219169083151502179055505050565b600160009054906101000a900473ffffffffffffffffffffffffffffffffffffffff1681565b61239f6124e2565b73ffffffffffffffffffffffffffffffffffffffff166123bd61138e565b73ffffffffffffffffffffffffffffffffffffffff161461241c576123e06124e2565b6040517f118cdaa70000000000000000000000000000000000000000000000000000000081526004016124139190612bc1565b60405180910390fd5b565b60008060009054906101000a900473ffffffffffffffffffffffffffffffffffffffff169050816000806101000a81548173ffffffffffffffffffffffffffffffffffffffff021916908373ffffffffffffffffffffffffffffffffffffffff1602179055508173ffffffffffffffffffffffffffffffffffffffff168173ffffffffffffffffffffffffffffffffffffffff167f8be0079c531659141344cd1fd0a4f28419497f9722a3daafe3b4186f6b6457e060405160405180910390a35050565b600033905090565b6000604051905090565b600080fd5b600080fd5b600080fd5b600080fd5b6000601f19601f8301169050919050565b7f4e487b7100000000000000000000000000000000000000000000000000000000600052604160045260246000fd5b61255182612508565b810181811067ffffffffffffffff821117156125705761256f612519565b5b80604052505050565b60006125836124ea565b905061258f8282612548565b919050565b600067ffffffffffffffff8211156125af576125ae612519565b5b6125b882612508565b9050602081019050919050565b82818337600083830152505050565b60006125e76125e284612594565b612579565b90508281526020810184848401111561260357612602612503565b5b61260e8482856125c5565b509392505050565b600082601f83011261262b5761262a6124fe565b5b813561263b8482602086016125d4565b91505092915050565b6000819050919050565b61265781612644565b811461266257600080fd5b50565b6000813590506126748161264e565b92915050565b600080600080600060a08688031215612696576126956124f4565b5b600086013567ffffffffffffffff8111156126b4576126b36124f9565b5b6126c088828901612616565b955050602086013567ffffffffffffffff8111156126e1576126e06124f9565b5b6126ed88828901612616565b945050604086013567ffffffffffffffff81111561270e5761270d6124f9565b5b61271a88828901612616565b935050606061272b88828901612665565b925050608061273c88828901612665565b9150509295509295909350565b600073ffffffffffffffffffffffffffffffffffffffff82169050919050565b600061277482612749565b9050919050565b61278481612769565b811461278f57600080fd5b50565b6000813590506127a18161277b565b92915050565b6000602082840312156127bd576127bc6124f4565b5b60006127cb84828501612792565b91505092915050565b6127dd81612644565b82525050565b60006020820190506127f860008301846127d4565b92915050565b600060208284031215612814576128136124f4565b5b600061282284828501612665565b91505092915050565b600061283682612749565b9050919050565b6128468161282b565b82525050565b600081519050919050565b600082825260208201905092915050565b60005b8381101561288657808201518184015260208101905061286b565b60008484015250505050565b600061289d8261284c565b6128a78185612857565b93506128b7818560208601612868565b6128c081612508565b840191505092915050565b60008115159050919050565b6128e0816128cb565b82525050565b6000610120820190506128fc600083018c61283d565b818103602083015261290e818b612892565b90508181036040830152612922818a612892565b905081810360608301526129368189612892565b905061294560808301886127d4565b61295260a08301876127d4565b61295f60c08301866127d4565b61296c60e08301856128d7565b61297a6101008301846127d4565b9a9950505050505050505050565b6000806040838503121561299f5761299e6124f4565b5b60006129ad85828601612665565b92505060206129be85828601612665565b9150509250929050565b600060208201905081810360008301526129e28184612892565b905092915050565b60008060408385031215612a0157612a006124f4565b5b6000612a0f85828601612665565b9250506020612a2085828601612792565b9150509250929050565b600080600060608486031215612a4357612a426124f4565b5b6000612a5186828701612665565b9350506020612a6286828701612665565b9250506040612a7386828701612665565b9150509250925092565b612a8681612769565b82525050565b600060c082019050612aa16000830189612a7d565b612aae60208301886127d4565b612abb60408301876127d4565b612ac860608301866127d4565b612ad560808301856128d7565b612ae260a08301846127d4565b979650505050505050565b600080fd5b600080fd5b60008083601f840112612b0d57612b0c6124fe565b5b8235905067ffffffffffffffff811115612b2a57612b29612aed565b5b602083019150836001820283011115612b4657612b45612af2565b5b9250929050565b60008060008060608587031215612b6757612b666124f4565b5b6000612b7587828801612665565b9450506020612b8687828801612665565b935050604085013567ffffffffffffffff811115612ba757612ba66124f9565b5b612bb387828801612af7565b925092505092959194509250565b6000602082019050612bd66000830184612a7d565b92915050565b612be5816128cb565b8114612bf057600080fd5b50565b600081359050612c0281612bdc565b92915050565b600080600080600060808688031215612c2457612c236124f4565b5b6000612c3288828901612665565b9550506020612c4388828901612665565b945050604086013567ffffffffffffffff811115612c6457612c636124f9565b5b612c7088828901612af7565b93509350506060612c8388828901612bf3565b9150509295509295909350565b60008060408385031215612ca757612ca66124f4565b5b6000612cb585828601612792565b9250506020612cc685828601612665565b9150509250929050565b6000602082019050612ce560008301846128d7565b92915050565b6000819050919050565b6000612d10612d0b612d0684612749565b612ceb565b612749565b9050919050565b6000612d2282612cf5565b9050919050565b6000612d3482612d17565b9050919050565b612d4481612d29565b82525050565b6000602082019050612d5f6000830184612d3b565b92915050565b7f476f616c20616d6f756e74206d7573742062652067726561746572207468616e60008201527f2030000000000000000000000000000000000000000000000000000000000000602082015250565b6000612dc1602283612857565b9150612dcc82612d65565b604082019050919050565b60006020820190508181036000830152612df081612db4565b9050919050565b7f446561646c696e65206d75737420626520696e20746865206675747572650000600082015250565b6000612e2d601e83612857565b9150612e3882612df7565b602082019050919050565b60006020820190508181036000830152612e5c81612e20565b9050919050565b7f4e487b7100000000000000000000000000000000000000000000000000000000600052602260045260246000fd5b60006002820490506001821680612eaa57607f821691505b602082108103612ebd57612ebc612e63565b5b50919050565b60008190508160005260206000209050919050565b60006020601f8301049050919050565b600082821b905092915050565b600060088302612f257fffffffffffffffffffffffffffffffffffffffffffffffffffffffffffffffff82612ee8565b612f2f8683612ee8565b95508019841693508086168417925050509392505050565b6000612f62612f5d612f5884612644565b612ceb565b612644565b9050919050565b6000819050919050565b612f7c83612f47565b612f90612f8882612f69565b848454612ef5565b825550505050565b600090565b612fa5612f98565b612fb0818484612f73565b505050565b5b81811015612fd457612fc9600082612f9d565b600181019050612fb6565b5050565b601f82111561301957612fea81612ec3565b612ff384612ed8565b81016020851015613002578190505b61301661300e85612ed8565b830182612fb5565b50505b505050565b600082821c905092915050565b600061303c6000198460080261301e565b1980831691505092915050565b6000613055838361302b565b9150826002028217905092915050565b61306e8261284c565b67ffffffffffffffff81111561308757613086612519565b5b6130918254612e92565b61309c828285612fd8565b600060209050601f8311600181146130cf57600084156130bd578287015190505b6130c78582613049565b86555061312f565b601f1984166130dd86612ec3565b60005b82811015613105578489015182556001820191506020850194506020810190506130e0565b86831015613122578489015161311e601f89168261302b565b8355505b6001600288020188555050505b505050505050565b600060408201905061314c60008301856127d4565b61315960208301846127d4565b9392505050565b7f4e487b7100000000000000000000000000000000000000000000000000000000600052601160045260246000fd5b600061319a82612644565b91507fffffffffffffffffffffffffffffffffffffffffffffffffffffffffffffffff82036131cc576131cb613160565b5b600182019050919050565b7f50726f6a6563742066756e64696e6720706572696f64206973206f7665720000600082015250565b600061320d601e83612857565b9150613218826131d7565b602082019050919050565b6000602082019050818103600083015261323c81613200565b9050919050565b7f416d6f756e74206d7573742062652067726561746572207468616e2030000000600082015250565b6000613279601d83612857565b915061328482613243565b602082019050919050565b600060208201905081810360008301526132a88161326c565b9050919050565b60006132ba82612644565b91506132c583612644565b92508282019050808211156132dd576132dc613160565b5b92915050565b60006040820190506132f860008301856127d4565b61330560208301846128d7565b9392505050565b7f4f6e6c792070726f6a6563742063726561746f722063616e2075706461746500600082015250565b6000613342601f83612857565b915061334d8261330c565b602082019050919050565b6000602082019050818103600083015261337181613335565b9050919050565b7f50726f6a65637420697320616c726561647920636f6d706c6574656400000000600082015250565b60006133ae601c83612857565b91506133b982613378565b602082019050919050565b600060208201905081810360008301526133dd816133a1565b9050919050565b7f4f6e6c792070726f6a6563742063726561746f722063616e207570646174652060008201527f70726f6772657373000000000000000000000000000000000000000000000000602082015250565b6000613440602883612857565b915061344b826133e4565b604082019050919050565b6000602082019050818103600083015261346f81613433565b9050919050565b7f496e76616c69642070726f67726573732076616c756500000000000000000000600082015250565b60006134ac601683612857565b91506134b782613476565b602082019050919050565b600060208201905081810360008301526134db8161349f565b9050919050565b7f50726f6772657373206d7573742062652067726561746572207468616e20637560008201527f7272656e742070726f6772657373000000000000000000000000000000000000602082015250565b600061353e602e83612857565b9150613549826134e2565b604082019050919050565b6000602082019050818103600083015261356d81613531565b9050919050565b600082905092915050565b6135898383613574565b67ffffffffffffffff8111156135a2576135a1612519565b5b6135ac8254612e92565b6135b7828285612fd8565b6000601f8311600181146135e657600084156135d4578287013590505b6135de8582613049565b865550613646565b601f1984166135f486612ec3565b60005b8281101561361c578489013582556001820191506020850194506020810190506135f7565b868310156136395784890135613635601f89168261302b565b8355505b6001600288020188555050505b50505050505050565b600061365b8385612857565b93506136688385846125c5565b61367183612508565b840190509392505050565b600060408201905061369160008301866127d4565b81810360208301526136a481848661364f565b9050949350505050565b7f43616c6c6572206973206e6f7420616e20696e766573746f7200000000000000600082015250565b60006136e4601983612857565b91506136ef826136ae565b602082019050919050565b60006020820190508181036000830152613713816136d7565b9050919050565b7f50726f677265737320646f6573206e6f74206d617463682063757272656e742060008201527f70726f6a6563742070726f677265737300000000000000000000000000000000602082015250565b6000613776603083612857565b91506137818261371a565b604082019050919050565b600060208201905081810360008301526137a581613769565b9050919050565b7f50726f6a65637420686173206e6f74207265616368656420676f616c20616d6f60008201527f756e740000000000000000000000000000000000000000000000000000000000602082015250565b6000613808602383612857565b9150613813826137ac565b604082019050919050565b60006020820190508181036000830152613837816137fb565b9050919050565b600061384982612644565b915061385483612644565b925082820261386281612644565b9150828204841483151761387957613878613160565b5b5092915050565b7f4e487b7100000000000000000000000000000000000000000000000000000000600052601260045260246000fd5b60006138ba82612644565b91506138c583612644565b9250826138d5576138d4613880565b5b828204905092915050565b60006040820190506138f56000830185612a7d565b61390260208301846127d4565b9392505050565b60008151905061391881612bdc565b92915050565b600060208284031215613934576139336124f4565b5b600061394284828501613909565b91505092915050565b7f4e487b7100000000000000000000000000000000000000000000000000000000600052603260045260246000fd5b7f496e766573746f7220726577617264207472616e73666572206661696c656400600082015250565b60006139b0601f83612857565b91506139bb8261397a565b602082019050919050565b600060208201905081810360008301526139df816139a3565b9050919050565b60006139f182612d17565b9050919050565b613a01816139e6565b82525050565b6000604082019050613a1c60008301856139f8565b613a2960208301846127d4565b9392505050565b7f43726561746f7220726577617264207472616e73666572206661696c65640000600082015250565b6000613a66601e83612857565b9150613a7182613a30565b602082019050919050565b60006020820190508181036000830152613a9581613a59565b9050919050565b6000613aa782612644565b9150613ab283612644565b9250828203905081811115613aca57613ac9613160565b5b92915050565b60006040820190508181036000830152613aeb81858761364f565b9050613afa60208301846128d7565b949350505050565b6000606082019050613b176000830186612a7d565b613b246020830185612a7d565b613b3160408301846127d4565b949350505050565b7f546f6b656e207472616e73666572206661696c65640000000000000000000000600082015250565b6000613b6f601583612857565b9150613b7a82613b39565b602082019050919050565b60006020820190508181036000830152613b9e81613b62565b9050919050565b7f50726f6a656374206973207374696c6c206f6e676f696e670000000000000000600082015250565b6000613bdb601883612857565b9150613be682613ba5565b602082019050919050565b60006020820190508181036000830152613c0a81613bce565b9050919050565b7f46756e647320616c726561647920646973747269627574656400000000000000600082015250565b6000613c47601983612857565b9150613c5282613c11565b602082019050919050565b60006020820190508181036000830152613c7681613c3a565b9050919050565b600081905092915050565b50565b6000613c98600083613c7d565b9150613ca382613c88565b600082019050919050565b6000613cb982613c8b565b9150819050919050565b7f5472616e73666572206661696c65640000000000000000000000000000000000600082015250565b6000613cf9600f83612857565b9150613d0482613cc3565b602082019050919050565b60006020820190508181036000830152613d2881613cec565b905091905056fea264697066735822122004941f48ab1464014e2d7a02b1e2994d701753cb5788a11c6b374e29779f2d2464736f6c63430008180033",
  "devdoc": {
    "errors": {
      "OwnableInvalidOwner(address)": [
        {
          "details": "The owner is not a valid owner account. (eg. `address(0)`)"
        }
      ],
      "OwnableUnauthorizedAccount(address)": [
        {
          "details": "The caller account is not authorized to perform an operation."
        }
      ]
    },
    "kind": "dev",
    "methods": {
      "owner()": {
        "details": "Returns the address of the current owner."
      },
      "renounceOwnership()": {
        "details": "Leaves the contract without owner. It will not be possible to call `onlyOwner` functions. Can only be called by the current owner. NOTE: Renouncing ownership will leave the contract without an owner, thereby disabling any functionality that is only available to the owner."
      },
      "transferOwnership(address)": {
        "details": "Transfers ownership of the contract to a new account (`newOwner`). Can only be called by the current owner."
      }
    },
    "version": 1
  },
  "userdoc": {
    "kind": "user",
    "methods": {},
    "version": 1
  },
  "storageLayout": {
    "storage": [
      {
        "astId": 8,
        "contract": "contracts/SmartFrogFund.sol:FrogFund",
        "label": "_owner",
        "offset": 0,
        "slot": "0",
        "type": "t_address"
      },
      {
        "astId": 988,
        "contract": "contracts/SmartFrogFund.sol:FrogFund",
        "label": "token",
        "offset": 0,
        "slot": "1",
        "type": "t_contract(IERC20)877"
      },
      {
        "astId": 991,
        "contract": "contracts/SmartFrogFund.sol:FrogFund",
        "label": "projectCount",
        "offset": 0,
        "slot": "2",
        "type": "t_uint256"
      },
      {
        "astId": 996,
        "contract": "contracts/SmartFrogFund.sol:FrogFund",
        "label": "projects",
        "offset": 0,
        "slot": "3",
        "type": "t_mapping(t_uint256,t_struct(Project)985_storage)"
      },
      {
        "astId": 1002,
        "contract": "contracts/SmartFrogFund.sol:FrogFund",
        "label": "contributions",
        "offset": 0,
        "slot": "4",
        "type": "t_mapping(t_uint256,t_mapping(t_address,t_uint256))"
      },
      {
        "astId": 1008,
        "contract": "contracts/SmartFrogFund.sol:FrogFund",
        "label": "ethContributions",
        "offset": 0,
        "slot": "5",
        "type": "t_mapping(t_uint256,t_mapping(t_address,t_uint256))"
      },
      {
        "astId": 1014,
        "contract": "contracts/SmartFrogFund.sol:FrogFund",
        "label": "progressDetails",
        "offset": 0,
        "slot": "6",
        "type": "t_mapping(t_uint256,t_mapping(t_uint256,t_string_storage))"
      },
      {
        "astId": 1020,
        "contract": "contracts/SmartFrogFund.sol:FrogFund",
        "label": "approvalComments",
        "offset": 0,
        "slot": "7",
        "type": "t_mapping(t_uint256,t_mapping(t_uint256,t_string_storage))"
      },
      {
        "astId": 1024,
        "contract": "contracts/SmartFrogFund.sol:FrogFund",
        "label": "creatorBalances",
        "offset": 0,
        "slot": "8",
        "type": "t_mapping(t_address,t_uint256)"
      },
      {
        "astId": 1028,
        "contract": "contracts/SmartFrogFund.sol:FrogFund",
        "label": "creatorEthBalances",
        "offset": 0,
        "slot": "9",
        "type": "t_mapping(t_address,t_uint256)"
      },
      {
        "astId": 1033,
        "contract": "contracts/SmartFrogFund.sol:FrogFund",
        "label": "projectInvestors",
        "offset": 0,
        "slot": "10",
        "type": "t_mapping(t_uint256,t_array(t_address)dyn_storage)"
      }
    ],
    "types": {
      "t_address": {
        "encoding": "inplace",
        "label": "address",
        "numberOfBytes": "20"
      },
      "t_address_payable": {
        "encoding": "inplace",
        "label": "address payable",
        "numberOfBytes": "20"
      },
      "t_array(t_address)dyn_storage": {
        "base": "t_address",
        "encoding": "dynamic_array",
        "label": "address[]",
        "numberOfBytes": "32"
      },
      "t_bool": {
        "encoding": "inplace",
        "label": "bool",
        "numberOfBytes": "1"
      },
      "t_contract(IERC20)877": {
        "encoding": "inplace",
        "label": "contract IERC20",
        "numberOfBytes": "20"
      },
      "t_mapping(t_address,t_uint256)": {
        "encoding": "mapping",
        "key": "t_address",
        "label": "mapping(address => uint256)",
        "numberOfBytes": "32",
        "value": "t_uint256"
      },
      "t_mapping(t_uint256,t_array(t_address)dyn_storage)": {
        "encoding": "mapping",
        "key": "t_uint256",
        "label": "mapping(uint256 => address[])",
        "numberOfBytes": "32",
        "value": "t_array(t_address)dyn_storage"
      },
      "t_mapping(t_uint256,t_mapping(t_address,t_uint256))": {
        "encoding": "mapping",
        "key": "t_uint256",
        "label": "mapping(uint256 => mapping(address => uint256))",
        "numberOfBytes": "32",
        "value": "t_mapping(t_address,t_uint256)"
      },
      "t_mapping(t_uint256,t_mapping(t_uint256,t_string_storage))": {
        "encoding": "mapping",
        "key": "t_uint256",
        "label": "mapping(uint256 => mapping(uint256 => string))",
        "numberOfBytes": "32",
        "value": "t_mapping(t_uint256,t_string_storage)"
      },
      "t_mapping(t_uint256,t_string_storage)": {
        "encoding": "mapping",
        "key": "t_uint256",
        "label": "mapping(uint256 => string)",
        "numberOfBytes": "32",
        "value": "t_string_storage"
      },
      "t_mapping(t_uint256,t_struct(Project)985_storage)": {
        "encoding": "mapping",
        "key": "t_uint256",
        "label": "mapping(uint256 => struct FrogFund.Project)",
        "numberOfBytes": "32",
        "value": "t_struct(Project)985_storage"
      },
      "t_string_storage": {
        "encoding": "bytes",
        "label": "string",
        "numberOfBytes": "32"
      },
      "t_struct(Project)985_storage": {
        "encoding": "inplace",
        "label": "struct FrogFund.Project",
        "members": [
          {
            "astId": 968,
            "contract": "contracts/SmartFrogFund.sol:FrogFund",
            "label": "creator",
            "offset": 0,
            "slot": "0",
            "type": "t_address_payable"
          },
          {
            "astId": 970,
            "contract": "contracts/SmartFrogFund.sol:FrogFund",
            "label": "title",
            "offset": 0,
            "slot": "1",
            "type": "t_string_storage"
          },
          {
            "astId": 972,
            "contract": "contracts/SmartFrogFund.sol:FrogFund",
            "label": "description",
            "offset": 0,
            "slot": "2",
            "type": "t_string_storage"
          },
          {
            "astId": 974,
            "contract": "contracts/SmartFrogFund.sol:FrogFund",
            "label": "link",
            "offset": 0,
            "slot": "3",
            "type": "t_string_storage"
          },
          {
            "astId": 976,
            "contract": "contracts/SmartFrogFund.sol:FrogFund",
            "label": "goalAmount",
            "offset": 0,
            "slot": "4",
            "type": "t_uint256"
          },
          {
            "astId": 978,
            "contract": "contracts/SmartFrogFund.sol:FrogFund",
            "label": "currentAmount",
            "offset": 0,
            "slot": "5",
            "type": "t_uint256"
          },
          {
            "astId": 980,
            "contract": "contracts/SmartFrogFund.sol:FrogFund",
            "label": "deadline",
            "offset": 0,
            "slot": "6",
            "type": "t_uint256"
          },
          {
            "astId": 982,
            "contract": "contracts/SmartFrogFund.sol:FrogFund",
            "label": "completed",
            "offset": 0,
            "slot": "7",
            "type": "t_bool"
          },
          {
            "astId": 984,
            "contract": "contracts/SmartFrogFund.sol:FrogFund",
            "label": "currentProgress",
            "offset": 0,
            "slot": "8",
            "type": "t_uint256"
          }
        ],
        "numberOfBytes": "288"
      },
      "t_uint256": {
        "encoding": "inplace",
        "label": "uint256",
        "numberOfBytes": "32"
      }
    }
  }
}