{
  "address": "0x517C0A83D81212B56328860183B3C7dE65dF8643",
  "abi": [
    {
      "inputs": [
        {
          "internalType": "address",
          "name": "_tokenAddress",
          "type": "address"
        }
      ],
      "stateMutability": "nonpayable",
      "type": "constructor"
    },
    {
      "inputs": [
        {
          "internalType": "address",
          "name": "owner",
          "type": "address"
        }
      ],
      "name": "OwnableInvalidOwner",
      "type": "error"
    },
    {
      "inputs": [
        {
          "internalType": "address",
          "name": "account",
          "type": "address"
        }
      ],
      "name": "OwnableUnauthorizedAccount",
      "type": "error"
    },
    {
      "anonymous": false,
      "inputs": [
        {
          "indexed": true,
          "internalType": "uint256",
          "name": "projectId",
          "type": "uint256"
        },
        {
          "indexed": false,
          "internalType": "uint256",
          "name": "amount",
          "type": "uint256"
        }
      ],
      "name": "FundsDistributed",
      "type": "event"
    },
    {
      "anonymous": false,
      "inputs": [
        {
          "indexed": true,
          "internalType": "address",
          "name": "previousOwner",
          "type": "address"
        },
        {
          "indexed": true,
          "internalType": "address",
          "name": "newOwner",
          "type": "address"
        }
      ],
      "name": "OwnershipTransferred",
      "type": "event"
    },
    {
      "anonymous": false,
      "inputs": [
        {
          "indexed": true,
          "internalType": "uint256",
          "name": "projectId",
          "type": "uint256"
        },
        {
          "indexed": false,
          "internalType": "string",
          "name": "comment",
          "type": "string"
        },
        {
          "indexed": false,
          "internalType": "bool",
          "name": "approved",
          "type": "bool"
        }
      ],
      "name": "ProgressReviewed",
      "type": "event"
    },
    {
      "anonymous": false,
      "inputs": [
        {
          "indexed": true,
          "internalType": "uint256",
          "name": "projectId",
          "type": "uint256"
        },
        {
          "indexed": false,
          "internalType": "uint256",
          "name": "progress",
          "type": "uint256"
        },
        {
          "indexed": false,
          "internalType": "string",
          "name": "details",
          "type": "string"
        }
      ],
      "name": "ProgressUpdated",
      "type": "event"
    },
    {
      "anonymous": false,
      "inputs": [
        {
          "indexed": true,
          "internalType": "uint256",
          "name": "projectId",
          "type": "uint256"
        },
        {
          "indexed": true,
          "internalType": "address",
          "name": "creator",
          "type": "address"
        },
        {
          "indexed": false,
          "internalType": "uint256",
          "name": "goalAmount",
          "type": "uint256"
        },
        {
          "indexed": false,
          "internalType": "uint256",
          "name": "deadline",
          "type": "uint256"
        }
      ],
      "name": "ProjectCreated",
      "type": "event"
    },
    {
      "anonymous": false,
      "inputs": [
        {
          "indexed": true,
          "internalType": "uint256",
          "name": "projectId",
          "type": "uint256"
        },
        {
          "indexed": true,
          "internalType": "address",
          "name": "supporter",
          "type": "address"
        },
        {
          "indexed": false,
          "internalType": "uint256",
          "name": "amount",
          "type": "uint256"
        }
      ],
      "name": "ProjectFunded",
      "type": "event"
    },
    {
      "anonymous": false,
      "inputs": [
        {
          "indexed": true,
          "internalType": "uint256",
          "name": "projectId",
          "type": "uint256"
        },
        {
          "indexed": true,
          "internalType": "address",
          "name": "supporter",
          "type": "address"
        },
        {
          "indexed": false,
          "internalType": "uint256",
          "name": "amount",
          "type": "uint256"
        }
      ],
      "name": "RefundIssued",
      "type": "event"
    },
    {
      "inputs": [
        {
          "internalType": "uint256",
          "name": "",
          "type": "uint256"
        }
      ],
      "name": "approvalComments",
      "outputs": [
        {
          "internalType": "string",
          "name": "",
          "type": "string"
        }
      ],
      "stateMutability": "view",
      "type": "function"
    },
    {
      "inputs": [
        {
          "internalType": "uint256",
          "name": "",
          "type": "uint256"
        },
        {
          "internalType": "address",
          "name": "",
          "type": "address"
        }
      ],
      "name": "contributions",
      "outputs": [
        {
          "internalType": "uint256",
          "name": "",
          "type": "uint256"
        }
      ],
      "stateMutability": "view",
      "type": "function"
    },
    {
      "inputs": [
        {
          "internalType": "string",
          "name": "_title",
          "type": "string"
        },
        {
          "internalType": "string",
          "name": "_description",
          "type": "string"
        },
        {
          "internalType": "string",
          "name": "_link",
          "type": "string"
        },
        {
          "internalType": "uint256",
          "name": "_goalAmount",
          "type": "uint256"
        },
        {
          "internalType": "uint256",
          "name": "_deadline",
          "type": "uint256"
        }
      ],
      "name": "createProject",
      "outputs": [],
      "stateMutability": "nonpayable",
      "type": "function"
    },
    {
      "inputs": [
        {
          "internalType": "uint256",
          "name": "_projectId",
          "type": "uint256"
        }
      ],
      "name": "distributeFunds",
      "outputs": [],
      "stateMutability": "nonpayable",
      "type": "function"
    },
    {
      "inputs": [
        {
          "internalType": "uint256",
          "name": "_projectId",
          "type": "uint256"
        }
      ],
      "name": "getProjectDetails",
      "outputs": [
        {
          "internalType": "address",
          "name": "",
          "type": "address"
        },
        {
          "internalType": "uint256",
          "name": "",
          "type": "uint256"
        },
        {
          "internalType": "uint256",
          "name": "",
          "type": "uint256"
        },
        {
          "internalType": "uint256",
          "name": "",
          "type": "uint256"
        },
        {
          "internalType": "bool",
          "name": "",
          "type": "bool"
        },
        {
          "internalType": "uint256",
          "name": "",
          "type": "uint256"
        }
      ],
      "stateMutability": "view",
      "type": "function"
    },
    {
      "inputs": [],
      "name": "owner",
      "outputs": [
        {
          "internalType": "address",
          "name": "",
          "type": "address"
        }
      ],
      "stateMutability": "view",
      "type": "function"
    },
    {
      "inputs": [
        {
          "internalType": "uint256",
          "name": "",
          "type": "uint256"
        }
      ],
      "name": "progressDetails",
      "outputs": [
        {
          "internalType": "string",
          "name": "",
          "type": "string"
        }
      ],
      "stateMutability": "view",
      "type": "function"
    },
    {
      "inputs": [],
      "name": "projectCount",
      "outputs": [
        {
          "internalType": "uint256",
          "name": "",
          "type": "uint256"
        }
      ],
      "stateMutability": "view",
      "type": "function"
    },
    {
      "inputs": [
        {
          "internalType": "uint256",
          "name": "",
          "type": "uint256"
        }
      ],
      "name": "projects",
      "outputs": [
        {
          "internalType": "address payable",
          "name": "creator",
          "type": "address"
        },
        {
          "internalType": "string",
          "name": "title",
          "type": "string"
        },
        {
          "internalType": "string",
          "name": "description",
          "type": "string"
        },
        {
          "internalType": "string",
          "name": "link",
          "type": "string"
        },
        {
          "internalType": "uint256",
          "name": "goalAmount",
          "type": "uint256"
        },
        {
          "internalType": "uint256",
          "name": "currentAmount",
          "type": "uint256"
        },
        {
          "internalType": "uint256",
          "name": "deadline",
          "type": "uint256"
        },
        {
          "internalType": "bool",
          "name": "completed",
          "type": "bool"
        },
        {
          "internalType": "uint256",
          "name": "currentProgress",
          "type": "uint256"
        }
      ],
      "stateMutability": "view",
      "type": "function"
    },
    {
      "inputs": [],
      "name": "renounceOwnership",
      "outputs": [],
      "stateMutability": "nonpayable",
      "type": "function"
    },
    {
      "inputs": [
        {
          "internalType": "uint256",
          "name": "_projectId",
          "type": "uint256"
        },
        {
          "internalType": "string",
          "name": "_comment",
          "type": "string"
        },
        {
          "internalType": "bool",
          "name": "_approved",
          "type": "bool"
        }
      ],
      "name": "reviewProgress",
      "outputs": [],
      "stateMutability": "nonpayable",
      "type": "function"
    },
    {
      "inputs": [
        {
          "internalType": "uint256",
          "name": "_projectId",
          "type": "uint256"
        },
        {
          "internalType": "uint256",
          "name": "_amount",
          "type": "uint256"
        }
      ],
      "name": "supportProject",
      "outputs": [],
      "stateMutability": "nonpayable",
      "type": "function"
    },
    {
      "inputs": [],
      "name": "token",
      "outputs": [
        {
          "internalType": "contract IERC20",
          "name": "",
          "type": "address"
        }
      ],
      "stateMutability": "view",
      "type": "function"
    },
    {
      "inputs": [
        {
          "internalType": "address",
          "name": "newOwner",
          "type": "address"
        }
      ],
      "name": "transferOwnership",
      "outputs": [],
      "stateMutability": "nonpayable",
      "type": "function"
    },
    {
      "inputs": [
        {
          "internalType": "uint256",
          "name": "_projectId",
          "type": "uint256"
        },
        {
          "internalType": "uint256",
          "name": "_progress",
          "type": "uint256"
        },
        {
          "internalType": "string",
          "name": "_details",
          "type": "string"
        }
      ],
      "name": "updateProgress",
      "outputs": [],
      "stateMutability": "nonpayable",
      "type": "function"
    },
    {
      "inputs": [
        {
          "internalType": "uint256",
          "name": "_projectId",
          "type": "uint256"
        },
        {
          "internalType": "uint256",
          "name": "_newGoalAmount",
          "type": "uint256"
        },
        {
          "internalType": "uint256",
          "name": "_newDeadline",
          "type": "uint256"
        }
      ],
      "name": "updateProject",
      "outputs": [],
      "stateMutability": "nonpayable",
      "type": "function"
    }
  ],
  "transactionHash": "0x58c1c1e9613de8c55a628e2fe86eaaa125727883f1798de3a4d935cc64d0ccb4",
  "args": [
    "0x2ac0b31bcf6091c139e5a5e968434bcd5dcc63e8"
  ],
  "numDeployments": 3,
  "solcInputHash": "5e6eb55ccf6b7e65bcc09e585c1c1a9b",
  "bytecode": "0x608060405260006002553480156200001657600080fd5b50604051620030af380380620030af83398181016040528101906200003c9190620003b7565b33600073ffffffffffffffffffffffffffffffffffffffff168173ffffffffffffffffffffffffffffffffffffffff1603620000b25760006040517f1e4fbdf7000000000000000000000000000000000000000000000000000000008152600401620000a99190620003fa565b60405180910390fd5b620000c3816200011d60201b60201c565b5080600160006101000a81548173ffffffffffffffffffffffffffffffffffffffff021916908373ffffffffffffffffffffffffffffffffffffffff1602179055506200011633620001e160201b60201c565b5062000417565b60008060009054906101000a900473ffffffffffffffffffffffffffffffffffffffff169050816000806101000a81548173ffffffffffffffffffffffffffffffffffffffff021916908373ffffffffffffffffffffffffffffffffffffffff1602179055508173ffffffffffffffffffffffffffffffffffffffff168173ffffffffffffffffffffffffffffffffffffffff167f8be0079c531659141344cd1fd0a4f28419497f9722a3daafe3b4186f6b6457e060405160405180910390a35050565b620001f16200027a60201b60201c565b600073ffffffffffffffffffffffffffffffffffffffff168173ffffffffffffffffffffffffffffffffffffffff1603620002665760006040517f1e4fbdf70000000000000000000000000000000000000000000000000000000081526004016200025d9190620003fa565b60405180910390fd5b62000277816200011d60201b60201c565b50565b6200028a6200031c60201b60201c565b73ffffffffffffffffffffffffffffffffffffffff16620002b06200032460201b60201c565b73ffffffffffffffffffffffffffffffffffffffff16146200031a57620002dc6200031c60201b60201c565b6040517f118cdaa7000000000000000000000000000000000000000000000000000000008152600401620003119190620003fa565b60405180910390fd5b565b600033905090565b60008060009054906101000a900473ffffffffffffffffffffffffffffffffffffffff16905090565b600080fd5b600073ffffffffffffffffffffffffffffffffffffffff82169050919050565b60006200037f8262000352565b9050919050565b620003918162000372565b81146200039d57600080fd5b50565b600081519050620003b18162000386565b92915050565b600060208284031215620003d057620003cf6200034d565b5b6000620003e084828501620003a0565b91505092915050565b620003f48162000372565b82525050565b6000602082019050620004116000830184620003e9565b92915050565b612c8880620004276000396000f3fe608060405234801561001057600080fd5b50600436106101005760003560e01c8063715018a611610097578063c859b0a511610066578063c859b0a5146102a4578063f2fde38b146102d4578063f726f715146102f0578063fc0c546a1461030c57610100565b8063715018a6146102305780637a25f1001461023a5780638da5cb5b14610256578063ac06d9e21461027457610100565b80635955eb15116100d35780635955eb15146101a757806359d58e75146101c35780635f8439e3146101df5780636db368121461021457610100565b8063056c29ee14610105578063107046bd1461012157806336fbad26146101595780633d891f5914610177575b600080fd5b61011f600480360381019061011a91906118da565b61032a565b005b61013b600480360381019061013691906119a9565b610566565b60405161015099989796959493929190611ac0565b60405180910390f35b610161610779565b60405161016e9190611b62565b60405180910390f35b610191600480360381019061018c9190611bbb565b61077f565b60405161019e9190611b62565b60405180910390f35b6101c160048036038101906101bc9190611bfb565b6107a4565b005b6101dd60048036038101906101d89190611cda565b6108ca565b005b6101f960048036038101906101f491906119a9565b610b0c565b60405161020b96959493929190611d5d565b60405180910390f35b61022e60048036038101906102299190611dbe565b610b8d565b005b610238610de4565b005b610254600480360381019061024f9190611dfe565b610df8565b005b61025e610fba565b60405161026b9190611e72565b60405180910390f35b61028e600480360381019061028991906119a9565b610fe3565b60405161029b9190611e8d565b60405180910390f35b6102be60048036038101906102b991906119a9565b611083565b6040516102cb9190611e8d565b60405180910390f35b6102ee60048036038101906102e99190611eaf565b611123565b005b61030a600480360381019061030591906119a9565b6111a9565b005b6103146115d1565b6040516103219190611f3b565b60405180910390f35b6000821161036d576040517f08c379a000000000000000000000000000000000000000000000000000000000815260040161036490611fc8565b60405180910390fd5b4281116103af576040517f08c379a00000000000000000000000000000000000000000000000000000000081526004016103a690612034565b60405180910390fd5b6040518061012001604052803373ffffffffffffffffffffffffffffffffffffffff16815260200186815260200185815260200184815260200183815260200160008152602001828152602001600015158152602001600081525060036000600254815260200190815260200160002060008201518160000160006101000a81548173ffffffffffffffffffffffffffffffffffffffff021916908373ffffffffffffffffffffffffffffffffffffffff160217905550602082015181600101908161047b9190612256565b5060408201518160020190816104919190612256565b5060608201518160030190816104a79190612256565b506080820151816004015560a0820151816005015560c0820151816006015560e08201518160070160006101000a81548160ff02191690831515021790555061010082015181600801559050503373ffffffffffffffffffffffffffffffffffffffff166002547fb5d890eb2df709d2f732ed81f328b444e49c1618ed8d64c53c0a040ec4040e1e848460405161053f929190612328565b60405180910390a36002600081548092919061055a90612380565b91905055505050505050565b60036020528060005260406000206000915090508060000160009054906101000a900473ffffffffffffffffffffffffffffffffffffffff16908060010180546105af90612083565b80601f01602080910402602001604051908101604052809291908181526020018280546105db90612083565b80156106285780601f106105fd57610100808354040283529160200191610628565b820191906000526020600020905b81548152906001019060200180831161060b57829003601f168201915b50505050509080600201805461063d90612083565b80601f016020809104026020016040519081016040528092919081815260200182805461066990612083565b80156106b65780601f1061068b576101008083540402835291602001916106b6565b820191906000526020600020905b81548152906001019060200180831161069957829003601f168201915b5050505050908060030180546106cb90612083565b80601f01602080910402602001604051908101604052809291908181526020018280546106f790612083565b80156107445780601f1061071957610100808354040283529160200191610744565b820191906000526020600020905b81548152906001019060200180831161072757829003601f168201915b5050505050908060040154908060050154908060060154908060070160009054906101000a900460ff16908060080154905089565b60025481565b6004602052816000526040600020602052806000526040600020600091509150505481565b60006003600085815260200190815260200160002090508060000160009054906101000a900473ffffffffffffffffffffffffffffffffffffffff1673ffffffffffffffffffffffffffffffffffffffff163373ffffffffffffffffffffffffffffffffffffffff161461084d576040517f08c379a000000000000000000000000000000000000000000000000000000000815260040161084490612414565b60405180910390fd5b8060070160009054906101000a900460ff161561089f576040517f08c379a000000000000000000000000000000000000000000000000000000000815260040161089690612480565b60405180910390fd5b60008311156108b2578281600401819055505b428211156108c4578181600601819055505b50505050565b6108d26115f7565b60006003600086815260200190815260200160002090506000816008015411610930576040517f08c379a0000000000000000000000000000000000000000000000000000000008152600401610927906124ec565b60405180910390fd5b8383600660008881526020019081526020016000209182610952929190612517565b508115610abe57600060648260080154836004015461097191906125e7565b61097b9190612658565b9050600160009054906101000a900473ffffffffffffffffffffffffffffffffffffffff1673ffffffffffffffffffffffffffffffffffffffff1663a9059cbb8360000160009054906101000a900473ffffffffffffffffffffffffffffffffffffffff16836040518363ffffffff1660e01b81526004016109fe9291906126aa565b6020604051808303816000875af1158015610a1d573d6000803e3d6000fd5b505050506040513d601f19601f82011682018060405250810190610a4191906126e8565b610a80576040517f08c379a0000000000000000000000000000000000000000000000000000000008152600401610a7790612761565b60405180910390fd5b857f40d8c854b6d5329fd5fccae04f5a931d7529963fbab81aced7337394e737cb4d82604051610ab09190611b62565b60405180910390a250610ac9565b600081600801819055505b847fc5e6a549ac2c3754eb5455486bb1b8f04d2ae3e444764d35909d59537e4a51a0858585604051610afd939291906127ae565b60405180910390a25050505050565b60008060008060008060006003600089815260200190815260200160002090508060000160009054906101000a900473ffffffffffffffffffffffffffffffffffffffff168160040154826005015483600601548460070160009054906101000a900460ff1685600801549650965096509650965096505091939550919395565b600060036000848152602001908152602001600020905080600601544210610bea576040517f08c379a0000000000000000000000000000000000000000000000000000000008152600401610be19061282c565b60405180910390fd5b60008211610c2d576040517f08c379a0000000000000000000000000000000000000000000000000000000008152600401610c2490612898565b60405180910390fd5b600160009054906101000a900473ffffffffffffffffffffffffffffffffffffffff1673ffffffffffffffffffffffffffffffffffffffff166323b872dd3330856040518463ffffffff1660e01b8152600401610c8c939291906128b8565b6020604051808303816000875af1158015610cab573d6000803e3d6000fd5b505050506040513d601f19601f82011682018060405250810190610ccf91906126e8565b610d0e576040517f08c379a0000000000000000000000000000000000000000000000000000000008152600401610d0590612761565b60405180910390fd5b81816005016000828254610d2291906128ef565b92505081905550816004600085815260200190815260200160002060003373ffffffffffffffffffffffffffffffffffffffff1673ffffffffffffffffffffffffffffffffffffffff1681526020019081526020016000206000828254610d8991906128ef565b925050819055503373ffffffffffffffffffffffffffffffffffffffff16837f6251418ffd7f504740544ec3d578897633e212c5d658b7dce793c5dc9d2e855e84604051610dd79190611b62565b60405180910390a3505050565b610dec6115f7565b610df6600061167e565b565b60006003600086815260200190815260200160002090508060000160009054906101000a900473ffffffffffffffffffffffffffffffffffffffff1673ffffffffffffffffffffffffffffffffffffffff163373ffffffffffffffffffffffffffffffffffffffff1614610ea1576040517f08c379a0000000000000000000000000000000000000000000000000000000008152600401610e9890612995565b60405180910390fd5b601e841480610eb05750603284145b80610ebb5750604684145b80610ec65750606484145b610f05576040517f08c379a0000000000000000000000000000000000000000000000000000000008152600401610efc90612a01565b60405180910390fd5b80600801548411610f4b576040517f08c379a0000000000000000000000000000000000000000000000000000000008152600401610f4290612a93565b60405180910390fd5b8381600801819055508282600560008881526020019081526020016000209182610f76929190612517565b50847f600f24eb98aa4205c376079c1cc9195e841a77574da91b88a61cfe6c612b56c1858585604051610fab93929190612ab3565b60405180910390a25050505050565b60008060009054906101000a900473ffffffffffffffffffffffffffffffffffffffff16905090565b6005602052806000526040600020600091509050805461100290612083565b80601f016020809104026020016040519081016040528092919081815260200182805461102e90612083565b801561107b5780601f106110505761010080835404028352916020019161107b565b820191906000526020600020905b81548152906001019060200180831161105e57829003601f168201915b505050505081565b600660205280600052604060002060009150905080546110a290612083565b80601f01602080910402602001604051908101604052809291908181526020018280546110ce90612083565b801561111b5780601f106110f05761010080835404028352916020019161111b565b820191906000526020600020905b8154815290600101906020018083116110fe57829003601f168201915b505050505081565b61112b6115f7565b600073ffffffffffffffffffffffffffffffffffffffff168173ffffffffffffffffffffffffffffffffffffffff160361119d5760006040517f1e4fbdf70000000000000000000000000000000000000000000000000000000081526004016111949190611e72565b60405180910390fd5b6111a68161167e565b50565b60006003600083815260200190815260200160002090508060060154421015611207576040517f08c379a00000000000000000000000000000000000000000000000000000000081526004016111fe90612b31565b60405180910390fd5b8060070160009054906101000a900460ff1615611259576040517f08c379a000000000000000000000000000000000000000000000000000000000815260040161125090612b9d565b60405180910390fd5b80600401548160050154106113b057600160009054906101000a900473ffffffffffffffffffffffffffffffffffffffff1673ffffffffffffffffffffffffffffffffffffffff1663a9059cbb8260000160009054906101000a900473ffffffffffffffffffffffffffffffffffffffff1683600501546040518363ffffffff1660e01b81526004016112ed9291906126aa565b6020604051808303816000875af115801561130c573d6000803e3d6000fd5b505050506040513d601f19601f8201168201806040525081019061133091906126e8565b61136f576040517f08c379a000000000000000000000000000000000000000000000000000000000815260040161136690612761565b60405180910390fd5b817f40d8c854b6d5329fd5fccae04f5a931d7529963fbab81aced7337394e737cb4d82600501546040516113a39190611b62565b60405180910390a26115b0565b60005b6002548110156115ae5760006004600085815260200190815260200160002060003373ffffffffffffffffffffffffffffffffffffffff1673ffffffffffffffffffffffffffffffffffffffff16815260200190815260200160002054905060008111156115a05760006004600086815260200190815260200160002060003373ffffffffffffffffffffffffffffffffffffffff1673ffffffffffffffffffffffffffffffffffffffff16815260200190815260200160002081905550600160009054906101000a900473ffffffffffffffffffffffffffffffffffffffff1673ffffffffffffffffffffffffffffffffffffffff1663a9059cbb33836040518363ffffffff1660e01b81526004016114ce929190612bbd565b6020604051808303816000875af11580156114ed573d6000803e3d6000fd5b505050506040513d601f19601f8201168201806040525081019061151191906126e8565b611550576040517f08c379a000000000000000000000000000000000000000000000000000000000815260040161154790612c32565b60405180910390fd5b3373ffffffffffffffffffffffffffffffffffffffff16847f7a482fdeb6bc9a1376f597068a214a7a39472bb2eff1b8cad21ba04f49ddca1b836040516115979190611b62565b60405180910390a35b5080806001019150506113b3565b505b60018160070160006101000a81548160ff0219169083151502179055505050565b600160009054906101000a900473ffffffffffffffffffffffffffffffffffffffff1681565b6115ff611742565b73ffffffffffffffffffffffffffffffffffffffff1661161d610fba565b73ffffffffffffffffffffffffffffffffffffffff161461167c57611640611742565b6040517f118cdaa70000000000000000000000000000000000000000000000000000000081526004016116739190611e72565b60405180910390fd5b565b60008060009054906101000a900473ffffffffffffffffffffffffffffffffffffffff169050816000806101000a81548173ffffffffffffffffffffffffffffffffffffffff021916908373ffffffffffffffffffffffffffffffffffffffff1602179055508173ffffffffffffffffffffffffffffffffffffffff168173ffffffffffffffffffffffffffffffffffffffff167f8be0079c531659141344cd1fd0a4f28419497f9722a3daafe3b4186f6b6457e060405160405180910390a35050565b600033905090565b6000604051905090565b600080fd5b600080fd5b600080fd5b600080fd5b6000601f19601f8301169050919050565b7f4e487b7100000000000000000000000000000000000000000000000000000000600052604160045260246000fd5b6117b182611768565b810181811067ffffffffffffffff821117156117d0576117cf611779565b5b80604052505050565b60006117e361174a565b90506117ef82826117a8565b919050565b600067ffffffffffffffff82111561180f5761180e611779565b5b61181882611768565b9050602081019050919050565b82818337600083830152505050565b6000611847611842846117f4565b6117d9565b90508281526020810184848401111561186357611862611763565b5b61186e848285611825565b509392505050565b600082601f83011261188b5761188a61175e565b5b813561189b848260208601611834565b91505092915050565b6000819050919050565b6118b7816118a4565b81146118c257600080fd5b50565b6000813590506118d4816118ae565b92915050565b600080600080600060a086880312156118f6576118f5611754565b5b600086013567ffffffffffffffff81111561191457611913611759565b5b61192088828901611876565b955050602086013567ffffffffffffffff81111561194157611940611759565b5b61194d88828901611876565b945050604086013567ffffffffffffffff81111561196e5761196d611759565b5b61197a88828901611876565b935050606061198b888289016118c5565b925050608061199c888289016118c5565b9150509295509295909350565b6000602082840312156119bf576119be611754565b5b60006119cd848285016118c5565b91505092915050565b600073ffffffffffffffffffffffffffffffffffffffff82169050919050565b6000611a01826119d6565b9050919050565b611a11816119f6565b82525050565b600081519050919050565b600082825260208201905092915050565b60005b83811015611a51578082015181840152602081019050611a36565b60008484015250505050565b6000611a6882611a17565b611a728185611a22565b9350611a82818560208601611a33565b611a8b81611768565b840191505092915050565b611a9f816118a4565b82525050565b60008115159050919050565b611aba81611aa5565b82525050565b600061012082019050611ad6600083018c611a08565b8181036020830152611ae8818b611a5d565b90508181036040830152611afc818a611a5d565b90508181036060830152611b108189611a5d565b9050611b1f6080830188611a96565b611b2c60a0830187611a96565b611b3960c0830186611a96565b611b4660e0830185611ab1565b611b54610100830184611a96565b9a9950505050505050505050565b6000602082019050611b776000830184611a96565b92915050565b6000611b88826119d6565b9050919050565b611b9881611b7d565b8114611ba357600080fd5b50565b600081359050611bb581611b8f565b92915050565b60008060408385031215611bd257611bd1611754565b5b6000611be0858286016118c5565b9250506020611bf185828601611ba6565b9150509250929050565b600080600060608486031215611c1457611c13611754565b5b6000611c22868287016118c5565b9350506020611c33868287016118c5565b9250506040611c44868287016118c5565b9150509250925092565b600080fd5b600080fd5b60008083601f840112611c6e57611c6d61175e565b5b8235905067ffffffffffffffff811115611c8b57611c8a611c4e565b5b602083019150836001820283011115611ca757611ca6611c53565b5b9250929050565b611cb781611aa5565b8114611cc257600080fd5b50565b600081359050611cd481611cae565b92915050565b60008060008060608587031215611cf457611cf3611754565b5b6000611d02878288016118c5565b945050602085013567ffffffffffffffff811115611d2357611d22611759565b5b611d2f87828801611c58565b93509350506040611d4287828801611cc5565b91505092959194509250565b611d5781611b7d565b82525050565b600060c082019050611d726000830189611d4e565b611d7f6020830188611a96565b611d8c6040830187611a96565b611d996060830186611a96565b611da66080830185611ab1565b611db360a0830184611a96565b979650505050505050565b60008060408385031215611dd557611dd4611754565b5b6000611de3858286016118c5565b9250506020611df4858286016118c5565b9150509250929050565b60008060008060608587031215611e1857611e17611754565b5b6000611e26878288016118c5565b9450506020611e37878288016118c5565b935050604085013567ffffffffffffffff811115611e5857611e57611759565b5b611e6487828801611c58565b925092505092959194509250565b6000602082019050611e876000830184611d4e565b92915050565b60006020820190508181036000830152611ea78184611a5d565b905092915050565b600060208284031215611ec557611ec4611754565b5b6000611ed384828501611ba6565b91505092915050565b6000819050919050565b6000611f01611efc611ef7846119d6565b611edc565b6119d6565b9050919050565b6000611f1382611ee6565b9050919050565b6000611f2582611f08565b9050919050565b611f3581611f1a565b82525050565b6000602082019050611f506000830184611f2c565b92915050565b7f476f616c20616d6f756e74206d7573742062652067726561746572207468616e60008201527f2030000000000000000000000000000000000000000000000000000000000000602082015250565b6000611fb2602283611a22565b9150611fbd82611f56565b604082019050919050565b60006020820190508181036000830152611fe181611fa5565b9050919050565b7f446561646c696e65206d75737420626520696e20746865206675747572650000600082015250565b600061201e601e83611a22565b915061202982611fe8565b602082019050919050565b6000602082019050818103600083015261204d81612011565b9050919050565b7f4e487b7100000000000000000000000000000000000000000000000000000000600052602260045260246000fd5b6000600282049050600182168061209b57607f821691505b6020821081036120ae576120ad612054565b5b50919050565b60008190508160005260206000209050919050565b60006020601f8301049050919050565b600082821b905092915050565b6000600883026121167fffffffffffffffffffffffffffffffffffffffffffffffffffffffffffffffff826120d9565b61212086836120d9565b95508019841693508086168417925050509392505050565b600061215361214e612149846118a4565b611edc565b6118a4565b9050919050565b6000819050919050565b61216d83612138565b6121816121798261215a565b8484546120e6565b825550505050565b600090565b612196612189565b6121a1818484612164565b505050565b5b818110156121c5576121ba60008261218e565b6001810190506121a7565b5050565b601f82111561220a576121db816120b4565b6121e4846120c9565b810160208510156121f3578190505b6122076121ff856120c9565b8301826121a6565b50505b505050565b600082821c905092915050565b600061222d6000198460080261220f565b1980831691505092915050565b6000612246838361221c565b9150826002028217905092915050565b61225f82611a17565b67ffffffffffffffff81111561227857612277611779565b5b6122828254612083565b61228d8282856121c9565b600060209050601f8311600181146122c057600084156122ae578287015190505b6122b8858261223a565b865550612320565b601f1984166122ce866120b4565b60005b828110156122f6578489015182556001820191506020850194506020810190506122d1565b86831015612313578489015161230f601f89168261221c565b8355505b6001600288020188555050505b505050505050565b600060408201905061233d6000830185611a96565b61234a6020830184611a96565b9392505050565b7f4e487b7100000000000000000000000000000000000000000000000000000000600052601160045260246000fd5b600061238b826118a4565b91507fffffffffffffffffffffffffffffffffffffffffffffffffffffffffffffffff82036123bd576123bc612351565b5b600182019050919050565b7f4f6e6c792070726f6a6563742063726561746f722063616e2075706461746500600082015250565b60006123fe601f83611a22565b9150612409826123c8565b602082019050919050565b6000602082019050818103600083015261242d816123f1565b9050919050565b7f50726f6a65637420697320616c726561647920636f6d706c6574656400000000600082015250565b600061246a601c83611a22565b915061247582612434565b602082019050919050565b600060208201905081810360008301526124998161245d565b9050919050565b7f4e6f2070726f677265737320746f207265766965770000000000000000000000600082015250565b60006124d6601583611a22565b91506124e1826124a0565b602082019050919050565b60006020820190508181036000830152612505816124c9565b9050919050565b600082905092915050565b612521838361250c565b67ffffffffffffffff81111561253a57612539611779565b5b6125448254612083565b61254f8282856121c9565b6000601f83116001811461257e576000841561256c578287013590505b612576858261223a565b8655506125de565b601f19841661258c866120b4565b60005b828110156125b45784890135825560018201915060208501945060208101905061258f565b868310156125d157848901356125cd601f89168261221c565b8355505b6001600288020188555050505b50505050505050565b60006125f2826118a4565b91506125fd836118a4565b925082820261260b816118a4565b9150828204841483151761262257612621612351565b5b5092915050565b7f4e487b7100000000000000000000000000000000000000000000000000000000600052601260045260246000fd5b6000612663826118a4565b915061266e836118a4565b92508261267e5761267d612629565b5b828204905092915050565b600061269482611f08565b9050919050565b6126a481612689565b82525050565b60006040820190506126bf600083018561269b565b6126cc6020830184611a96565b9392505050565b6000815190506126e281611cae565b92915050565b6000602082840312156126fe576126fd611754565b5b600061270c848285016126d3565b91505092915050565b7f546f6b656e207472616e73666572206661696c65640000000000000000000000600082015250565b600061274b601583611a22565b915061275682612715565b602082019050919050565b6000602082019050818103600083015261277a8161273e565b9050919050565b600061278d8385611a22565b935061279a838584611825565b6127a383611768565b840190509392505050565b600060408201905081810360008301526127c9818587612781565b90506127d86020830184611ab1565b949350505050565b7f50726f6a6563742066756e64696e6720706572696f64206973206f7665720000600082015250565b6000612816601e83611a22565b9150612821826127e0565b602082019050919050565b6000602082019050818103600083015261284581612809565b9050919050565b7f416d6f756e74206d7573742062652067726561746572207468616e2030000000600082015250565b6000612882601d83611a22565b915061288d8261284c565b602082019050919050565b600060208201905081810360008301526128b181612875565b9050919050565b60006060820190506128cd6000830186611d4e565b6128da6020830185611d4e565b6128e76040830184611a96565b949350505050565b60006128fa826118a4565b9150612905836118a4565b925082820190508082111561291d5761291c612351565b5b92915050565b7f4f6e6c792070726f6a6563742063726561746f722063616e207570646174652060008201527f70726f6772657373000000000000000000000000000000000000000000000000602082015250565b600061297f602883611a22565b915061298a82612923565b604082019050919050565b600060208201905081810360008301526129ae81612972565b9050919050565b7f496e76616c69642070726f67726573732076616c756500000000000000000000600082015250565b60006129eb601683611a22565b91506129f6826129b5565b602082019050919050565b60006020820190508181036000830152612a1a816129de565b9050919050565b7f50726f6772657373206d7573742062652067726561746572207468616e20637560008201527f7272656e742070726f6772657373000000000000000000000000000000000000602082015250565b6000612a7d602e83611a22565b9150612a8882612a21565b604082019050919050565b60006020820190508181036000830152612aac81612a70565b9050919050565b6000604082019050612ac86000830186611a96565b8181036020830152612adb818486612781565b9050949350505050565b7f50726f6a656374206973207374696c6c206f6e676f696e670000000000000000600082015250565b6000612b1b601883611a22565b9150612b2682612ae5565b602082019050919050565b60006020820190508181036000830152612b4a81612b0e565b9050919050565b7f46756e647320616c726561647920646973747269627574656400000000000000600082015250565b6000612b87601983611a22565b9150612b9282612b51565b602082019050919050565b60006020820190508181036000830152612bb681612b7a565b9050919050565b6000604082019050612bd26000830185611d4e565b612bdf6020830184611a96565b9392505050565b7f526566756e64207472616e73666572206661696c656400000000000000000000600082015250565b6000612c1c601683611a22565b9150612c2782612be6565b602082019050919050565b60006020820190508181036000830152612c4b81612c0f565b905091905056fea2646970667358221220d906ab2677090fc7c71e04e4fa3b50e09b64c18951713867b2649a37e78fb97a64736f6c63430008180033",
  "devdoc": {
    "errors": {
      "OwnableInvalidOwner(address)": [
        {
          "details": "The owner is not a valid owner account. (eg. `address(0)`)"
        }
      ],
      "OwnableUnauthorizedAccount(address)": [
        {
          "details": "The caller account is not authorized to perform an operation."
        }
      ]
    },
    "kind": "dev",
    "methods": {
      "owner()": {
        "details": "Returns the address of the current owner."
      },
      "renounceOwnership()": {
        "details": "Leaves the contract without owner. It will not be possible to call `onlyOwner` functions. Can only be called by the current owner. NOTE: Renouncing ownership will leave the contract without an owner, thereby disabling any functionality that is only available to the owner."
      },
      "transferOwnership(address)": {
        "details": "Transfers ownership of the contract to a new account (`newOwner`). Can only be called by the current owner."
      }
    },
    "version": 1
  },
  "userdoc": {
    "kind": "user",
    "methods": {},
    "version": 1
  },
  "storageLayout": {
    "storage": [
      {
        "astId": 8,
        "contract": "contracts/SmartFrogFund.sol:FrogFund",
        "label": "_owner",
        "offset": 0,
        "slot": "0",
        "type": "t_address"
      },
      {
        "astId": 283,
        "contract": "contracts/SmartFrogFund.sol:FrogFund",
        "label": "token",
        "offset": 0,
        "slot": "1",
        "type": "t_contract(IERC20)225"
      },
      {
        "astId": 286,
        "contract": "contracts/SmartFrogFund.sol:FrogFund",
        "label": "projectCount",
        "offset": 0,
        "slot": "2",
        "type": "t_uint256"
      },
      {
        "astId": 291,
        "contract": "contracts/SmartFrogFund.sol:FrogFund",
        "label": "projects",
        "offset": 0,
        "slot": "3",
        "type": "t_mapping(t_uint256,t_struct(Project)280_storage)"
      },
      {
        "astId": 297,
        "contract": "contracts/SmartFrogFund.sol:FrogFund",
        "label": "contributions",
        "offset": 0,
        "slot": "4",
        "type": "t_mapping(t_uint256,t_mapping(t_address,t_uint256))"
      },
      {
        "astId": 301,
        "contract": "contracts/SmartFrogFund.sol:FrogFund",
        "label": "progressDetails",
        "offset": 0,
        "slot": "5",
        "type": "t_mapping(t_uint256,t_string_storage)"
      },
      {
        "astId": 305,
        "contract": "contracts/SmartFrogFund.sol:FrogFund",
        "label": "approvalComments",
        "offset": 0,
        "slot": "6",
        "type": "t_mapping(t_uint256,t_string_storage)"
      }
    ],
    "types": {
      "t_address": {
        "encoding": "inplace",
        "label": "address",
        "numberOfBytes": "20"
      },
      "t_address_payable": {
        "encoding": "inplace",
        "label": "address payable",
        "numberOfBytes": "20"
      },
      "t_bool": {
        "encoding": "inplace",
        "label": "bool",
        "numberOfBytes": "1"
      },
      "t_contract(IERC20)225": {
        "encoding": "inplace",
        "label": "contract IERC20",
        "numberOfBytes": "20"
      },
      "t_mapping(t_address,t_uint256)": {
        "encoding": "mapping",
        "key": "t_address",
        "label": "mapping(address => uint256)",
        "numberOfBytes": "32",
        "value": "t_uint256"
      },
      "t_mapping(t_uint256,t_mapping(t_address,t_uint256))": {
        "encoding": "mapping",
        "key": "t_uint256",
        "label": "mapping(uint256 => mapping(address => uint256))",
        "numberOfBytes": "32",
        "value": "t_mapping(t_address,t_uint256)"
      },
      "t_mapping(t_uint256,t_string_storage)": {
        "encoding": "mapping",
        "key": "t_uint256",
        "label": "mapping(uint256 => string)",
        "numberOfBytes": "32",
        "value": "t_string_storage"
      },
      "t_mapping(t_uint256,t_struct(Project)280_storage)": {
        "encoding": "mapping",
        "key": "t_uint256",
        "label": "mapping(uint256 => struct FrogFund.Project)",
        "numberOfBytes": "32",
        "value": "t_struct(Project)280_storage"
      },
      "t_string_storage": {
        "encoding": "bytes",
        "label": "string",
        "numberOfBytes": "32"
      },
      "t_struct(Project)280_storage": {
        "encoding": "inplace",
        "label": "struct FrogFund.Project",
        "members": [
          {
            "astId": 263,
            "contract": "contracts/SmartFrogFund.sol:FrogFund",
            "label": "creator",
            "offset": 0,
            "slot": "0",
            "type": "t_address_payable"
          },
          {
            "astId": 265,
            "contract": "contracts/SmartFrogFund.sol:FrogFund",
            "label": "title",
            "offset": 0,
            "slot": "1",
            "type": "t_string_storage"
          },
          {
            "astId": 267,
            "contract": "contracts/SmartFrogFund.sol:FrogFund",
            "label": "description",
            "offset": 0,
            "slot": "2",
            "type": "t_string_storage"
          },
          {
            "astId": 269,
            "contract": "contracts/SmartFrogFund.sol:FrogFund",
            "label": "link",
            "offset": 0,
            "slot": "3",
            "type": "t_string_storage"
          },
          {
            "astId": 271,
            "contract": "contracts/SmartFrogFund.sol:FrogFund",
            "label": "goalAmount",
            "offset": 0,
            "slot": "4",
            "type": "t_uint256"
          },
          {
            "astId": 273,
            "contract": "contracts/SmartFrogFund.sol:FrogFund",
            "label": "currentAmount",
            "offset": 0,
            "slot": "5",
            "type": "t_uint256"
          },
          {
            "astId": 275,
            "contract": "contracts/SmartFrogFund.sol:FrogFund",
            "label": "deadline",
            "offset": 0,
            "slot": "6",
            "type": "t_uint256"
          },
          {
            "astId": 277,
            "contract": "contracts/SmartFrogFund.sol:FrogFund",
            "label": "completed",
            "offset": 0,
            "slot": "7",
            "type": "t_bool"
          },
          {
            "astId": 279,
            "contract": "contracts/SmartFrogFund.sol:FrogFund",
            "label": "currentProgress",
            "offset": 0,
            "slot": "8",
            "type": "t_uint256"
          }
        ],
        "numberOfBytes": "288"
      },
      "t_uint256": {
        "encoding": "inplace",
        "label": "uint256",
        "numberOfBytes": "32"
      }
    }
  }
}