{
  "address": "0x0472100c8B4fC47625789935D1A3C899B45Db04F",
  "abi": [
    {
      "inputs": [
        {
          "internalType": "address",
          "name": "_tokenAddress",
          "type": "address"
        }
      ],
      "stateMutability": "nonpayable",
      "type": "constructor"
    },
    {
      "inputs": [
        {
          "internalType": "address",
          "name": "owner",
          "type": "address"
        }
      ],
      "name": "OwnableInvalidOwner",
      "type": "error"
    },
    {
      "inputs": [
        {
          "internalType": "address",
          "name": "account",
          "type": "address"
        }
      ],
      "name": "OwnableUnauthorizedAccount",
      "type": "error"
    },
    {
      "anonymous": false,
      "inputs": [
        {
          "indexed": true,
          "internalType": "uint256",
          "name": "projectId",
          "type": "uint256"
        },
        {
          "indexed": false,
          "internalType": "uint256",
          "name": "amount",
          "type": "uint256"
        },
        {
          "indexed": false,
          "internalType": "bool",
          "name": "isEth",
          "type": "bool"
        }
      ],
      "name": "FundsDistributed",
      "type": "event"
    },
    {
      "anonymous": false,
      "inputs": [
        {
          "indexed": true,
          "internalType": "address",
          "name": "previousOwner",
          "type": "address"
        },
        {
          "indexed": true,
          "internalType": "address",
          "name": "newOwner",
          "type": "address"
        }
      ],
      "name": "OwnershipTransferred",
      "type": "event"
    },
    {
      "anonymous": false,
      "inputs": [
        {
          "indexed": true,
          "internalType": "uint256",
          "name": "projectId",
          "type": "uint256"
        },
        {
          "indexed": false,
          "internalType": "string",
          "name": "comment",
          "type": "string"
        },
        {
          "indexed": false,
          "internalType": "bool",
          "name": "approved",
          "type": "bool"
        },
        {
          "indexed": false,
          "internalType": "uint256",
          "name": "currentProgress",
          "type": "uint256"
        },
        {
          "indexed": false,
          "internalType": "address",
          "name": "Investor",
          "type": "address"
        }
      ],
      "name": "ProgressReviewed",
      "type": "event"
    },
    {
      "anonymous": false,
      "inputs": [
        {
          "indexed": true,
          "internalType": "uint256",
          "name": "projectId",
          "type": "uint256"
        },
        {
          "indexed": false,
          "internalType": "uint256",
          "name": "progress",
          "type": "uint256"
        },
        {
          "indexed": false,
          "internalType": "string",
          "name": "details",
          "type": "string"
        }
      ],
      "name": "ProgressUpdated",
      "type": "event"
    },
    {
      "anonymous": false,
      "inputs": [
        {
          "indexed": true,
          "internalType": "uint256",
          "name": "projectId",
          "type": "uint256"
        },
        {
          "indexed": true,
          "internalType": "address",
          "name": "creator",
          "type": "address"
        },
        {
          "indexed": false,
          "internalType": "string",
          "name": "_description",
          "type": "string"
        },
        {
          "indexed": false,
          "internalType": "string",
          "name": "_link",
          "type": "string"
        },
        {
          "indexed": false,
          "internalType": "string",
          "name": "_title",
          "type": "string"
        },
        {
          "indexed": false,
          "internalType": "uint256",
          "name": "goalAmount",
          "type": "uint256"
        },
        {
          "indexed": false,
          "internalType": "uint256",
          "name": "deadline",
          "type": "uint256"
        }
      ],
      "name": "ProjectCreated",
      "type": "event"
    },
    {
      "anonymous": false,
      "inputs": [
        {
          "indexed": true,
          "internalType": "uint256",
          "name": "projectId",
          "type": "uint256"
        },
        {
          "indexed": true,
          "internalType": "address",
          "name": "supporter",
          "type": "address"
        },
        {
          "indexed": false,
          "internalType": "uint256",
          "name": "amount",
          "type": "uint256"
        },
        {
          "indexed": false,
          "internalType": "bool",
          "name": "isEth",
          "type": "bool"
        }
      ],
      "name": "ProjectFunded",
      "type": "event"
    },
    {
      "anonymous": false,
      "inputs": [
        {
          "indexed": true,
          "internalType": "uint256",
          "name": "projectId",
          "type": "uint256"
        },
        {
          "indexed": true,
          "internalType": "address",
          "name": "supporter",
          "type": "address"
        },
        {
          "indexed": false,
          "internalType": "uint256",
          "name": "amount",
          "type": "uint256"
        },
        {
          "indexed": false,
          "internalType": "bool",
          "name": "isEth",
          "type": "bool"
        }
      ],
      "name": "RefundIssued",
      "type": "event"
    },
    {
      "inputs": [
        {
          "internalType": "uint256",
          "name": "",
          "type": "uint256"
        },
        {
          "internalType": "uint256",
          "name": "",
          "type": "uint256"
        }
      ],
      "name": "approvalComments",
      "outputs": [
        {
          "internalType": "string",
          "name": "",
          "type": "string"
        }
      ],
      "stateMutability": "view",
      "type": "function"
    },
    {
      "inputs": [
        {
          "internalType": "uint256",
          "name": "_projectId",
          "type": "uint256"
        }
      ],
      "name": "canSubmitNextProgress",
      "outputs": [
        {
          "internalType": "bool",
          "name": "",
          "type": "bool"
        }
      ],
      "stateMutability": "view",
      "type": "function"
    },
    {
      "inputs": [
        {
          "internalType": "uint256",
          "name": "",
          "type": "uint256"
        },
        {
          "internalType": "address",
          "name": "",
          "type": "address"
        }
      ],
      "name": "contributions",
      "outputs": [
        {
          "internalType": "uint256",
          "name": "",
          "type": "uint256"
        }
      ],
      "stateMutability": "view",
      "type": "function"
    },
    {
      "inputs": [
        {
          "internalType": "string",
          "name": "_title",
          "type": "string"
        },
        {
          "internalType": "string",
          "name": "_description",
          "type": "string"
        },
        {
          "internalType": "string",
          "name": "_link",
          "type": "string"
        },
        {
          "internalType": "uint256",
          "name": "_goalAmount",
          "type": "uint256"
        },
        {
          "internalType": "uint256",
          "name": "_deadline",
          "type": "uint256"
        }
      ],
      "name": "createProject",
      "outputs": [],
      "stateMutability": "nonpayable",
      "type": "function"
    },
    {
      "inputs": [
        {
          "internalType": "address",
          "name": "",
          "type": "address"
        }
      ],
      "name": "creatorBalances",
      "outputs": [
        {
          "internalType": "uint256",
          "name": "",
          "type": "uint256"
        }
      ],
      "stateMutability": "view",
      "type": "function"
    },
    {
      "inputs": [
        {
          "internalType": "address",
          "name": "",
          "type": "address"
        }
      ],
      "name": "creatorEthBalances",
      "outputs": [
        {
          "internalType": "uint256",
          "name": "",
          "type": "uint256"
        }
      ],
      "stateMutability": "view",
      "type": "function"
    },
    {
      "inputs": [
        {
          "internalType": "uint256",
          "name": "",
          "type": "uint256"
        },
        {
          "internalType": "address",
          "name": "",
          "type": "address"
        }
      ],
      "name": "ethContributions",
      "outputs": [
        {
          "internalType": "uint256",
          "name": "",
          "type": "uint256"
        }
      ],
      "stateMutability": "view",
      "type": "function"
    },
    {
      "inputs": [
        {
          "internalType": "address",
          "name": "_creator",
          "type": "address"
        }
      ],
      "name": "getCreatorBalance",
      "outputs": [
        {
          "internalType": "uint256",
          "name": "",
          "type": "uint256"
        }
      ],
      "stateMutability": "view",
      "type": "function"
    },
    {
      "inputs": [
        {
          "internalType": "address",
          "name": "_creator",
          "type": "address"
        }
      ],
      "name": "getCreatorEthBalance",
      "outputs": [
        {
          "internalType": "uint256",
          "name": "",
          "type": "uint256"
        }
      ],
      "stateMutability": "view",
      "type": "function"
    },
    {
      "inputs": [
        {
          "internalType": "uint256",
          "name": "projectId",
          "type": "uint256"
        }
      ],
      "name": "getInvestors",
      "outputs": [
        {
          "internalType": "address[]",
          "name": "",
          "type": "address[]"
        }
      ],
      "stateMutability": "view",
      "type": "function"
    },
    {
      "inputs": [
        {
          "internalType": "address",
          "name": "_user",
          "type": "address"
        }
      ],
      "name": "getPlatformBalance",
      "outputs": [
        {
          "internalType": "uint256",
          "name": "",
          "type": "uint256"
        },
        {
          "internalType": "uint256",
          "name": "",
          "type": "uint256"
        }
      ],
      "stateMutability": "view",
      "type": "function"
    },
    {
      "inputs": [
        {
          "internalType": "uint256",
          "name": "_projectId",
          "type": "uint256"
        }
      ],
      "name": "getProjectDetails",
      "outputs": [
        {
          "internalType": "address",
          "name": "",
          "type": "address"
        },
        {
          "internalType": "uint256",
          "name": "",
          "type": "uint256"
        },
        {
          "internalType": "uint256",
          "name": "",
          "type": "uint256"
        },
        {
          "internalType": "uint256",
          "name": "",
          "type": "uint256"
        },
        {
          "internalType": "bool",
          "name": "",
          "type": "bool"
        },
        {
          "internalType": "uint256",
          "name": "",
          "type": "uint256"
        },
        {
          "internalType": "uint256",
          "name": "",
          "type": "uint256"
        }
      ],
      "stateMutability": "view",
      "type": "function"
    },
    {
      "inputs": [
        {
          "internalType": "uint256",
          "name": "",
          "type": "uint256"
        },
        {
          "internalType": "uint256",
          "name": "",
          "type": "uint256"
        },
        {
          "internalType": "address",
          "name": "",
          "type": "address"
        }
      ],
      "name": "hasReviewed",
      "outputs": [
        {
          "internalType": "bool",
          "name": "",
          "type": "bool"
        }
      ],
      "stateMutability": "view",
      "type": "function"
    },
    {
      "inputs": [],
      "name": "owner",
      "outputs": [
        {
          "internalType": "address",
          "name": "",
          "type": "address"
        }
      ],
      "stateMutability": "view",
      "type": "function"
    },
    {
      "inputs": [
        {
          "internalType": "uint256",
          "name": "",
          "type": "uint256"
        },
        {
          "internalType": "uint256",
          "name": "",
          "type": "uint256"
        }
      ],
      "name": "progressApprovals",
      "outputs": [
        {
          "internalType": "uint256",
          "name": "",
          "type": "uint256"
        }
      ],
      "stateMutability": "view",
      "type": "function"
    },
    {
      "inputs": [
        {
          "internalType": "uint256",
          "name": "",
          "type": "uint256"
        },
        {
          "internalType": "uint256",
          "name": "",
          "type": "uint256"
        }
      ],
      "name": "progressDetails",
      "outputs": [
        {
          "internalType": "string",
          "name": "",
          "type": "string"
        }
      ],
      "stateMutability": "view",
      "type": "function"
    },
    {
      "inputs": [
        {
          "internalType": "uint256",
          "name": "",
          "type": "uint256"
        },
        {
          "internalType": "uint256",
          "name": "",
          "type": "uint256"
        }
      ],
      "name": "progressDisapprovals",
      "outputs": [
        {
          "internalType": "uint256",
          "name": "",
          "type": "uint256"
        }
      ],
      "stateMutability": "view",
      "type": "function"
    },
    {
      "inputs": [],
      "name": "projectCount",
      "outputs": [
        {
          "internalType": "uint256",
          "name": "",
          "type": "uint256"
        }
      ],
      "stateMutability": "view",
      "type": "function"
    },
    {
      "inputs": [
        {
          "internalType": "uint256",
          "name": "",
          "type": "uint256"
        },
        {
          "internalType": "uint256",
          "name": "",
          "type": "uint256"
        }
      ],
      "name": "projectInvestors",
      "outputs": [
        {
          "internalType": "address",
          "name": "",
          "type": "address"
        }
      ],
      "stateMutability": "view",
      "type": "function"
    },
    {
      "inputs": [
        {
          "internalType": "uint256",
          "name": "",
          "type": "uint256"
        }
      ],
      "name": "projects",
      "outputs": [
        {
          "internalType": "address payable",
          "name": "creator",
          "type": "address"
        },
        {
          "internalType": "string",
          "name": "title",
          "type": "string"
        },
        {
          "internalType": "string",
          "name": "description",
          "type": "string"
        },
        {
          "internalType": "string",
          "name": "link",
          "type": "string"
        },
        {
          "internalType": "uint256",
          "name": "goalAmount",
          "type": "uint256"
        },
        {
          "internalType": "uint256",
          "name": "currentAmount",
          "type": "uint256"
        },
        {
          "internalType": "uint256",
          "name": "amountDistributed",
          "type": "uint256"
        },
        {
          "internalType": "uint256",
          "name": "deadline",
          "type": "uint256"
        },
        {
          "internalType": "bool",
          "name": "completed",
          "type": "bool"
        },
        {
          "internalType": "uint256",
          "name": "currentProgress",
          "type": "uint256"
        }
      ],
      "stateMutability": "view",
      "type": "function"
    },
    {
      "inputs": [],
      "name": "renounceOwnership",
      "outputs": [],
      "stateMutability": "nonpayable",
      "type": "function"
    },
    {
      "inputs": [
        {
          "internalType": "uint256",
          "name": "_projectId",
          "type": "uint256"
        },
        {
          "internalType": "uint256",
          "name": "_progress",
          "type": "uint256"
        },
        {
          "internalType": "string",
          "name": "_comment",
          "type": "string"
        },
        {
          "internalType": "bool",
          "name": "_approved",
          "type": "bool"
        }
      ],
      "name": "reviewProgress",
      "outputs": [],
      "stateMutability": "nonpayable",
      "type": "function"
    },
    {
      "inputs": [
        {
          "internalType": "uint256",
          "name": "_projectId",
          "type": "uint256"
        }
      ],
      "name": "supportProjectWithEth",
      "outputs": [],
      "stateMutability": "payable",
      "type": "function"
    },
    {
      "inputs": [
        {
          "internalType": "uint256",
          "name": "_projectId",
          "type": "uint256"
        },
        {
          "internalType": "uint256",
          "name": "_amount",
          "type": "uint256"
        }
      ],
      "name": "supportProjectWithToken",
      "outputs": [],
      "stateMutability": "nonpayable",
      "type": "function"
    },
    {
      "inputs": [],
      "name": "token",
      "outputs": [
        {
          "internalType": "contract IERC20",
          "name": "",
          "type": "address"
        }
      ],
      "stateMutability": "view",
      "type": "function"
    },
    {
      "inputs": [
        {
          "internalType": "address",
          "name": "newOwner",
          "type": "address"
        }
      ],
      "name": "transferOwnership",
      "outputs": [],
      "stateMutability": "nonpayable",
      "type": "function"
    },
    {
      "inputs": [
        {
          "internalType": "address",
          "name": "to",
          "type": "address"
        },
        {
          "internalType": "uint256",
          "name": "value",
          "type": "uint256"
        }
      ],
      "name": "transferTokens",
      "outputs": [
        {
          "internalType": "bool",
          "name": "",
          "type": "bool"
        }
      ],
      "stateMutability": "nonpayable",
      "type": "function"
    },
    {
      "inputs": [
        {
          "internalType": "uint256",
          "name": "_projectId",
          "type": "uint256"
        },
        {
          "internalType": "uint256",
          "name": "_progress",
          "type": "uint256"
        },
        {
          "internalType": "string",
          "name": "_details",
          "type": "string"
        }
      ],
      "name": "updateProgress",
      "outputs": [],
      "stateMutability": "nonpayable",
      "type": "function"
    },
    {
      "inputs": [
        {
          "internalType": "uint256",
          "name": "_projectId",
          "type": "uint256"
        },
        {
          "internalType": "uint256",
          "name": "_newGoalAmount",
          "type": "uint256"
        },
        {
          "internalType": "uint256",
          "name": "_newDeadline",
          "type": "uint256"
        }
      ],
      "name": "updateProject",
      "outputs": [],
      "stateMutability": "nonpayable",
      "type": "function"
    }
  ],
  "transactionHash": "0x51103b4d85896eb1e4943a93476e750e5af1881c2d1e32e29a63bccd6c7b2bf9",
  "args": [
    "0xCe0c9040A10275BDc6856e5C2077AC4F9338f826"
  ],
  "numDeployments": 6,
  "solcInputHash": "c91e9b75e099d52f6de7964cf3bd6dd7",
  "bytecode": "0x608060405260006002553480156200001657600080fd5b50604051620048833803806200488383398181016040528101906200003c9190620003b7565b33600073ffffffffffffffffffffffffffffffffffffffff168173ffffffffffffffffffffffffffffffffffffffff1603620000b25760006040517f1e4fbdf7000000000000000000000000000000000000000000000000000000008152600401620000a99190620003fa565b60405180910390fd5b620000c3816200011d60201b60201c565b5080600160006101000a81548173ffffffffffffffffffffffffffffffffffffffff021916908373ffffffffffffffffffffffffffffffffffffffff1602179055506200011633620001e160201b60201c565b5062000417565b60008060009054906101000a900473ffffffffffffffffffffffffffffffffffffffff169050816000806101000a81548173ffffffffffffffffffffffffffffffffffffffff021916908373ffffffffffffffffffffffffffffffffffffffff1602179055508173ffffffffffffffffffffffffffffffffffffffff168173ffffffffffffffffffffffffffffffffffffffff167f8be0079c531659141344cd1fd0a4f28419497f9722a3daafe3b4186f6b6457e060405160405180910390a35050565b620001f16200027a60201b60201c565b600073ffffffffffffffffffffffffffffffffffffffff168173ffffffffffffffffffffffffffffffffffffffff1603620002665760006040517f1e4fbdf70000000000000000000000000000000000000000000000000000000081526004016200025d9190620003fa565b60405180910390fd5b62000277816200011d60201b60201c565b50565b6200028a6200031c60201b60201c565b73ffffffffffffffffffffffffffffffffffffffff16620002b06200032460201b60201c565b73ffffffffffffffffffffffffffffffffffffffff16146200031a57620002dc6200031c60201b60201c565b6040517f118cdaa7000000000000000000000000000000000000000000000000000000008152600401620003119190620003fa565b60405180910390fd5b565b600033905090565b60008060009054906101000a900473ffffffffffffffffffffffffffffffffffffffff16905090565b600080fd5b600073ffffffffffffffffffffffffffffffffffffffff82169050919050565b60006200037f8262000352565b9050919050565b620003918162000372565b81146200039d57600080fd5b50565b600081519050620003b18162000386565b92915050565b600060208284031215620003d057620003cf6200034d565b5b6000620003e084828501620003a0565b91505092915050565b620003f48162000372565b82525050565b6000602082019050620004116000830184620003e9565b92915050565b61445c80620004276000396000f3fe6080604052600436106101c25760003560e01c80636a78c833116100f7578063b93a533911610095578063d5f2cf0511610064578063d5f2cf05146106fd578063dd5862e51461073a578063f2fde38b14610777578063fc0c546a146107a0576101c2565b8063b93a533914610631578063b9b1060b1461065a578063bbbf146a14610697578063bec3fa17146106c0576101c2565b80638b44da95116100d15780638b44da951461054f5780638cdaace91461058c5780638da5cb5b146105c9578063aff5eaee146105f4576101c2565b80636a78c833146104d2578063715018a61461050f5780637a25f10014610526576101c2565b8063350d171711610164578063523db9391161013e578063523db939146103ec5780635955eb15146104295780635b325968146104525780635f8439e31461048f576101c2565b8063350d17171461034757806336fbad26146103845780633d891f59146103af576101c2565b80631139de55116101a05780631139de55146102735780631b5d5f81146102b05780632a782802146102cc5780633170ee1d14610309576101c2565b8063056c29ee146101c757806309cf7ffc146101f0578063107046bd1461022d575b600080fd5b3480156101d357600080fd5b506101ee60048036038101906101e99190612ac8565b6107cb565b005b3480156101fc57600080fd5b5061021760048036038101906102129190612bf5565b610a1f565b6040516102249190612c31565b60405180910390f35b34801561023957600080fd5b50610254600480360381019061024f9190612c4c565b610a68565b60405161026a9a99989796959493929190612d34565b60405180910390f35b34801561027f57600080fd5b5061029a60048036038101906102959190612c4c565b610c81565b6040516102a79190612ea3565b60405180910390f35b6102ca60048036038101906102c59190612c4c565b610d22565b005b3480156102d857600080fd5b506102f360048036038101906102ee9190612bf5565b610f93565b6040516103009190612c31565b60405180910390f35b34801561031557600080fd5b50610330600480360381019061032b9190612bf5565b610fab565b60405161033e929190612ec5565b60405180910390f35b34801561035357600080fd5b5061036e60048036038101906103699190612eee565b611095565b60405161037b9190612f2e565b60405180910390f35b34801561039057600080fd5b50610399611142565b6040516103a69190612c31565b60405180910390f35b3480156103bb57600080fd5b506103d660048036038101906103d19190612f50565b611148565b6040516103e39190612c31565b60405180910390f35b3480156103f857600080fd5b50610413600480360381019061040e9190612eee565b61116d565b6040516104209190612c31565b60405180910390f35b34801561043557600080fd5b50610450600480360381019061044b9190612f90565b611192565b005b34801561045e57600080fd5b5061047960048036038101906104749190612bf5565b6112b8565b6040516104869190612c31565b60405180910390f35b34801561049b57600080fd5b506104b660048036038101906104b19190612c4c565b6112d0565b6040516104c99796959493929190612ff2565b60405180910390f35b3480156104de57600080fd5b506104f960048036038101906104f49190612bf5565b61135b565b6040516105069190612c31565b60405180910390f35b34801561051b57600080fd5b506105246113a4565b005b34801561053257600080fd5b5061054d600480360381019061054891906130c1565b6113b8565b005b34801561055b57600080fd5b5061057660048036038101906105719190612eee565b611671565b6040516105839190613135565b60405180910390f35b34801561059857600080fd5b506105b360048036038101906105ae9190613150565b6116bf565b6040516105c091906131a3565b60405180910390f35b3480156105d557600080fd5b506105de6116fb565b6040516105eb9190613135565b60405180910390f35b34801561060057600080fd5b5061061b60048036038101906106169190612c4c565b611724565b60405161062891906131a3565b60405180910390f35b34801561063d57600080fd5b50610658600480360381019061065391906131ea565b6117b3565b005b34801561066657600080fd5b50610681600480360381019061067c9190612eee565b611c4c565b60405161068e9190612f2e565b60405180910390f35b3480156106a357600080fd5b506106be60048036038101906106b99190612eee565b611cf9565b005b3480156106cc57600080fd5b506106e760048036038101906106e29190613272565b61201f565b6040516106f491906131a3565b60405180910390f35b34801561070957600080fd5b50610724600480360381019061071f9190612f50565b6120c9565b6040516107319190612c31565b60405180910390f35b34801561074657600080fd5b50610761600480360381019061075c9190612eee565b6120ee565b60405161076e9190612c31565b60405180910390f35b34801561078357600080fd5b5061079e60048036038101906107999190612bf5565b612113565b005b3480156107ac57600080fd5b506107b5612199565b6040516107c29190613311565b60405180910390f35b6000821161080e576040517f08c379a00000000000000000000000000000000000000000000000000000000081526004016108059061339e565b60405180910390fd5b428111610850576040517f08c379a00000000000000000000000000000000000000000000000000000000081526004016108479061340a565b60405180910390fd5b6040518061014001604052803373ffffffffffffffffffffffffffffffffffffffff1681526020018681526020018581526020018481526020018381526020016000815260200160008152602001828152602001600015158152602001600081525060036000600254815260200190815260200160002060008201518160000160006101000a81548173ffffffffffffffffffffffffffffffffffffffff021916908373ffffffffffffffffffffffffffffffffffffffff1602179055506020820151816001019081610923919061362c565b506040820151816002019081610939919061362c565b50606082015181600301908161094f919061362c565b506080820151816004015560a0820151816005015560c0820151816006015560e082015181600701556101008201518160080160006101000a81548160ff02191690831515021790555061012082015181600901559050503373ffffffffffffffffffffffffffffffffffffffff166002547f38c6aeb743839661492fe8d17f7c9acc37807601100b5530d16fcac5a72c4fe486868987876040516109f89594939291906136fe565b60405180910390a360026000815480929190610a1390613795565b91905055505050505050565b6000600860008373ffffffffffffffffffffffffffffffffffffffff1673ffffffffffffffffffffffffffffffffffffffff168152602001908152602001600020549050919050565b60036020528060005260406000206000915090508060000160009054906101000a900473ffffffffffffffffffffffffffffffffffffffff1690806001018054610ab190613459565b80601f0160208091040260200160405190810160405280929190818152602001828054610add90613459565b8015610b2a5780601f10610aff57610100808354040283529160200191610b2a565b820191906000526020600020905b815481529060010190602001808311610b0d57829003601f168201915b505050505090806002018054610b3f90613459565b80601f0160208091040260200160405190810160405280929190818152602001828054610b6b90613459565b8015610bb85780601f10610b8d57610100808354040283529160200191610bb8565b820191906000526020600020905b815481529060010190602001808311610b9b57829003601f168201915b505050505090806003018054610bcd90613459565b80601f0160208091040260200160405190810160405280929190818152602001828054610bf990613459565b8015610c465780601f10610c1b57610100808354040283529160200191610c46565b820191906000526020600020905b815481529060010190602001808311610c2957829003601f168201915b5050505050908060040154908060050154908060060154908060070154908060080160009054906101000a900460ff1690806009015490508a565b6060600a6000838152602001908152602001600020805480602002602001604051908101604052809291908181526020018280548015610d1657602002820191906000526020600020905b8160009054906101000a900473ffffffffffffffffffffffffffffffffffffffff1673ffffffffffffffffffffffffffffffffffffffff1681526020019060010190808311610ccc575b50505050509050919050565b600060036000838152602001908152602001600020905080600701544210610d7f576040517f08c379a0000000000000000000000000000000000000000000000000000000008152600401610d7690613829565b60405180910390fd5b60003411610dc2576040517f08c379a0000000000000000000000000000000000000000000000000000000008152600401610db990613895565b60405180910390fd5b34816005016000828254610dd691906138b5565b92505081905550346005600084815260200190815260200160002060003373ffffffffffffffffffffffffffffffffffffffff1673ffffffffffffffffffffffffffffffffffffffff1681526020019081526020016000206000828254610e3d91906138b5565b92505081905550346005600084815260200190815260200160002060003373ffffffffffffffffffffffffffffffffffffffff1673ffffffffffffffffffffffffffffffffffffffff1681526020019081526020016000205403610f1057600a6000838152602001908152602001600020339080600181540180825580915050600190039060005260206000200160009091909190916101000a81548173ffffffffffffffffffffffffffffffffffffffff021916908373ffffffffffffffffffffffffffffffffffffffff1602179055505b8060040154816005015410610f3d5760018160080160006101000a81548160ff0219169083151502179055505b3373ffffffffffffffffffffffffffffffffffffffff16827f296213327784aed1db3e4aef381db3aa91efdaf000bf7527e0de40be86a21f9f346001604051610f879291906138e9565b60405180910390a35050565b60086020528060005260406000206000915090505481565b60008060008060005b600254811015611087576004600082815260200190815260200160002060008773ffffffffffffffffffffffffffffffffffffffff1673ffffffffffffffffffffffffffffffffffffffff168152602001908152602001600020548361101a91906138b5565b92506005600082815260200190815260200160002060008773ffffffffffffffffffffffffffffffffffffffff1673ffffffffffffffffffffffffffffffffffffffff168152602001908152602001600020548261107891906138b5565b91508080600101915050610fb4565b508181935093505050915091565b60076020528160005260406000206020528060005260406000206000915091505080546110c190613459565b80601f01602080910402602001604051908101604052809291908181526020018280546110ed90613459565b801561113a5780601f1061110f5761010080835404028352916020019161113a565b820191906000526020600020905b81548152906001019060200180831161111d57829003601f168201915b505050505081565b60025481565b6004602052816000526040600020602052806000526040600020600091509150505481565b600c602052816000526040600020602052806000526040600020600091509150505481565b60006003600085815260200190815260200160002090508060000160009054906101000a900473ffffffffffffffffffffffffffffffffffffffff1673ffffffffffffffffffffffffffffffffffffffff163373ffffffffffffffffffffffffffffffffffffffff161461123b576040517f08c379a00000000000000000000000000000000000000000000000000000000081526004016112329061395e565b60405180910390fd5b8060080160009054906101000a900460ff161561128d576040517f08c379a0000000000000000000000000000000000000000000000000000000008152600401611284906139ca565b60405180910390fd5b60008311156112a0578281600401819055505b428211156112b2578181600701819055505b50505050565b60096020528060005260406000206000915090505481565b600080600080600080600080600360008a815260200190815260200160002090508060000160009054906101000a900473ffffffffffffffffffffffffffffffffffffffff168160040154826005015483600701548460080160009054906101000a900460ff1685600901548660060154975097509750975097509750975050919395979092949650565b6000600960008373ffffffffffffffffffffffffffffffffffffffff1673ffffffffffffffffffffffffffffffffffffffff168152602001908152602001600020549050919050565b6113ac6121bf565b6113b66000612246565b565b60006003600086815260200190815260200160002090506000600a600087815260200190815260200160002080549050905060006113f58261230a565b90508260000160009054906101000a900473ffffffffffffffffffffffffffffffffffffffff1673ffffffffffffffffffffffffffffffffffffffff163373ffffffffffffffffffffffffffffffffffffffff1614611489576040517f08c379a000000000000000000000000000000000000000000000000000000000815260040161148090613a5c565b60405180910390fd5b601e8614806114985750603286145b806114a35750604686145b806114ae5750606486145b6114ed576040517f08c379a00000000000000000000000000000000000000000000000000000000081526004016114e490613ac8565b60405180910390fd5b82600901548611611533576040517f08c379a000000000000000000000000000000000000000000000000000000000815260040161152a90613b5a565b60405180910390fd5b6000836009015411156115ef5760008211611583576040517f08c379a000000000000000000000000000000000000000000000000000000000815260040161157a90613bc6565b60405180910390fd5b80600b60008981526020019081526020016000206000856009015481526020019081526020016000205410156115ee576040517f08c379a00000000000000000000000000000000000000000000000000000000081526004016115e590613c7e565b60405180910390fd5b5b8583600901819055508484600660008a81526020019081526020016000206000898152602001908152602001600020918261162b929190613ca9565b50867f600f24eb98aa4205c376079c1cc9195e841a77574da91b88a61cfe6c612b56c187878760405161166093929190613da6565b60405180910390a250505050505050565b600a602052816000526040600020818154811061168d57600080fd5b906000526020600020016000915091509054906101000a900473ffffffffffffffffffffffffffffffffffffffff1681565b600d602052826000526040600020602052816000526040600020602052806000526040600020600092509250509054906101000a900460ff1681565b60008060009054906101000a900473ffffffffffffffffffffffffffffffffffffffff16905090565b6000806003600084815260200190815260200160002090506000600a600085815260200190815260200160002080549050905060006117628261230a565b9050600083600901540361177c57600193505050506117ae565b80600b600087815260200190815260200160002060008560090154815260200190815260200160002054101593505050505b919050565b8460006005600083815260200190815260200160002060003373ffffffffffffffffffffffffffffffffffffffff1673ffffffffffffffffffffffffffffffffffffffff168152602001908152602001600020541180611863575060006004600083815260200190815260200160002060003373ffffffffffffffffffffffffffffffffffffffff1673ffffffffffffffffffffffffffffffffffffffff16815260200190815260200160002054115b6118a2576040517f08c379a000000000000000000000000000000000000000000000000000000000815260040161189990613e24565b60405180910390fd5b6000600360008881526020019081526020016000209050858160090154146118ff576040517f08c379a00000000000000000000000000000000000000000000000000000000081526004016118f690613eb6565b60405180910390fd5b80600401548160050154101561194a576040517f08c379a000000000000000000000000000000000000000000000000000000000815260040161194190613f48565b60405180910390fd5b600d6000888152602001908152602001600020600087815260200190815260200160002060003373ffffffffffffffffffffffffffffffffffffffff1673ffffffffffffffffffffffffffffffffffffffff16815260200190815260200160002060009054906101000a900460ff16156119f9576040517f08c379a00000000000000000000000000000000000000000000000000000000081526004016119f090613fda565b60405180910390fd5b6001600d6000898152602001908152602001600020600088815260200190815260200160002060003373ffffffffffffffffffffffffffffffffffffffff1673ffffffffffffffffffffffffffffffffffffffff16815260200190815260200160002060006101000a81548160ff0219169083151502179055508484600760008a815260200190815260200160002060008981526020019081526020016000209182611aa6929190613ca9565b506000600a60008981526020019081526020016000208054905090506000611acd8261230a565b90508415611b5657600b60008a815260200190815260200160002060008981526020019081526020016000206000815480929190611b0a90613795565b919050555080600b60008b815260200190815260200160002060008a81526020019081526020016000205410611b4657611b4589898561232c565b5b611b518984336124df565b611bfd565b600c60008a815260200190815260200160002060008981526020019081526020016000206000815480929190611b8b90613795565b9190505550600282611b9d9190614029565b600c60008b815260200190815260200160002060008a8152602001908152602001600020541115611bfc57601e8814611be65760148360090154611be1919061405a565b611be9565b60005b8360090181905550611bfb89896128d8565b5b5b887fdd46c5a64a0784af89b335cf9d7f89d8cc0ce214d37fdcf54785cad605ba3f17888888876009015433604051611c3995949392919061408e565b60405180910390a2505050505050505050565b6006602052816000526040600020602052806000526040600020600091509150508054611c7890613459565b80601f0160208091040260200160405190810160405280929190818152602001828054611ca490613459565b8015611cf15780601f10611cc657610100808354040283529160200191611cf1565b820191906000526020600020905b815481529060010190602001808311611cd457829003601f168201915b505050505081565b600060036000848152602001908152602001600020905080600701544210611d56576040517f08c379a0000000000000000000000000000000000000000000000000000000008152600401611d4d90613829565b60405180910390fd5b60008211611d99576040517f08c379a0000000000000000000000000000000000000000000000000000000008152600401611d9090613895565b60405180910390fd5b600160009054906101000a900473ffffffffffffffffffffffffffffffffffffffff1673ffffffffffffffffffffffffffffffffffffffff166323b872dd3330856040518463ffffffff1660e01b8152600401611df8939291906140dc565b6020604051808303816000875af1158015611e17573d6000803e3d6000fd5b505050506040513d601f19601f82011682018060405250810190611e3b9190614128565b611e7a576040517f08c379a0000000000000000000000000000000000000000000000000000000008152600401611e71906141a1565b60405180910390fd5b81816005016000828254611e8e91906138b5565b92505081905550816004600085815260200190815260200160002060003373ffffffffffffffffffffffffffffffffffffffff1673ffffffffffffffffffffffffffffffffffffffff1681526020019081526020016000206000828254611ef591906138b5565b92505081905550816004600085815260200190815260200160002060003373ffffffffffffffffffffffffffffffffffffffff1673ffffffffffffffffffffffffffffffffffffffff1681526020019081526020016000205403611fc857600a6000848152602001908152602001600020339080600181540180825580915050600190039060005260206000200160009091909190916101000a81548173ffffffffffffffffffffffffffffffffffffffff021916908373ffffffffffffffffffffffffffffffffffffffff1602179055505b3373ffffffffffffffffffffffffffffffffffffffff16837f296213327784aed1db3e4aef381db3aa91efdaf000bf7527e0de40be86a21f9f8460006040516120129291906138e9565b60405180910390a3505050565b6000600160009054906101000a900473ffffffffffffffffffffffffffffffffffffffff1673ffffffffffffffffffffffffffffffffffffffff1663a9059cbb84846040518363ffffffff1660e01b815260040161207e9291906141c1565b6020604051808303816000875af115801561209d573d6000803e3d6000fd5b505050506040513d601f19601f820116820180604052508101906120c19190614128565b905092915050565b6005602052816000526040600020602052806000526040600020600091509150505481565b600b602052816000526040600020602052806000526040600020600091509150505481565b61211b6121bf565b600073ffffffffffffffffffffffffffffffffffffffff168173ffffffffffffffffffffffffffffffffffffffff160361218d5760006040517f1e4fbdf70000000000000000000000000000000000000000000000000000000081526004016121849190613135565b60405180910390fd5b61219681612246565b50565b600160009054906101000a900473ffffffffffffffffffffffffffffffffffffffff1681565b6121c7612930565b73ffffffffffffffffffffffffffffffffffffffff166121e56116fb565b73ffffffffffffffffffffffffffffffffffffffff161461224457612208612930565b6040517f118cdaa700000000000000000000000000000000000000000000000000000000815260040161223b9190613135565b60405180910390fd5b565b60008060009054906101000a900473ffffffffffffffffffffffffffffffffffffffff169050816000806101000a81548173ffffffffffffffffffffffffffffffffffffffff021916908373ffffffffffffffffffffffffffffffffffffffff1602179055508173ffffffffffffffffffffffffffffffffffffffff168173ffffffffffffffffffffffffffffffffffffffff167f8be0079c531659141344cd1fd0a4f28419497f9722a3daafe3b4186f6b6457e060405160405180910390a35050565b6000600260018361231b91906138b5565b6123259190614029565b9050919050565b6000606483836004015461234091906141ea565b61234a9190614029565b9050600082600601548261235e919061405a565b905060008111156124d8578083600601600082825461237d91906138b5565b9250508190555080600960008560000160009054906101000a900473ffffffffffffffffffffffffffffffffffffffff1673ffffffffffffffffffffffffffffffffffffffff1673ffffffffffffffffffffffffffffffffffffffff16815260200190815260200160002060008282546123f791906138b5565b9250508190555060008360000160009054906101000a900473ffffffffffffffffffffffffffffffffffffffff1673ffffffffffffffffffffffffffffffffffffffff166108fc839081150290604051600060405180830381858888f1935050505090508061249b576040517f08c379a000000000000000000000000000000000000000000000000000000000815260040161249290614278565b60405180910390fd5b857ff76e1f2eb07b2469e4d234c31a9e74911c283b015d12d264993fbb5544bb1b2e8360006040516124ce9291906138e9565b60405180910390a2505b5050505050565b6000670de0b6b3a764000090506000600a600086815260200190815260200160002080548060200260200160405190810160405280929190818152602001828054801561258157602002820191906000526020600020905b8160009054906101000a900473ffffffffffffffffffffffffffffffffffffffff1673ffffffffffffffffffffffffffffffffffffffff1681526020019060010190808311612537575b5050505050905060006005600087815260200190815260200160002060003373ffffffffffffffffffffffffffffffffffffffff1673ffffffffffffffffffffffffffffffffffffffff168152602001908152602001600020541161261b576040517f08c379a0000000000000000000000000000000000000000000000000000000008152600401612612906142e4565b60405180910390fd5b60006005600087815260200190815260200160002060003373ffffffffffffffffffffffffffffffffffffffff1673ffffffffffffffffffffffffffffffffffffffff16815260200190815260200160002054111561275457600160009054906101000a900473ffffffffffffffffffffffffffffffffffffffff1673ffffffffffffffffffffffffffffffffffffffff1663a9059cbb33846040518363ffffffff1660e01b81526004016126d19291906141c1565b6020604051808303816000875af11580156126f0573d6000803e3d6000fd5b505050506040513d601f19601f820116820180604052508101906127149190614128565b612753576040517f08c379a000000000000000000000000000000000000000000000000000000000815260040161274a90614350565b60405180910390fd5b5b600160009054906101000a900473ffffffffffffffffffffffffffffffffffffffff1673ffffffffffffffffffffffffffffffffffffffff1663a9059cbb8560000160009054906101000a900473ffffffffffffffffffffffffffffffffffffffff16846040518363ffffffff1660e01b81526004016127d5929190614391565b6020604051808303816000875af11580156127f4573d6000803e3d6000fd5b505050506040513d601f19601f820116820180604052508101906128189190614128565b612857576040517f08c379a000000000000000000000000000000000000000000000000000000000815260040161284e90614406565b60405180910390fd5b81600860008660000160009054906101000a900473ffffffffffffffffffffffffffffffffffffffff1673ffffffffffffffffffffffffffffffffffffffff1673ffffffffffffffffffffffffffffffffffffffff16815260200190815260200160002060008282546128ca91906138b5565b925050819055505050505050565b6000600b60008481526020019081526020016000206000838152602001908152602001600020819055506000600c60008481526020019081526020016000206000838152602001908152602001600020819055505050565b600033905090565b6000604051905090565b600080fd5b600080fd5b600080fd5b600080fd5b6000601f19601f8301169050919050565b7f4e487b7100000000000000000000000000000000000000000000000000000000600052604160045260246000fd5b61299f82612956565b810181811067ffffffffffffffff821117156129be576129bd612967565b5b80604052505050565b60006129d1612938565b90506129dd8282612996565b919050565b600067ffffffffffffffff8211156129fd576129fc612967565b5b612a0682612956565b9050602081019050919050565b82818337600083830152505050565b6000612a35612a30846129e2565b6129c7565b905082815260208101848484011115612a5157612a50612951565b5b612a5c848285612a13565b509392505050565b600082601f830112612a7957612a7861294c565b5b8135612a89848260208601612a22565b91505092915050565b6000819050919050565b612aa581612a92565b8114612ab057600080fd5b50565b600081359050612ac281612a9c565b92915050565b600080600080600060a08688031215612ae457612ae3612942565b5b600086013567ffffffffffffffff811115612b0257612b01612947565b5b612b0e88828901612a64565b955050602086013567ffffffffffffffff811115612b2f57612b2e612947565b5b612b3b88828901612a64565b945050604086013567ffffffffffffffff811115612b5c57612b5b612947565b5b612b6888828901612a64565b9350506060612b7988828901612ab3565b9250506080612b8a88828901612ab3565b9150509295509295909350565b600073ffffffffffffffffffffffffffffffffffffffff82169050919050565b6000612bc282612b97565b9050919050565b612bd281612bb7565b8114612bdd57600080fd5b50565b600081359050612bef81612bc9565b92915050565b600060208284031215612c0b57612c0a612942565b5b6000612c1984828501612be0565b91505092915050565b612c2b81612a92565b82525050565b6000602082019050612c466000830184612c22565b92915050565b600060208284031215612c6257612c61612942565b5b6000612c7084828501612ab3565b91505092915050565b6000612c8482612b97565b9050919050565b612c9481612c79565b82525050565b600081519050919050565b600082825260208201905092915050565b60005b83811015612cd4578082015181840152602081019050612cb9565b60008484015250505050565b6000612ceb82612c9a565b612cf58185612ca5565b9350612d05818560208601612cb6565b612d0e81612956565b840191505092915050565b60008115159050919050565b612d2e81612d19565b82525050565b600061014082019050612d4a600083018d612c8b565b8181036020830152612d5c818c612ce0565b90508181036040830152612d70818b612ce0565b90508181036060830152612d84818a612ce0565b9050612d936080830189612c22565b612da060a0830188612c22565b612dad60c0830187612c22565b612dba60e0830186612c22565b612dc8610100830185612d25565b612dd6610120830184612c22565b9b9a5050505050505050505050565b600081519050919050565b600082825260208201905092915050565b6000819050602082019050919050565b612e1a81612bb7565b82525050565b6000612e2c8383612e11565b60208301905092915050565b6000602082019050919050565b6000612e5082612de5565b612e5a8185612df0565b9350612e6583612e01565b8060005b83811015612e96578151612e7d8882612e20565b9750612e8883612e38565b925050600181019050612e69565b5085935050505092915050565b60006020820190508181036000830152612ebd8184612e45565b905092915050565b6000604082019050612eda6000830185612c22565b612ee76020830184612c22565b9392505050565b60008060408385031215612f0557612f04612942565b5b6000612f1385828601612ab3565b9250506020612f2485828601612ab3565b9150509250929050565b60006020820190508181036000830152612f488184612ce0565b905092915050565b60008060408385031215612f6757612f66612942565b5b6000612f7585828601612ab3565b9250506020612f8685828601612be0565b9150509250929050565b600080600060608486031215612fa957612fa8612942565b5b6000612fb786828701612ab3565b9350506020612fc886828701612ab3565b9250506040612fd986828701612ab3565b9150509250925092565b612fec81612bb7565b82525050565b600060e082019050613007600083018a612fe3565b6130146020830189612c22565b6130216040830188612c22565b61302e6060830187612c22565b61303b6080830186612d25565b61304860a0830185612c22565b61305560c0830184612c22565b98975050505050505050565b600080fd5b600080fd5b60008083601f8401126130815761308061294c565b5b8235905067ffffffffffffffff81111561309e5761309d613061565b5b6020830191508360018202830111156130ba576130b9613066565b5b9250929050565b600080600080606085870312156130db576130da612942565b5b60006130e987828801612ab3565b94505060206130fa87828801612ab3565b935050604085013567ffffffffffffffff81111561311b5761311a612947565b5b6131278782880161306b565b925092505092959194509250565b600060208201905061314a6000830184612fe3565b92915050565b60008060006060848603121561316957613168612942565b5b600061317786828701612ab3565b935050602061318886828701612ab3565b925050604061319986828701612be0565b9150509250925092565b60006020820190506131b86000830184612d25565b92915050565b6131c781612d19565b81146131d257600080fd5b50565b6000813590506131e4816131be565b92915050565b60008060008060006080868803121561320657613205612942565b5b600061321488828901612ab3565b955050602061322588828901612ab3565b945050604086013567ffffffffffffffff81111561324657613245612947565b5b6132528882890161306b565b93509350506060613265888289016131d5565b9150509295509295909350565b6000806040838503121561328957613288612942565b5b600061329785828601612be0565b92505060206132a885828601612ab3565b9150509250929050565b6000819050919050565b60006132d76132d26132cd84612b97565b6132b2565b612b97565b9050919050565b60006132e9826132bc565b9050919050565b60006132fb826132de565b9050919050565b61330b816132f0565b82525050565b60006020820190506133266000830184613302565b92915050565b7f476f616c20616d6f756e74206d7573742062652067726561746572207468616e60008201527f2030000000000000000000000000000000000000000000000000000000000000602082015250565b6000613388602283612ca5565b91506133938261332c565b604082019050919050565b600060208201905081810360008301526133b78161337b565b9050919050565b7f446561646c696e65206d75737420626520696e20746865206675747572650000600082015250565b60006133f4601e83612ca5565b91506133ff826133be565b602082019050919050565b60006020820190508181036000830152613423816133e7565b9050919050565b7f4e487b7100000000000000000000000000000000000000000000000000000000600052602260045260246000fd5b6000600282049050600182168061347157607f821691505b6020821081036134845761348361342a565b5b50919050565b60008190508160005260206000209050919050565b60006020601f8301049050919050565b600082821b905092915050565b6000600883026134ec7fffffffffffffffffffffffffffffffffffffffffffffffffffffffffffffffff826134af565b6134f686836134af565b95508019841693508086168417925050509392505050565b600061352961352461351f84612a92565b6132b2565b612a92565b9050919050565b6000819050919050565b6135438361350e565b61355761354f82613530565b8484546134bc565b825550505050565b600090565b61356c61355f565b61357781848461353a565b505050565b5b8181101561359b57613590600082613564565b60018101905061357d565b5050565b601f8211156135e0576135b18161348a565b6135ba8461349f565b810160208510156135c9578190505b6135dd6135d58561349f565b83018261357c565b50505b505050565b600082821c905092915050565b6000613603600019846008026135e5565b1980831691505092915050565b600061361c83836135f2565b9150826002028217905092915050565b61363582612c9a565b67ffffffffffffffff81111561364e5761364d612967565b5b6136588254613459565b61366382828561359f565b600060209050601f8311600181146136965760008415613684578287015190505b61368e8582613610565b8655506136f6565b601f1984166136a48661348a565b60005b828110156136cc578489015182556001820191506020850194506020810190506136a7565b868310156136e957848901516136e5601f8916826135f2565b8355505b6001600288020188555050505b505050505050565b600060a08201905081810360008301526137188188612ce0565b9050818103602083015261372c8187612ce0565b905081810360408301526137408186612ce0565b905061374f6060830185612c22565b61375c6080830184612c22565b9695505050505050565b7f4e487b7100000000000000000000000000000000000000000000000000000000600052601160045260246000fd5b60006137a082612a92565b91507fffffffffffffffffffffffffffffffffffffffffffffffffffffffffffffffff82036137d2576137d1613766565b5b600182019050919050565b7f50726f6a6563742066756e64696e6720706572696f64206973206f7665720000600082015250565b6000613813601e83612ca5565b915061381e826137dd565b602082019050919050565b6000602082019050818103600083015261384281613806565b9050919050565b7f416d6f756e74206d7573742062652067726561746572207468616e2030000000600082015250565b600061387f601d83612ca5565b915061388a82613849565b602082019050919050565b600060208201905081810360008301526138ae81613872565b9050919050565b60006138c082612a92565b91506138cb83612a92565b92508282019050808211156138e3576138e2613766565b5b92915050565b60006040820190506138fe6000830185612c22565b61390b6020830184612d25565b9392505050565b7f4f6e6c792070726f6a6563742063726561746f722063616e2075706461746500600082015250565b6000613948601f83612ca5565b915061395382613912565b602082019050919050565b600060208201905081810360008301526139778161393b565b9050919050565b7f50726f6a65637420697320616c726561647920636f6d706c6574656400000000600082015250565b60006139b4601c83612ca5565b91506139bf8261397e565b602082019050919050565b600060208201905081810360008301526139e3816139a7565b9050919050565b7f4f6e6c792070726f6a6563742063726561746f722063616e207570646174652060008201527f70726f6772657373000000000000000000000000000000000000000000000000602082015250565b6000613a46602883612ca5565b9150613a51826139ea565b604082019050919050565b60006020820190508181036000830152613a7581613a39565b9050919050565b7f496e76616c69642070726f67726573732076616c756500000000000000000000600082015250565b6000613ab2601683612ca5565b9150613abd82613a7c565b602082019050919050565b60006020820190508181036000830152613ae181613aa5565b9050919050565b7f50726f6772657373206d7573742062652067726561746572207468616e20637560008201527f7272656e742070726f6772657373000000000000000000000000000000000000602082015250565b6000613b44602e83612ca5565b9150613b4f82613ae8565b604082019050919050565b60006020820190508181036000830152613b7381613b37565b9050919050565b7f4e6f20696e766573746f727320746f20617070726f76652070726f6772657373600082015250565b6000613bb0602083612ca5565b9150613bbb82613b7a565b602082019050919050565b60006020820190508181036000830152613bdf81613ba3565b9050919050565b7f43757272656e742070726f677265737320686173206e6f74206265656e20617060008201527f70726f76656420627920746865206d616a6f72697479206f6620696e7665737460208201527f6f72730000000000000000000000000000000000000000000000000000000000604082015250565b6000613c68604383612ca5565b9150613c7382613be6565b606082019050919050565b60006020820190508181036000830152613c9781613c5b565b9050919050565b600082905092915050565b613cb38383613c9e565b67ffffffffffffffff811115613ccc57613ccb612967565b5b613cd68254613459565b613ce182828561359f565b6000601f831160018114613d105760008415613cfe578287013590505b613d088582613610565b865550613d70565b601f198416613d1e8661348a565b60005b82811015613d4657848901358255600182019150602085019450602081019050613d21565b86831015613d635784890135613d5f601f8916826135f2565b8355505b6001600288020188555050505b50505050505050565b6000613d858385612ca5565b9350613d92838584612a13565b613d9b83612956565b840190509392505050565b6000604082019050613dbb6000830186612c22565b8181036020830152613dce818486613d79565b9050949350505050565b7f43616c6c6572206973206e6f7420616e20696e766573746f7200000000000000600082015250565b6000613e0e601983612ca5565b9150613e1982613dd8565b602082019050919050565b60006020820190508181036000830152613e3d81613e01565b9050919050565b7f50726f677265737320646f6573206e6f74206d617463682063757272656e742060008201527f70726f6a6563742070726f677265737300000000000000000000000000000000602082015250565b6000613ea0603083612ca5565b9150613eab82613e44565b604082019050919050565b60006020820190508181036000830152613ecf81613e93565b9050919050565b7f50726f6a65637420686173206e6f74207265616368656420676f616c20616d6f60008201527f756e740000000000000000000000000000000000000000000000000000000000602082015250565b6000613f32602383612ca5565b9150613f3d82613ed6565b604082019050919050565b60006020820190508181036000830152613f6181613f25565b9050919050565b7f496e766573746f722068617320616c726561647920726576696577656420746860008201527f69732070726f6772657373000000000000000000000000000000000000000000602082015250565b6000613fc4602b83612ca5565b9150613fcf82613f68565b604082019050919050565b60006020820190508181036000830152613ff381613fb7565b9050919050565b7f4e487b7100000000000000000000000000000000000000000000000000000000600052601260045260246000fd5b600061403482612a92565b915061403f83612a92565b92508261404f5761404e613ffa565b5b828204905092915050565b600061406582612a92565b915061407083612a92565b925082820390508181111561408857614087613766565b5b92915050565b600060808201905081810360008301526140a9818789613d79565b90506140b86020830186612d25565b6140c56040830185612c22565b6140d26060830184612fe3565b9695505050505050565b60006060820190506140f16000830186612fe3565b6140fe6020830185612fe3565b61410b6040830184612c22565b949350505050565b600081519050614122816131be565b92915050565b60006020828403121561413e5761413d612942565b5b600061414c84828501614113565b91505092915050565b7f546f6b656e207472616e73666572206661696c65640000000000000000000000600082015250565b600061418b601583612ca5565b915061419682614155565b602082019050919050565b600060208201905081810360008301526141ba8161417e565b9050919050565b60006040820190506141d66000830185612fe3565b6141e36020830184612c22565b9392505050565b60006141f582612a92565b915061420083612a92565b925082820261420e81612a92565b9150828204841483151761422557614224613766565b5b5092915050565b7f455448207472616e73666572206661696c656400000000000000000000000000600082015250565b6000614262601383612ca5565b915061426d8261422c565b602082019050919050565b6000602082019050818103600083015261429181614255565b9050919050565b7f6e6f20616d6f756e740000000000000000000000000000000000000000000000600082015250565b60006142ce600983612ca5565b91506142d982614298565b602082019050919050565b600060208201905081810360008301526142fd816142c1565b9050919050565b7f496e766573746f7220726577617264207472616e73666572206661696c656400600082015250565b600061433a601f83612ca5565b915061434582614304565b602082019050919050565b600060208201905081810360008301526143698161432d565b9050919050565b600061437b826132de565b9050919050565b61438b81614370565b82525050565b60006040820190506143a66000830185614382565b6143b36020830184612c22565b9392505050565b7f43726561746f7220726577617264207472616e73666572206661696c65640000600082015250565b60006143f0601e83612ca5565b91506143fb826143ba565b602082019050919050565b6000602082019050818103600083015261441f816143e3565b905091905056fea2646970667358221220f909bdaacb384dbb2646d4f4ea703d8fd804bfcaa45ddd259d9983deda4fe70d64736f6c63430008180033",
  "devdoc": {
    "errors": {
      "OwnableInvalidOwner(address)": [
        {
          "details": "The owner is not a valid owner account. (eg. `address(0)`)"
        }
      ],
      "OwnableUnauthorizedAccount(address)": [
        {
          "details": "The caller account is not authorized to perform an operation."
        }
      ]
    },
    "kind": "dev",
    "methods": {
      "owner()": {
        "details": "Returns the address of the current owner."
      },
      "renounceOwnership()": {
        "details": "Leaves the contract without owner. It will not be possible to call `onlyOwner` functions. Can only be called by the current owner. NOTE: Renouncing ownership will leave the contract without an owner, thereby disabling any functionality that is only available to the owner."
      },
      "transferOwnership(address)": {
        "details": "Transfers ownership of the contract to a new account (`newOwner`). Can only be called by the current owner."
      }
    },
    "version": 1
  },
  "userdoc": {
    "kind": "user",
    "methods": {},
    "version": 1
  },
  "storageLayout": {
    "storage": [
      {
        "astId": 8,
        "contract": "contracts/SmartFrogFund.sol:FrogFund",
        "label": "_owner",
        "offset": 0,
        "slot": "0",
        "type": "t_address"
      },
      {
        "astId": 285,
        "contract": "contracts/SmartFrogFund.sol:FrogFund",
        "label": "token",
        "offset": 0,
        "slot": "1",
        "type": "t_contract(IERC20)225"
      },
      {
        "astId": 288,
        "contract": "contracts/SmartFrogFund.sol:FrogFund",
        "label": "projectCount",
        "offset": 0,
        "slot": "2",
        "type": "t_uint256"
      },
      {
        "astId": 293,
        "contract": "contracts/SmartFrogFund.sol:FrogFund",
        "label": "projects",
        "offset": 0,
        "slot": "3",
        "type": "t_mapping(t_uint256,t_struct(Project)282_storage)"
      },
      {
        "astId": 299,
        "contract": "contracts/SmartFrogFund.sol:FrogFund",
        "label": "contributions",
        "offset": 0,
        "slot": "4",
        "type": "t_mapping(t_uint256,t_mapping(t_address,t_uint256))"
      },
      {
        "astId": 305,
        "contract": "contracts/SmartFrogFund.sol:FrogFund",
        "label": "ethContributions",
        "offset": 0,
        "slot": "5",
        "type": "t_mapping(t_uint256,t_mapping(t_address,t_uint256))"
      },
      {
        "astId": 311,
        "contract": "contracts/SmartFrogFund.sol:FrogFund",
        "label": "progressDetails",
        "offset": 0,
        "slot": "6",
        "type": "t_mapping(t_uint256,t_mapping(t_uint256,t_string_storage))"
      },
      {
        "astId": 317,
        "contract": "contracts/SmartFrogFund.sol:FrogFund",
        "label": "approvalComments",
        "offset": 0,
        "slot": "7",
        "type": "t_mapping(t_uint256,t_mapping(t_uint256,t_string_storage))"
      },
      {
        "astId": 321,
        "contract": "contracts/SmartFrogFund.sol:FrogFund",
        "label": "creatorBalances",
        "offset": 0,
        "slot": "8",
        "type": "t_mapping(t_address,t_uint256)"
      },
      {
        "astId": 325,
        "contract": "contracts/SmartFrogFund.sol:FrogFund",
        "label": "creatorEthBalances",
        "offset": 0,
        "slot": "9",
        "type": "t_mapping(t_address,t_uint256)"
      },
      {
        "astId": 330,
        "contract": "contracts/SmartFrogFund.sol:FrogFund",
        "label": "projectInvestors",
        "offset": 0,
        "slot": "10",
        "type": "t_mapping(t_uint256,t_array(t_address)dyn_storage)"
      },
      {
        "astId": 336,
        "contract": "contracts/SmartFrogFund.sol:FrogFund",
        "label": "progressApprovals",
        "offset": 0,
        "slot": "11",
        "type": "t_mapping(t_uint256,t_mapping(t_uint256,t_uint256))"
      },
      {
        "astId": 342,
        "contract": "contracts/SmartFrogFund.sol:FrogFund",
        "label": "progressDisapprovals",
        "offset": 0,
        "slot": "12",
        "type": "t_mapping(t_uint256,t_mapping(t_uint256,t_uint256))"
      },
      {
        "astId": 811,
        "contract": "contracts/SmartFrogFund.sol:FrogFund",
        "label": "hasReviewed",
        "offset": 0,
        "slot": "13",
        "type": "t_mapping(t_uint256,t_mapping(t_uint256,t_mapping(t_address,t_bool)))"
      }
    ],
    "types": {
      "t_address": {
        "encoding": "inplace",
        "label": "address",
        "numberOfBytes": "20"
      },
      "t_address_payable": {
        "encoding": "inplace",
        "label": "address payable",
        "numberOfBytes": "20"
      },
      "t_array(t_address)dyn_storage": {
        "base": "t_address",
        "encoding": "dynamic_array",
        "label": "address[]",
        "numberOfBytes": "32"
      },
      "t_bool": {
        "encoding": "inplace",
        "label": "bool",
        "numberOfBytes": "1"
      },
      "t_contract(IERC20)225": {
        "encoding": "inplace",
        "label": "contract IERC20",
        "numberOfBytes": "20"
      },
      "t_mapping(t_address,t_bool)": {
        "encoding": "mapping",
        "key": "t_address",
        "label": "mapping(address => bool)",
        "numberOfBytes": "32",
        "value": "t_bool"
      },
      "t_mapping(t_address,t_uint256)": {
        "encoding": "mapping",
        "key": "t_address",
        "label": "mapping(address => uint256)",
        "numberOfBytes": "32",
        "value": "t_uint256"
      },
      "t_mapping(t_uint256,t_array(t_address)dyn_storage)": {
        "encoding": "mapping",
        "key": "t_uint256",
        "label": "mapping(uint256 => address[])",
        "numberOfBytes": "32",
        "value": "t_array(t_address)dyn_storage"
      },
      "t_mapping(t_uint256,t_mapping(t_address,t_bool))": {
        "encoding": "mapping",
        "key": "t_uint256",
        "label": "mapping(uint256 => mapping(address => bool))",
        "numberOfBytes": "32",
        "value": "t_mapping(t_address,t_bool)"
      },
      "t_mapping(t_uint256,t_mapping(t_address,t_uint256))": {
        "encoding": "mapping",
        "key": "t_uint256",
        "label": "mapping(uint256 => mapping(address => uint256))",
        "numberOfBytes": "32",
        "value": "t_mapping(t_address,t_uint256)"
      },
      "t_mapping(t_uint256,t_mapping(t_uint256,t_mapping(t_address,t_bool)))": {
        "encoding": "mapping",
        "key": "t_uint256",
        "label": "mapping(uint256 => mapping(uint256 => mapping(address => bool)))",
        "numberOfBytes": "32",
        "value": "t_mapping(t_uint256,t_mapping(t_address,t_bool))"
      },
      "t_mapping(t_uint256,t_mapping(t_uint256,t_string_storage))": {
        "encoding": "mapping",
        "key": "t_uint256",
        "label": "mapping(uint256 => mapping(uint256 => string))",
        "numberOfBytes": "32",
        "value": "t_mapping(t_uint256,t_string_storage)"
      },
      "t_mapping(t_uint256,t_mapping(t_uint256,t_uint256))": {
        "encoding": "mapping",
        "key": "t_uint256",
        "label": "mapping(uint256 => mapping(uint256 => uint256))",
        "numberOfBytes": "32",
        "value": "t_mapping(t_uint256,t_uint256)"
      },
      "t_mapping(t_uint256,t_string_storage)": {
        "encoding": "mapping",
        "key": "t_uint256",
        "label": "mapping(uint256 => string)",
        "numberOfBytes": "32",
        "value": "t_string_storage"
      },
      "t_mapping(t_uint256,t_struct(Project)282_storage)": {
        "encoding": "mapping",
        "key": "t_uint256",
        "label": "mapping(uint256 => struct FrogFund.Project)",
        "numberOfBytes": "32",
        "value": "t_struct(Project)282_storage"
      },
      "t_mapping(t_uint256,t_uint256)": {
        "encoding": "mapping",
        "key": "t_uint256",
        "label": "mapping(uint256 => uint256)",
        "numberOfBytes": "32",
        "value": "t_uint256"
      },
      "t_string_storage": {
        "encoding": "bytes",
        "label": "string",
        "numberOfBytes": "32"
      },
      "t_struct(Project)282_storage": {
        "encoding": "inplace",
        "label": "struct FrogFund.Project",
        "members": [
          {
            "astId": 263,
            "contract": "contracts/SmartFrogFund.sol:FrogFund",
            "label": "creator",
            "offset": 0,
            "slot": "0",
            "type": "t_address_payable"
          },
          {
            "astId": 265,
            "contract": "contracts/SmartFrogFund.sol:FrogFund",
            "label": "title",
            "offset": 0,
            "slot": "1",
            "type": "t_string_storage"
          },
          {
            "astId": 267,
            "contract": "contracts/SmartFrogFund.sol:FrogFund",
            "label": "description",
            "offset": 0,
            "slot": "2",
            "type": "t_string_storage"
          },
          {
            "astId": 269,
            "contract": "contracts/SmartFrogFund.sol:FrogFund",
            "label": "link",
            "offset": 0,
            "slot": "3",
            "type": "t_string_storage"
          },
          {
            "astId": 271,
            "contract": "contracts/SmartFrogFund.sol:FrogFund",
            "label": "goalAmount",
            "offset": 0,
            "slot": "4",
            "type": "t_uint256"
          },
          {
            "astId": 273,
            "contract": "contracts/SmartFrogFund.sol:FrogFund",
            "label": "currentAmount",
            "offset": 0,
            "slot": "5",
            "type": "t_uint256"
          },
          {
            "astId": 275,
            "contract": "contracts/SmartFrogFund.sol:FrogFund",
            "label": "amountDistributed",
            "offset": 0,
            "slot": "6",
            "type": "t_uint256"
          },
          {
            "astId": 277,
            "contract": "contracts/SmartFrogFund.sol:FrogFund",
            "label": "deadline",
            "offset": 0,
            "slot": "7",
            "type": "t_uint256"
          },
          {
            "astId": 279,
            "contract": "contracts/SmartFrogFund.sol:FrogFund",
            "label": "completed",
            "offset": 0,
            "slot": "8",
            "type": "t_bool"
          },
          {
            "astId": 281,
            "contract": "contracts/SmartFrogFund.sol:FrogFund",
            "label": "currentProgress",
            "offset": 0,
            "slot": "9",
            "type": "t_uint256"
          }
        ],
        "numberOfBytes": "320"
      },
      "t_uint256": {
        "encoding": "inplace",
        "label": "uint256",
        "numberOfBytes": "32"
      }
    }
  }
}