{
  "address": "0xdf0234981D3bB5140D173aFBeBB92C1a5524E4db",
  "abi": [
    {
      "inputs": [
        {
          "internalType": "address",
          "name": "_tokenAddress",
          "type": "address"
        }
      ],
      "stateMutability": "nonpayable",
      "type": "constructor"
    },
    {
      "inputs": [
        {
          "internalType": "address",
          "name": "owner",
          "type": "address"
        }
      ],
      "name": "OwnableInvalidOwner",
      "type": "error"
    },
    {
      "inputs": [
        {
          "internalType": "address",
          "name": "account",
          "type": "address"
        }
      ],
      "name": "OwnableUnauthorizedAccount",
      "type": "error"
    },
    {
      "anonymous": false,
      "inputs": [
        {
          "indexed": true,
          "internalType": "uint256",
          "name": "projectId",
          "type": "uint256"
        },
        {
          "indexed": false,
          "internalType": "uint256",
          "name": "amount",
          "type": "uint256"
        },
        {
          "indexed": false,
          "internalType": "bool",
          "name": "isEth",
          "type": "bool"
        }
      ],
      "name": "FundsDistributed",
      "type": "event"
    },
    {
      "anonymous": false,
      "inputs": [
        {
          "indexed": true,
          "internalType": "address",
          "name": "previousOwner",
          "type": "address"
        },
        {
          "indexed": true,
          "internalType": "address",
          "name": "newOwner",
          "type": "address"
        }
      ],
      "name": "OwnershipTransferred",
      "type": "event"
    },
    {
      "anonymous": false,
      "inputs": [
        {
          "indexed": true,
          "internalType": "uint256",
          "name": "projectId",
          "type": "uint256"
        },
        {
          "indexed": false,
          "internalType": "string",
          "name": "comment",
          "type": "string"
        },
        {
          "indexed": false,
          "internalType": "bool",
          "name": "approved",
          "type": "bool"
        },
        {
          "indexed": false,
          "internalType": "uint256",
          "name": "currentProgress",
          "type": "uint256"
        }
      ],
      "name": "ProgressReviewed",
      "type": "event"
    },
    {
      "anonymous": false,
      "inputs": [
        {
          "indexed": true,
          "internalType": "uint256",
          "name": "projectId",
          "type": "uint256"
        },
        {
          "indexed": false,
          "internalType": "uint256",
          "name": "progress",
          "type": "uint256"
        },
        {
          "indexed": false,
          "internalType": "string",
          "name": "details",
          "type": "string"
        }
      ],
      "name": "ProgressUpdated",
      "type": "event"
    },
    {
      "anonymous": false,
      "inputs": [
        {
          "indexed": true,
          "internalType": "uint256",
          "name": "projectId",
          "type": "uint256"
        },
        {
          "indexed": true,
          "internalType": "address",
          "name": "creator",
          "type": "address"
        },
        {
          "indexed": false,
          "internalType": "string",
          "name": "_description",
          "type": "string"
        },
        {
          "indexed": false,
          "internalType": "string",
          "name": "_link",
          "type": "string"
        },
        {
          "indexed": false,
          "internalType": "string",
          "name": "_title",
          "type": "string"
        },
        {
          "indexed": false,
          "internalType": "uint256",
          "name": "goalAmount",
          "type": "uint256"
        },
        {
          "indexed": false,
          "internalType": "uint256",
          "name": "deadline",
          "type": "uint256"
        }
      ],
      "name": "ProjectCreated",
      "type": "event"
    },
    {
      "anonymous": false,
      "inputs": [
        {
          "indexed": true,
          "internalType": "uint256",
          "name": "projectId",
          "type": "uint256"
        },
        {
          "indexed": true,
          "internalType": "address",
          "name": "supporter",
          "type": "address"
        },
        {
          "indexed": false,
          "internalType": "uint256",
          "name": "amount",
          "type": "uint256"
        },
        {
          "indexed": false,
          "internalType": "bool",
          "name": "isEth",
          "type": "bool"
        }
      ],
      "name": "ProjectFunded",
      "type": "event"
    },
    {
      "anonymous": false,
      "inputs": [
        {
          "indexed": true,
          "internalType": "uint256",
          "name": "projectId",
          "type": "uint256"
        },
        {
          "indexed": true,
          "internalType": "address",
          "name": "supporter",
          "type": "address"
        },
        {
          "indexed": false,
          "internalType": "uint256",
          "name": "amount",
          "type": "uint256"
        },
        {
          "indexed": false,
          "internalType": "bool",
          "name": "isEth",
          "type": "bool"
        }
      ],
      "name": "RefundIssued",
      "type": "event"
    },
    {
      "inputs": [
        {
          "internalType": "uint256",
          "name": "",
          "type": "uint256"
        },
        {
          "internalType": "uint256",
          "name": "",
          "type": "uint256"
        }
      ],
      "name": "approvalComments",
      "outputs": [
        {
          "internalType": "string",
          "name": "",
          "type": "string"
        }
      ],
      "stateMutability": "view",
      "type": "function"
    },
    {
      "inputs": [
        {
          "internalType": "uint256",
          "name": "_projectId",
          "type": "uint256"
        }
      ],
      "name": "canSubmitNextProgress",
      "outputs": [
        {
          "internalType": "bool",
          "name": "",
          "type": "bool"
        }
      ],
      "stateMutability": "view",
      "type": "function"
    },
    {
      "inputs": [
        {
          "internalType": "uint256",
          "name": "",
          "type": "uint256"
        },
        {
          "internalType": "address",
          "name": "",
          "type": "address"
        }
      ],
      "name": "contributions",
      "outputs": [
        {
          "internalType": "uint256",
          "name": "",
          "type": "uint256"
        }
      ],
      "stateMutability": "view",
      "type": "function"
    },
    {
      "inputs": [
        {
          "internalType": "string",
          "name": "_title",
          "type": "string"
        },
        {
          "internalType": "string",
          "name": "_description",
          "type": "string"
        },
        {
          "internalType": "string",
          "name": "_link",
          "type": "string"
        },
        {
          "internalType": "uint256",
          "name": "_goalAmount",
          "type": "uint256"
        },
        {
          "internalType": "uint256",
          "name": "_deadline",
          "type": "uint256"
        }
      ],
      "name": "createProject",
      "outputs": [],
      "stateMutability": "nonpayable",
      "type": "function"
    },
    {
      "inputs": [
        {
          "internalType": "address",
          "name": "",
          "type": "address"
        }
      ],
      "name": "creatorBalances",
      "outputs": [
        {
          "internalType": "uint256",
          "name": "",
          "type": "uint256"
        }
      ],
      "stateMutability": "view",
      "type": "function"
    },
    {
      "inputs": [
        {
          "internalType": "address",
          "name": "",
          "type": "address"
        }
      ],
      "name": "creatorEthBalances",
      "outputs": [
        {
          "internalType": "uint256",
          "name": "",
          "type": "uint256"
        }
      ],
      "stateMutability": "view",
      "type": "function"
    },
    {
      "inputs": [
        {
          "internalType": "uint256",
          "name": "",
          "type": "uint256"
        },
        {
          "internalType": "address",
          "name": "",
          "type": "address"
        }
      ],
      "name": "ethContributions",
      "outputs": [
        {
          "internalType": "uint256",
          "name": "",
          "type": "uint256"
        }
      ],
      "stateMutability": "view",
      "type": "function"
    },
    {
      "inputs": [
        {
          "internalType": "address",
          "name": "_creator",
          "type": "address"
        }
      ],
      "name": "getCreatorBalance",
      "outputs": [
        {
          "internalType": "uint256",
          "name": "",
          "type": "uint256"
        }
      ],
      "stateMutability": "view",
      "type": "function"
    },
    {
      "inputs": [
        {
          "internalType": "address",
          "name": "_creator",
          "type": "address"
        }
      ],
      "name": "getCreatorEthBalance",
      "outputs": [
        {
          "internalType": "uint256",
          "name": "",
          "type": "uint256"
        }
      ],
      "stateMutability": "view",
      "type": "function"
    },
    {
      "inputs": [
        {
          "internalType": "uint256",
          "name": "projectId",
          "type": "uint256"
        }
      ],
      "name": "getInvestors",
      "outputs": [
        {
          "internalType": "address[]",
          "name": "",
          "type": "address[]"
        }
      ],
      "stateMutability": "view",
      "type": "function"
    },
    {
      "inputs": [
        {
          "internalType": "address",
          "name": "_user",
          "type": "address"
        }
      ],
      "name": "getPlatformBalance",
      "outputs": [
        {
          "internalType": "uint256",
          "name": "",
          "type": "uint256"
        },
        {
          "internalType": "uint256",
          "name": "",
          "type": "uint256"
        }
      ],
      "stateMutability": "view",
      "type": "function"
    },
    {
      "inputs": [
        {
          "internalType": "uint256",
          "name": "_projectId",
          "type": "uint256"
        }
      ],
      "name": "getProjectDetails",
      "outputs": [
        {
          "internalType": "address",
          "name": "",
          "type": "address"
        },
        {
          "internalType": "uint256",
          "name": "",
          "type": "uint256"
        },
        {
          "internalType": "uint256",
          "name": "",
          "type": "uint256"
        },
        {
          "internalType": "uint256",
          "name": "",
          "type": "uint256"
        },
        {
          "internalType": "bool",
          "name": "",
          "type": "bool"
        },
        {
          "internalType": "uint256",
          "name": "",
          "type": "uint256"
        },
        {
          "internalType": "uint256",
          "name": "",
          "type": "uint256"
        }
      ],
      "stateMutability": "view",
      "type": "function"
    },
    {
      "inputs": [],
      "name": "owner",
      "outputs": [
        {
          "internalType": "address",
          "name": "",
          "type": "address"
        }
      ],
      "stateMutability": "view",
      "type": "function"
    },
    {
      "inputs": [
        {
          "internalType": "uint256",
          "name": "",
          "type": "uint256"
        },
        {
          "internalType": "uint256",
          "name": "",
          "type": "uint256"
        }
      ],
      "name": "progressApprovals",
      "outputs": [
        {
          "internalType": "uint256",
          "name": "",
          "type": "uint256"
        }
      ],
      "stateMutability": "view",
      "type": "function"
    },
    {
      "inputs": [
        {
          "internalType": "uint256",
          "name": "",
          "type": "uint256"
        },
        {
          "internalType": "uint256",
          "name": "",
          "type": "uint256"
        }
      ],
      "name": "progressDetails",
      "outputs": [
        {
          "internalType": "string",
          "name": "",
          "type": "string"
        }
      ],
      "stateMutability": "view",
      "type": "function"
    },
    {
      "inputs": [
        {
          "internalType": "uint256",
          "name": "",
          "type": "uint256"
        },
        {
          "internalType": "uint256",
          "name": "",
          "type": "uint256"
        }
      ],
      "name": "progressDisapprovals",
      "outputs": [
        {
          "internalType": "uint256",
          "name": "",
          "type": "uint256"
        }
      ],
      "stateMutability": "view",
      "type": "function"
    },
    {
      "inputs": [],
      "name": "projectCount",
      "outputs": [
        {
          "internalType": "uint256",
          "name": "",
          "type": "uint256"
        }
      ],
      "stateMutability": "view",
      "type": "function"
    },
    {
      "inputs": [
        {
          "internalType": "uint256",
          "name": "",
          "type": "uint256"
        },
        {
          "internalType": "uint256",
          "name": "",
          "type": "uint256"
        }
      ],
      "name": "projectInvestors",
      "outputs": [
        {
          "internalType": "address",
          "name": "",
          "type": "address"
        }
      ],
      "stateMutability": "view",
      "type": "function"
    },
    {
      "inputs": [
        {
          "internalType": "uint256",
          "name": "",
          "type": "uint256"
        }
      ],
      "name": "projects",
      "outputs": [
        {
          "internalType": "address payable",
          "name": "creator",
          "type": "address"
        },
        {
          "internalType": "string",
          "name": "title",
          "type": "string"
        },
        {
          "internalType": "string",
          "name": "description",
          "type": "string"
        },
        {
          "internalType": "string",
          "name": "link",
          "type": "string"
        },
        {
          "internalType": "uint256",
          "name": "goalAmount",
          "type": "uint256"
        },
        {
          "internalType": "uint256",
          "name": "currentAmount",
          "type": "uint256"
        },
        {
          "internalType": "uint256",
          "name": "amountDistributed",
          "type": "uint256"
        },
        {
          "internalType": "uint256",
          "name": "deadline",
          "type": "uint256"
        },
        {
          "internalType": "bool",
          "name": "completed",
          "type": "bool"
        },
        {
          "internalType": "uint256",
          "name": "currentProgress",
          "type": "uint256"
        }
      ],
      "stateMutability": "view",
      "type": "function"
    },
    {
      "inputs": [],
      "name": "renounceOwnership",
      "outputs": [],
      "stateMutability": "nonpayable",
      "type": "function"
    },
    {
      "inputs": [
        {
          "internalType": "uint256",
          "name": "_projectId",
          "type": "uint256"
        },
        {
          "internalType": "uint256",
          "name": "_progress",
          "type": "uint256"
        },
        {
          "internalType": "string",
          "name": "_comment",
          "type": "string"
        },
        {
          "internalType": "bool",
          "name": "_approved",
          "type": "bool"
        }
      ],
      "name": "reviewProgress",
      "outputs": [],
      "stateMutability": "nonpayable",
      "type": "function"
    },
    {
      "inputs": [
        {
          "internalType": "uint256",
          "name": "_projectId",
          "type": "uint256"
        }
      ],
      "name": "supportProjectWithEth",
      "outputs": [],
      "stateMutability": "payable",
      "type": "function"
    },
    {
      "inputs": [
        {
          "internalType": "uint256",
          "name": "_projectId",
          "type": "uint256"
        },
        {
          "internalType": "uint256",
          "name": "_amount",
          "type": "uint256"
        }
      ],
      "name": "supportProjectWithToken",
      "outputs": [],
      "stateMutability": "nonpayable",
      "type": "function"
    },
    {
      "inputs": [],
      "name": "token",
      "outputs": [
        {
          "internalType": "contract IERC20",
          "name": "",
          "type": "address"
        }
      ],
      "stateMutability": "view",
      "type": "function"
    },
    {
      "inputs": [
        {
          "internalType": "address",
          "name": "newOwner",
          "type": "address"
        }
      ],
      "name": "transferOwnership",
      "outputs": [],
      "stateMutability": "nonpayable",
      "type": "function"
    },
    {
      "inputs": [
        {
          "internalType": "address",
          "name": "to",
          "type": "address"
        },
        {
          "internalType": "uint256",
          "name": "value",
          "type": "uint256"
        }
      ],
      "name": "transferTokens",
      "outputs": [
        {
          "internalType": "bool",
          "name": "",
          "type": "bool"
        }
      ],
      "stateMutability": "nonpayable",
      "type": "function"
    },
    {
      "inputs": [
        {
          "internalType": "uint256",
          "name": "_projectId",
          "type": "uint256"
        },
        {
          "internalType": "uint256",
          "name": "_progress",
          "type": "uint256"
        },
        {
          "internalType": "string",
          "name": "_details",
          "type": "string"
        }
      ],
      "name": "updateProgress",
      "outputs": [],
      "stateMutability": "nonpayable",
      "type": "function"
    },
    {
      "inputs": [
        {
          "internalType": "uint256",
          "name": "_projectId",
          "type": "uint256"
        },
        {
          "internalType": "uint256",
          "name": "_newGoalAmount",
          "type": "uint256"
        },
        {
          "internalType": "uint256",
          "name": "_newDeadline",
          "type": "uint256"
        }
      ],
      "name": "updateProject",
      "outputs": [],
      "stateMutability": "nonpayable",
      "type": "function"
    }
  ],
  "transactionHash": "0x3ae2dbf14956cc20645df7dcf1b6f8522a52d37253a53d78f0078454a0757fe0",
  "args": [
    "0xCe0c9040A10275BDc6856e5C2077AC4F9338f826"
  ],
  "numDeployments": 5,
  "solcInputHash": "b96fd058908e843c41506c63ceb7ae9f",
  "bytecode": "0x608060405260006002553480156200001657600080fd5b506040516200460b3803806200460b83398181016040528101906200003c9190620003b7565b33600073ffffffffffffffffffffffffffffffffffffffff168173ffffffffffffffffffffffffffffffffffffffff1603620000b25760006040517f1e4fbdf7000000000000000000000000000000000000000000000000000000008152600401620000a99190620003fa565b60405180910390fd5b620000c3816200011d60201b60201c565b5080600160006101000a81548173ffffffffffffffffffffffffffffffffffffffff021916908373ffffffffffffffffffffffffffffffffffffffff1602179055506200011633620001e160201b60201c565b5062000417565b60008060009054906101000a900473ffffffffffffffffffffffffffffffffffffffff169050816000806101000a81548173ffffffffffffffffffffffffffffffffffffffff021916908373ffffffffffffffffffffffffffffffffffffffff1602179055508173ffffffffffffffffffffffffffffffffffffffff168173ffffffffffffffffffffffffffffffffffffffff167f8be0079c531659141344cd1fd0a4f28419497f9722a3daafe3b4186f6b6457e060405160405180910390a35050565b620001f16200027a60201b60201c565b600073ffffffffffffffffffffffffffffffffffffffff168173ffffffffffffffffffffffffffffffffffffffff1603620002665760006040517f1e4fbdf70000000000000000000000000000000000000000000000000000000081526004016200025d9190620003fa565b60405180910390fd5b62000277816200011d60201b60201c565b50565b6200028a6200031c60201b60201c565b73ffffffffffffffffffffffffffffffffffffffff16620002b06200032460201b60201c565b73ffffffffffffffffffffffffffffffffffffffff16146200031a57620002dc6200031c60201b60201c565b6040517f118cdaa7000000000000000000000000000000000000000000000000000000008152600401620003119190620003fa565b60405180910390fd5b565b600033905090565b60008060009054906101000a900473ffffffffffffffffffffffffffffffffffffffff16905090565b600080fd5b600073ffffffffffffffffffffffffffffffffffffffff82169050919050565b60006200037f8262000352565b9050919050565b620003918162000372565b81146200039d57600080fd5b50565b600081519050620003b18162000386565b92915050565b600060208284031215620003d057620003cf6200034d565b5b6000620003e084828501620003a0565b91505092915050565b620003f48162000372565b82525050565b6000602082019050620004116000830184620003e9565b92915050565b6141e480620004276000396000f3fe6080604052600436106101b75760003560e01c80636a78c833116100ec578063b9b1060b1161008a578063d5f2cf0511610064578063d5f2cf05146106b5578063dd5862e5146106f2578063f2fde38b1461072f578063fc0c546a14610758576101b7565b8063b9b1060b14610612578063bbbf146a1461064f578063bec3fa1714610678576101b7565b80638b44da95116100c65780638b44da95146105445780638da5cb5b14610581578063aff5eaee146105ac578063b93a5339146105e9576101b7565b80636a78c833146104c7578063715018a6146105045780637a25f1001461051b576101b7565b8063350d171711610159578063523db93911610133578063523db939146103e15780635955eb151461041e5780635b325968146104475780635f8439e314610484576101b7565b8063350d17171461033c57806336fbad26146103795780633d891f59146103a4576101b7565b80631139de55116101955780631139de55146102685780631b5d5f81146102a55780632a782802146102c15780633170ee1d146102fe576101b7565b8063056c29ee146101bc57806309cf7ffc146101e5578063107046bd14610222575b600080fd5b3480156101c857600080fd5b506101e360048036038101906101de9190612943565b610783565b005b3480156101f157600080fd5b5061020c60048036038101906102079190612a70565b6109d7565b6040516102199190612aac565b60405180910390f35b34801561022e57600080fd5b5061024960048036038101906102449190612ac7565b610a20565b60405161025f9a99989796959493929190612baf565b60405180910390f35b34801561027457600080fd5b5061028f600480360381019061028a9190612ac7565b610c39565b60405161029c9190612d1e565b60405180910390f35b6102bf60048036038101906102ba9190612ac7565b610cda565b005b3480156102cd57600080fd5b506102e860048036038101906102e39190612a70565b610f4b565b6040516102f59190612aac565b60405180910390f35b34801561030a57600080fd5b5061032560048036038101906103209190612a70565b610f63565b604051610333929190612d40565b60405180910390f35b34801561034857600080fd5b50610363600480360381019061035e9190612d69565b61104d565b6040516103709190612da9565b60405180910390f35b34801561038557600080fd5b5061038e6110fa565b60405161039b9190612aac565b60405180910390f35b3480156103b057600080fd5b506103cb60048036038101906103c69190612dcb565b611100565b6040516103d89190612aac565b60405180910390f35b3480156103ed57600080fd5b5061040860048036038101906104039190612d69565b611125565b6040516104159190612aac565b60405180910390f35b34801561042a57600080fd5b5061044560048036038101906104409190612e0b565b61114a565b005b34801561045357600080fd5b5061046e60048036038101906104699190612a70565b611270565b60405161047b9190612aac565b60405180910390f35b34801561049057600080fd5b506104ab60048036038101906104a69190612ac7565b611288565b6040516104be9796959493929190612e6d565b60405180910390f35b3480156104d357600080fd5b506104ee60048036038101906104e99190612a70565b611313565b6040516104fb9190612aac565b60405180910390f35b34801561051057600080fd5b5061051961135c565b005b34801561052757600080fd5b50610542600480360381019061053d9190612f3c565b611370565b005b34801561055057600080fd5b5061056b60048036038101906105669190612d69565b611653565b6040516105789190612fb0565b60405180910390f35b34801561058d57600080fd5b506105966116a1565b6040516105a39190612fb0565b60405180910390f35b3480156105b857600080fd5b506105d360048036038101906105ce9190612ac7565b6116ca565b6040516105e09190612fcb565b60405180910390f35b3480156105f557600080fd5b50610610600480360381019061060b9190613012565b611759565b005b34801561061e57600080fd5b5061063960048036038101906106349190612d69565b611ac7565b6040516106469190612da9565b60405180910390f35b34801561065b57600080fd5b5061067660048036038101906106719190612d69565b611b74565b005b34801561068457600080fd5b5061069f600480360381019061069a919061309a565b611e9a565b6040516106ac9190612fcb565b60405180910390f35b3480156106c157600080fd5b506106dc60048036038101906106d79190612dcb565b611f44565b6040516106e99190612aac565b60405180910390f35b3480156106fe57600080fd5b5061071960048036038101906107149190612d69565b611f69565b6040516107269190612aac565b60405180910390f35b34801561073b57600080fd5b5061075660048036038101906107519190612a70565b611f8e565b005b34801561076457600080fd5b5061076d612014565b60405161077a9190613139565b60405180910390f35b600082116107c6576040517f08c379a00000000000000000000000000000000000000000000000000000000081526004016107bd906131c6565b60405180910390fd5b428111610808576040517f08c379a00000000000000000000000000000000000000000000000000000000081526004016107ff90613232565b60405180910390fd5b6040518061014001604052803373ffffffffffffffffffffffffffffffffffffffff1681526020018681526020018581526020018481526020018381526020016000815260200160008152602001828152602001600015158152602001600081525060036000600254815260200190815260200160002060008201518160000160006101000a81548173ffffffffffffffffffffffffffffffffffffffff021916908373ffffffffffffffffffffffffffffffffffffffff16021790555060208201518160010190816108db9190613454565b5060408201518160020190816108f19190613454565b5060608201518160030190816109079190613454565b506080820151816004015560a0820151816005015560c0820151816006015560e082015181600701556101008201518160080160006101000a81548160ff02191690831515021790555061012082015181600901559050503373ffffffffffffffffffffffffffffffffffffffff166002547f38c6aeb743839661492fe8d17f7c9acc37807601100b5530d16fcac5a72c4fe486868987876040516109b0959493929190613526565b60405180910390a3600260008154809291906109cb906135bd565b91905055505050505050565b6000600860008373ffffffffffffffffffffffffffffffffffffffff1673ffffffffffffffffffffffffffffffffffffffff168152602001908152602001600020549050919050565b60036020528060005260406000206000915090508060000160009054906101000a900473ffffffffffffffffffffffffffffffffffffffff1690806001018054610a6990613281565b80601f0160208091040260200160405190810160405280929190818152602001828054610a9590613281565b8015610ae25780601f10610ab757610100808354040283529160200191610ae2565b820191906000526020600020905b815481529060010190602001808311610ac557829003601f168201915b505050505090806002018054610af790613281565b80601f0160208091040260200160405190810160405280929190818152602001828054610b2390613281565b8015610b705780601f10610b4557610100808354040283529160200191610b70565b820191906000526020600020905b815481529060010190602001808311610b5357829003601f168201915b505050505090806003018054610b8590613281565b80601f0160208091040260200160405190810160405280929190818152602001828054610bb190613281565b8015610bfe5780601f10610bd357610100808354040283529160200191610bfe565b820191906000526020600020905b815481529060010190602001808311610be157829003601f168201915b5050505050908060040154908060050154908060060154908060070154908060080160009054906101000a900460ff1690806009015490508a565b6060600a6000838152602001908152602001600020805480602002602001604051908101604052809291908181526020018280548015610cce57602002820191906000526020600020905b8160009054906101000a900473ffffffffffffffffffffffffffffffffffffffff1673ffffffffffffffffffffffffffffffffffffffff1681526020019060010190808311610c84575b50505050509050919050565b600060036000838152602001908152602001600020905080600701544210610d37576040517f08c379a0000000000000000000000000000000000000000000000000000000008152600401610d2e90613651565b60405180910390fd5b60003411610d7a576040517f08c379a0000000000000000000000000000000000000000000000000000000008152600401610d71906136bd565b60405180910390fd5b34816005016000828254610d8e91906136dd565b92505081905550346005600084815260200190815260200160002060003373ffffffffffffffffffffffffffffffffffffffff1673ffffffffffffffffffffffffffffffffffffffff1681526020019081526020016000206000828254610df591906136dd565b92505081905550346005600084815260200190815260200160002060003373ffffffffffffffffffffffffffffffffffffffff1673ffffffffffffffffffffffffffffffffffffffff1681526020019081526020016000205403610ec857600a6000838152602001908152602001600020339080600181540180825580915050600190039060005260206000200160009091909190916101000a81548173ffffffffffffffffffffffffffffffffffffffff021916908373ffffffffffffffffffffffffffffffffffffffff1602179055505b8060040154816005015410610ef55760018160080160006101000a81548160ff0219169083151502179055505b3373ffffffffffffffffffffffffffffffffffffffff16827f296213327784aed1db3e4aef381db3aa91efdaf000bf7527e0de40be86a21f9f346001604051610f3f929190613711565b60405180910390a35050565b60086020528060005260406000206000915090505481565b60008060008060005b60025481101561103f576004600082815260200190815260200160002060008773ffffffffffffffffffffffffffffffffffffffff1673ffffffffffffffffffffffffffffffffffffffff1681526020019081526020016000205483610fd291906136dd565b92506005600082815260200190815260200160002060008773ffffffffffffffffffffffffffffffffffffffff1673ffffffffffffffffffffffffffffffffffffffff168152602001908152602001600020548261103091906136dd565b91508080600101915050610f6c565b508181935093505050915091565b600760205281600052604060002060205280600052604060002060009150915050805461107990613281565b80601f01602080910402602001604051908101604052809291908181526020018280546110a590613281565b80156110f25780601f106110c7576101008083540402835291602001916110f2565b820191906000526020600020905b8154815290600101906020018083116110d557829003601f168201915b505050505081565b60025481565b6004602052816000526040600020602052806000526040600020600091509150505481565b600c602052816000526040600020602052806000526040600020600091509150505481565b60006003600085815260200190815260200160002090508060000160009054906101000a900473ffffffffffffffffffffffffffffffffffffffff1673ffffffffffffffffffffffffffffffffffffffff163373ffffffffffffffffffffffffffffffffffffffff16146111f3576040517f08c379a00000000000000000000000000000000000000000000000000000000081526004016111ea90613786565b60405180910390fd5b8060080160009054906101000a900460ff1615611245576040517f08c379a000000000000000000000000000000000000000000000000000000000815260040161123c906137f2565b60405180910390fd5b6000831115611258578281600401819055505b4282111561126a578181600701819055505b50505050565b60096020528060005260406000206000915090505481565b600080600080600080600080600360008a815260200190815260200160002090508060000160009054906101000a900473ffffffffffffffffffffffffffffffffffffffff168160040154826005015483600701548460080160009054906101000a900460ff1685600901548660060154975097509750975097509750975050919395979092949650565b6000600960008373ffffffffffffffffffffffffffffffffffffffff1673ffffffffffffffffffffffffffffffffffffffff168152602001908152602001600020549050919050565b61136461203a565b61136e60006120c1565b565b60006003600086815260200190815260200160002090506000600a600087815260200190815260200160002080549050905060006113ad82612185565b90508260000160009054906101000a900473ffffffffffffffffffffffffffffffffffffffff1673ffffffffffffffffffffffffffffffffffffffff163373ffffffffffffffffffffffffffffffffffffffff1614611441576040517f08c379a000000000000000000000000000000000000000000000000000000000815260040161143890613884565b60405180910390fd5b601e8614806114505750603286145b8061145b5750604686145b806114665750606486145b6114a5576040517f08c379a000000000000000000000000000000000000000000000000000000000815260040161149c906138f0565b60405180910390fd5b826009015486116114eb576040517f08c379a00000000000000000000000000000000000000000000000000000000081526004016114e290613982565b60405180910390fd5b6000836009015411156115d1576000600a6000898152602001908152602001600020805490509050600061151e82612185565b905060008211611563576040517f08c379a000000000000000000000000000000000000000000000000000000000815260040161155a906139ee565b60405180910390fd5b80600b60008b81526020019081526020016000206000876009015481526020019081526020016000205410156115ce576040517f08c379a00000000000000000000000000000000000000000000000000000000081526004016115c590613aa6565b60405180910390fd5b50505b8583600901819055508484600660008a81526020019081526020016000206000898152602001908152602001600020918261160d929190613ad1565b50867f600f24eb98aa4205c376079c1cc9195e841a77574da91b88a61cfe6c612b56c187878760405161164293929190613bce565b60405180910390a250505050505050565b600a602052816000526040600020818154811061166f57600080fd5b906000526020600020016000915091509054906101000a900473ffffffffffffffffffffffffffffffffffffffff1681565b60008060009054906101000a900473ffffffffffffffffffffffffffffffffffffffff16905090565b6000806003600084815260200190815260200160002090506000600a6000858152602001908152602001600020805490509050600061170882612185565b905060008360090154036117225760019350505050611754565b80600b600087815260200190815260200160002060008560090154815260200190815260200160002054101593505050505b919050565b8460006005600083815260200190815260200160002060003373ffffffffffffffffffffffffffffffffffffffff1673ffffffffffffffffffffffffffffffffffffffff168152602001908152602001600020541180611809575060006004600083815260200190815260200160002060003373ffffffffffffffffffffffffffffffffffffffff1673ffffffffffffffffffffffffffffffffffffffff16815260200190815260200160002054115b611848576040517f08c379a000000000000000000000000000000000000000000000000000000000815260040161183f90613c4c565b60405180910390fd5b6000600360008881526020019081526020016000209050858160090154146118a5576040517f08c379a000000000000000000000000000000000000000000000000000000000815260040161189c90613cde565b60405180910390fd5b8060040154816005015410156118f0576040517f08c379a00000000000000000000000000000000000000000000000000000000081526004016118e790613d70565b60405180910390fd5b8484600760008a815260200190815260200160002060008981526020019081526020016000209182611923929190613ad1565b506000600a6000898152602001908152602001600020805490509050600061194a82612185565b905084156119d357600b60008a815260200190815260200160002060008981526020019081526020016000206000815480929190611987906135bd565b919050555080600b60008b815260200190815260200160002060008a815260200190815260200160002054106119c3576119c28989856121a7565b5b6119ce89843361235a565b611a7a565b600c60008a815260200190815260200160002060008981526020019081526020016000206000815480929190611a08906135bd565b9190505550600282611a1a9190613dbf565b600c60008b815260200190815260200160002060008a8152602001908152602001600020541115611a7957601e8814611a635760148360090154611a5e9190613df0565b611a66565b60005b8360090181905550611a788989612753565b5b5b887f27ce6cfc6d3c8ddb663de72c545e2c04a2f8d50274c6730c70105199c7e6bfe98888888760090154604051611ab49493929190613e24565b60405180910390a2505050505050505050565b6006602052816000526040600020602052806000526040600020600091509150508054611af390613281565b80601f0160208091040260200160405190810160405280929190818152602001828054611b1f90613281565b8015611b6c5780601f10611b4157610100808354040283529160200191611b6c565b820191906000526020600020905b815481529060010190602001808311611b4f57829003601f168201915b505050505081565b600060036000848152602001908152602001600020905080600701544210611bd1576040517f08c379a0000000000000000000000000000000000000000000000000000000008152600401611bc890613651565b60405180910390fd5b60008211611c14576040517f08c379a0000000000000000000000000000000000000000000000000000000008152600401611c0b906136bd565b60405180910390fd5b600160009054906101000a900473ffffffffffffffffffffffffffffffffffffffff1673ffffffffffffffffffffffffffffffffffffffff166323b872dd3330856040518463ffffffff1660e01b8152600401611c7393929190613e64565b6020604051808303816000875af1158015611c92573d6000803e3d6000fd5b505050506040513d601f19601f82011682018060405250810190611cb69190613eb0565b611cf5576040517f08c379a0000000000000000000000000000000000000000000000000000000008152600401611cec90613f29565b60405180910390fd5b81816005016000828254611d0991906136dd565b92505081905550816004600085815260200190815260200160002060003373ffffffffffffffffffffffffffffffffffffffff1673ffffffffffffffffffffffffffffffffffffffff1681526020019081526020016000206000828254611d7091906136dd565b92505081905550816004600085815260200190815260200160002060003373ffffffffffffffffffffffffffffffffffffffff1673ffffffffffffffffffffffffffffffffffffffff1681526020019081526020016000205403611e4357600a6000848152602001908152602001600020339080600181540180825580915050600190039060005260206000200160009091909190916101000a81548173ffffffffffffffffffffffffffffffffffffffff021916908373ffffffffffffffffffffffffffffffffffffffff1602179055505b3373ffffffffffffffffffffffffffffffffffffffff16837f296213327784aed1db3e4aef381db3aa91efdaf000bf7527e0de40be86a21f9f846000604051611e8d929190613711565b60405180910390a3505050565b6000600160009054906101000a900473ffffffffffffffffffffffffffffffffffffffff1673ffffffffffffffffffffffffffffffffffffffff1663a9059cbb84846040518363ffffffff1660e01b8152600401611ef9929190613f49565b6020604051808303816000875af1158015611f18573d6000803e3d6000fd5b505050506040513d601f19601f82011682018060405250810190611f3c9190613eb0565b905092915050565b6005602052816000526040600020602052806000526040600020600091509150505481565b600b602052816000526040600020602052806000526040600020600091509150505481565b611f9661203a565b600073ffffffffffffffffffffffffffffffffffffffff168173ffffffffffffffffffffffffffffffffffffffff16036120085760006040517f1e4fbdf7000000000000000000000000000000000000000000000000000000008152600401611fff9190612fb0565b60405180910390fd5b612011816120c1565b50565b600160009054906101000a900473ffffffffffffffffffffffffffffffffffffffff1681565b6120426127ab565b73ffffffffffffffffffffffffffffffffffffffff166120606116a1565b73ffffffffffffffffffffffffffffffffffffffff16146120bf576120836127ab565b6040517f118cdaa70000000000000000000000000000000000000000000000000000000081526004016120b69190612fb0565b60405180910390fd5b565b60008060009054906101000a900473ffffffffffffffffffffffffffffffffffffffff169050816000806101000a81548173ffffffffffffffffffffffffffffffffffffffff021916908373ffffffffffffffffffffffffffffffffffffffff1602179055508173ffffffffffffffffffffffffffffffffffffffff168173ffffffffffffffffffffffffffffffffffffffff167f8be0079c531659141344cd1fd0a4f28419497f9722a3daafe3b4186f6b6457e060405160405180910390a35050565b6000600260018361219691906136dd565b6121a09190613dbf565b9050919050565b600060648383600401546121bb9190613f72565b6121c59190613dbf565b905060008260060154826121d99190613df0565b9050600081111561235357808360060160008282546121f891906136dd565b9250508190555080600960008560000160009054906101000a900473ffffffffffffffffffffffffffffffffffffffff1673ffffffffffffffffffffffffffffffffffffffff1673ffffffffffffffffffffffffffffffffffffffff168152602001908152602001600020600082825461227291906136dd565b9250508190555060008360000160009054906101000a900473ffffffffffffffffffffffffffffffffffffffff1673ffffffffffffffffffffffffffffffffffffffff166108fc839081150290604051600060405180830381858888f19350505050905080612316576040517f08c379a000000000000000000000000000000000000000000000000000000000815260040161230d90614000565b60405180910390fd5b857ff76e1f2eb07b2469e4d234c31a9e74911c283b015d12d264993fbb5544bb1b2e836000604051612349929190613711565b60405180910390a2505b5050505050565b6000670de0b6b3a764000090506000600a60008681526020019081526020016000208054806020026020016040519081016040528092919081815260200182805480156123fc57602002820191906000526020600020905b8160009054906101000a900473ffffffffffffffffffffffffffffffffffffffff1673ffffffffffffffffffffffffffffffffffffffff16815260200190600101908083116123b2575b5050505050905060006005600087815260200190815260200160002060003373ffffffffffffffffffffffffffffffffffffffff1673ffffffffffffffffffffffffffffffffffffffff1681526020019081526020016000205411612496576040517f08c379a000000000000000000000000000000000000000000000000000000000815260040161248d9061406c565b60405180910390fd5b60006005600087815260200190815260200160002060003373ffffffffffffffffffffffffffffffffffffffff1673ffffffffffffffffffffffffffffffffffffffff1681526020019081526020016000205411156125cf57600160009054906101000a900473ffffffffffffffffffffffffffffffffffffffff1673ffffffffffffffffffffffffffffffffffffffff1663a9059cbb33846040518363ffffffff1660e01b815260040161254c929190613f49565b6020604051808303816000875af115801561256b573d6000803e3d6000fd5b505050506040513d601f19601f8201168201806040525081019061258f9190613eb0565b6125ce576040517f08c379a00000000000000000000000000000000000000000000000000000000081526004016125c5906140d8565b60405180910390fd5b5b600160009054906101000a900473ffffffffffffffffffffffffffffffffffffffff1673ffffffffffffffffffffffffffffffffffffffff1663a9059cbb8560000160009054906101000a900473ffffffffffffffffffffffffffffffffffffffff16846040518363ffffffff1660e01b8152600401612650929190614119565b6020604051808303816000875af115801561266f573d6000803e3d6000fd5b505050506040513d601f19601f820116820180604052508101906126939190613eb0565b6126d2576040517f08c379a00000000000000000000000000000000000000000000000000000000081526004016126c99061418e565b60405180910390fd5b81600860008660000160009054906101000a900473ffffffffffffffffffffffffffffffffffffffff1673ffffffffffffffffffffffffffffffffffffffff1673ffffffffffffffffffffffffffffffffffffffff168152602001908152602001600020600082825461274591906136dd565b925050819055505050505050565b6000600b60008481526020019081526020016000206000838152602001908152602001600020819055506000600c60008481526020019081526020016000206000838152602001908152602001600020819055505050565b600033905090565b6000604051905090565b600080fd5b600080fd5b600080fd5b600080fd5b6000601f19601f8301169050919050565b7f4e487b7100000000000000000000000000000000000000000000000000000000600052604160045260246000fd5b61281a826127d1565b810181811067ffffffffffffffff82111715612839576128386127e2565b5b80604052505050565b600061284c6127b3565b90506128588282612811565b919050565b600067ffffffffffffffff821115612878576128776127e2565b5b612881826127d1565b9050602081019050919050565b82818337600083830152505050565b60006128b06128ab8461285d565b612842565b9050828152602081018484840111156128cc576128cb6127cc565b5b6128d784828561288e565b509392505050565b600082601f8301126128f4576128f36127c7565b5b813561290484826020860161289d565b91505092915050565b6000819050919050565b6129208161290d565b811461292b57600080fd5b50565b60008135905061293d81612917565b92915050565b600080600080600060a0868803121561295f5761295e6127bd565b5b600086013567ffffffffffffffff81111561297d5761297c6127c2565b5b612989888289016128df565b955050602086013567ffffffffffffffff8111156129aa576129a96127c2565b5b6129b6888289016128df565b945050604086013567ffffffffffffffff8111156129d7576129d66127c2565b5b6129e3888289016128df565b93505060606129f48882890161292e565b9250506080612a058882890161292e565b9150509295509295909350565b600073ffffffffffffffffffffffffffffffffffffffff82169050919050565b6000612a3d82612a12565b9050919050565b612a4d81612a32565b8114612a5857600080fd5b50565b600081359050612a6a81612a44565b92915050565b600060208284031215612a8657612a856127bd565b5b6000612a9484828501612a5b565b91505092915050565b612aa68161290d565b82525050565b6000602082019050612ac16000830184612a9d565b92915050565b600060208284031215612add57612adc6127bd565b5b6000612aeb8482850161292e565b91505092915050565b6000612aff82612a12565b9050919050565b612b0f81612af4565b82525050565b600081519050919050565b600082825260208201905092915050565b60005b83811015612b4f578082015181840152602081019050612b34565b60008484015250505050565b6000612b6682612b15565b612b708185612b20565b9350612b80818560208601612b31565b612b89816127d1565b840191505092915050565b60008115159050919050565b612ba981612b94565b82525050565b600061014082019050612bc5600083018d612b06565b8181036020830152612bd7818c612b5b565b90508181036040830152612beb818b612b5b565b90508181036060830152612bff818a612b5b565b9050612c0e6080830189612a9d565b612c1b60a0830188612a9d565b612c2860c0830187612a9d565b612c3560e0830186612a9d565b612c43610100830185612ba0565b612c51610120830184612a9d565b9b9a5050505050505050505050565b600081519050919050565b600082825260208201905092915050565b6000819050602082019050919050565b612c9581612a32565b82525050565b6000612ca78383612c8c565b60208301905092915050565b6000602082019050919050565b6000612ccb82612c60565b612cd58185612c6b565b9350612ce083612c7c565b8060005b83811015612d11578151612cf88882612c9b565b9750612d0383612cb3565b925050600181019050612ce4565b5085935050505092915050565b60006020820190508181036000830152612d388184612cc0565b905092915050565b6000604082019050612d556000830185612a9d565b612d626020830184612a9d565b9392505050565b60008060408385031215612d8057612d7f6127bd565b5b6000612d8e8582860161292e565b9250506020612d9f8582860161292e565b9150509250929050565b60006020820190508181036000830152612dc38184612b5b565b905092915050565b60008060408385031215612de257612de16127bd565b5b6000612df08582860161292e565b9250506020612e0185828601612a5b565b9150509250929050565b600080600060608486031215612e2457612e236127bd565b5b6000612e328682870161292e565b9350506020612e438682870161292e565b9250506040612e548682870161292e565b9150509250925092565b612e6781612a32565b82525050565b600060e082019050612e82600083018a612e5e565b612e8f6020830189612a9d565b612e9c6040830188612a9d565b612ea96060830187612a9d565b612eb66080830186612ba0565b612ec360a0830185612a9d565b612ed060c0830184612a9d565b98975050505050505050565b600080fd5b600080fd5b60008083601f840112612efc57612efb6127c7565b5b8235905067ffffffffffffffff811115612f1957612f18612edc565b5b602083019150836001820283011115612f3557612f34612ee1565b5b9250929050565b60008060008060608587031215612f5657612f556127bd565b5b6000612f648782880161292e565b9450506020612f758782880161292e565b935050604085013567ffffffffffffffff811115612f9657612f956127c2565b5b612fa287828801612ee6565b925092505092959194509250565b6000602082019050612fc56000830184612e5e565b92915050565b6000602082019050612fe06000830184612ba0565b92915050565b612fef81612b94565b8114612ffa57600080fd5b50565b60008135905061300c81612fe6565b92915050565b60008060008060006080868803121561302e5761302d6127bd565b5b600061303c8882890161292e565b955050602061304d8882890161292e565b945050604086013567ffffffffffffffff81111561306e5761306d6127c2565b5b61307a88828901612ee6565b9350935050606061308d88828901612ffd565b9150509295509295909350565b600080604083850312156130b1576130b06127bd565b5b60006130bf85828601612a5b565b92505060206130d08582860161292e565b9150509250929050565b6000819050919050565b60006130ff6130fa6130f584612a12565b6130da565b612a12565b9050919050565b6000613111826130e4565b9050919050565b600061312382613106565b9050919050565b61313381613118565b82525050565b600060208201905061314e600083018461312a565b92915050565b7f476f616c20616d6f756e74206d7573742062652067726561746572207468616e60008201527f2030000000000000000000000000000000000000000000000000000000000000602082015250565b60006131b0602283612b20565b91506131bb82613154565b604082019050919050565b600060208201905081810360008301526131df816131a3565b9050919050565b7f446561646c696e65206d75737420626520696e20746865206675747572650000600082015250565b600061321c601e83612b20565b9150613227826131e6565b602082019050919050565b6000602082019050818103600083015261324b8161320f565b9050919050565b7f4e487b7100000000000000000000000000000000000000000000000000000000600052602260045260246000fd5b6000600282049050600182168061329957607f821691505b6020821081036132ac576132ab613252565b5b50919050565b60008190508160005260206000209050919050565b60006020601f8301049050919050565b600082821b905092915050565b6000600883026133147fffffffffffffffffffffffffffffffffffffffffffffffffffffffffffffffff826132d7565b61331e86836132d7565b95508019841693508086168417925050509392505050565b600061335161334c6133478461290d565b6130da565b61290d565b9050919050565b6000819050919050565b61336b83613336565b61337f61337782613358565b8484546132e4565b825550505050565b600090565b613394613387565b61339f818484613362565b505050565b5b818110156133c3576133b860008261338c565b6001810190506133a5565b5050565b601f821115613408576133d9816132b2565b6133e2846132c7565b810160208510156133f1578190505b6134056133fd856132c7565b8301826133a4565b50505b505050565b600082821c905092915050565b600061342b6000198460080261340d565b1980831691505092915050565b6000613444838361341a565b9150826002028217905092915050565b61345d82612b15565b67ffffffffffffffff811115613476576134756127e2565b5b6134808254613281565b61348b8282856133c7565b600060209050601f8311600181146134be57600084156134ac578287015190505b6134b68582613438565b86555061351e565b601f1984166134cc866132b2565b60005b828110156134f4578489015182556001820191506020850194506020810190506134cf565b86831015613511578489015161350d601f89168261341a565b8355505b6001600288020188555050505b505050505050565b600060a08201905081810360008301526135408188612b5b565b905081810360208301526135548187612b5b565b905081810360408301526135688186612b5b565b90506135776060830185612a9d565b6135846080830184612a9d565b9695505050505050565b7f4e487b7100000000000000000000000000000000000000000000000000000000600052601160045260246000fd5b60006135c88261290d565b91507fffffffffffffffffffffffffffffffffffffffffffffffffffffffffffffffff82036135fa576135f961358e565b5b600182019050919050565b7f50726f6a6563742066756e64696e6720706572696f64206973206f7665720000600082015250565b600061363b601e83612b20565b915061364682613605565b602082019050919050565b6000602082019050818103600083015261366a8161362e565b9050919050565b7f416d6f756e74206d7573742062652067726561746572207468616e2030000000600082015250565b60006136a7601d83612b20565b91506136b282613671565b602082019050919050565b600060208201905081810360008301526136d68161369a565b9050919050565b60006136e88261290d565b91506136f38361290d565b925082820190508082111561370b5761370a61358e565b5b92915050565b60006040820190506137266000830185612a9d565b6137336020830184612ba0565b9392505050565b7f4f6e6c792070726f6a6563742063726561746f722063616e2075706461746500600082015250565b6000613770601f83612b20565b915061377b8261373a565b602082019050919050565b6000602082019050818103600083015261379f81613763565b9050919050565b7f50726f6a65637420697320616c726561647920636f6d706c6574656400000000600082015250565b60006137dc601c83612b20565b91506137e7826137a6565b602082019050919050565b6000602082019050818103600083015261380b816137cf565b9050919050565b7f4f6e6c792070726f6a6563742063726561746f722063616e207570646174652060008201527f70726f6772657373000000000000000000000000000000000000000000000000602082015250565b600061386e602883612b20565b915061387982613812565b604082019050919050565b6000602082019050818103600083015261389d81613861565b9050919050565b7f496e76616c69642070726f67726573732076616c756500000000000000000000600082015250565b60006138da601683612b20565b91506138e5826138a4565b602082019050919050565b60006020820190508181036000830152613909816138cd565b9050919050565b7f50726f6772657373206d7573742062652067726561746572207468616e20637560008201527f7272656e742070726f6772657373000000000000000000000000000000000000602082015250565b600061396c602e83612b20565b915061397782613910565b604082019050919050565b6000602082019050818103600083015261399b8161395f565b9050919050565b7f4e6f20696e766573746f727320746f20617070726f76652070726f6772657373600082015250565b60006139d8602083612b20565b91506139e3826139a2565b602082019050919050565b60006020820190508181036000830152613a07816139cb565b9050919050565b7f43757272656e742070726f677265737320686173206e6f74206265656e20617060008201527f70726f76656420627920746865206d616a6f72697479206f6620696e7665737460208201527f6f72730000000000000000000000000000000000000000000000000000000000604082015250565b6000613a90604383612b20565b9150613a9b82613a0e565b606082019050919050565b60006020820190508181036000830152613abf81613a83565b9050919050565b600082905092915050565b613adb8383613ac6565b67ffffffffffffffff811115613af457613af36127e2565b5b613afe8254613281565b613b098282856133c7565b6000601f831160018114613b385760008415613b26578287013590505b613b308582613438565b865550613b98565b601f198416613b46866132b2565b60005b82811015613b6e57848901358255600182019150602085019450602081019050613b49565b86831015613b8b5784890135613b87601f89168261341a565b8355505b6001600288020188555050505b50505050505050565b6000613bad8385612b20565b9350613bba83858461288e565b613bc3836127d1565b840190509392505050565b6000604082019050613be36000830186612a9d565b8181036020830152613bf6818486613ba1565b9050949350505050565b7f43616c6c6572206973206e6f7420616e20696e766573746f7200000000000000600082015250565b6000613c36601983612b20565b9150613c4182613c00565b602082019050919050565b60006020820190508181036000830152613c6581613c29565b9050919050565b7f50726f677265737320646f6573206e6f74206d617463682063757272656e742060008201527f70726f6a6563742070726f677265737300000000000000000000000000000000602082015250565b6000613cc8603083612b20565b9150613cd382613c6c565b604082019050919050565b60006020820190508181036000830152613cf781613cbb565b9050919050565b7f50726f6a65637420686173206e6f74207265616368656420676f616c20616d6f60008201527f756e740000000000000000000000000000000000000000000000000000000000602082015250565b6000613d5a602383612b20565b9150613d6582613cfe565b604082019050919050565b60006020820190508181036000830152613d8981613d4d565b9050919050565b7f4e487b7100000000000000000000000000000000000000000000000000000000600052601260045260246000fd5b6000613dca8261290d565b9150613dd58361290d565b925082613de557613de4613d90565b5b828204905092915050565b6000613dfb8261290d565b9150613e068361290d565b9250828203905081811115613e1e57613e1d61358e565b5b92915050565b60006060820190508181036000830152613e3f818688613ba1565b9050613e4e6020830185612ba0565b613e5b6040830184612a9d565b95945050505050565b6000606082019050613e796000830186612e5e565b613e866020830185612e5e565b613e936040830184612a9d565b949350505050565b600081519050613eaa81612fe6565b92915050565b600060208284031215613ec657613ec56127bd565b5b6000613ed484828501613e9b565b91505092915050565b7f546f6b656e207472616e73666572206661696c65640000000000000000000000600082015250565b6000613f13601583612b20565b9150613f1e82613edd565b602082019050919050565b60006020820190508181036000830152613f4281613f06565b9050919050565b6000604082019050613f5e6000830185612e5e565b613f6b6020830184612a9d565b9392505050565b6000613f7d8261290d565b9150613f888361290d565b9250828202613f968161290d565b91508282048414831517613fad57613fac61358e565b5b5092915050565b7f455448207472616e73666572206661696c656400000000000000000000000000600082015250565b6000613fea601383612b20565b9150613ff582613fb4565b602082019050919050565b6000602082019050818103600083015261401981613fdd565b9050919050565b7f6e6f20616d6f756e740000000000000000000000000000000000000000000000600082015250565b6000614056600983612b20565b915061406182614020565b602082019050919050565b6000602082019050818103600083015261408581614049565b9050919050565b7f496e766573746f7220726577617264207472616e73666572206661696c656400600082015250565b60006140c2601f83612b20565b91506140cd8261408c565b602082019050919050565b600060208201905081810360008301526140f1816140b5565b9050919050565b600061410382613106565b9050919050565b614113816140f8565b82525050565b600060408201905061412e600083018561410a565b61413b6020830184612a9d565b9392505050565b7f43726561746f7220726577617264207472616e73666572206661696c65640000600082015250565b6000614178601e83612b20565b915061418382614142565b602082019050919050565b600060208201905081810360008301526141a78161416b565b905091905056fea264697066735822122005de23e3493480d0c94ff1990cfcb78de48b3962b90f2a003af1de72f6f6171664736f6c63430008180033",
  "devdoc": {
    "errors": {
      "OwnableInvalidOwner(address)": [
        {
          "details": "The owner is not a valid owner account. (eg. `address(0)`)"
        }
      ],
      "OwnableUnauthorizedAccount(address)": [
        {
          "details": "The caller account is not authorized to perform an operation."
        }
      ]
    },
    "kind": "dev",
    "methods": {
      "owner()": {
        "details": "Returns the address of the current owner."
      },
      "renounceOwnership()": {
        "details": "Leaves the contract without owner. It will not be possible to call `onlyOwner` functions. Can only be called by the current owner. NOTE: Renouncing ownership will leave the contract without an owner, thereby disabling any functionality that is only available to the owner."
      },
      "transferOwnership(address)": {
        "details": "Transfers ownership of the contract to a new account (`newOwner`). Can only be called by the current owner."
      }
    },
    "version": 1
  },
  "userdoc": {
    "kind": "user",
    "methods": {},
    "version": 1
  },
  "storageLayout": {
    "storage": [
      {
        "astId": 8,
        "contract": "contracts/SmartFrogFund.sol:FrogFund",
        "label": "_owner",
        "offset": 0,
        "slot": "0",
        "type": "t_address"
      },
      {
        "astId": 285,
        "contract": "contracts/SmartFrogFund.sol:FrogFund",
        "label": "token",
        "offset": 0,
        "slot": "1",
        "type": "t_contract(IERC20)225"
      },
      {
        "astId": 288,
        "contract": "contracts/SmartFrogFund.sol:FrogFund",
        "label": "projectCount",
        "offset": 0,
        "slot": "2",
        "type": "t_uint256"
      },
      {
        "astId": 293,
        "contract": "contracts/SmartFrogFund.sol:FrogFund",
        "label": "projects",
        "offset": 0,
        "slot": "3",
        "type": "t_mapping(t_uint256,t_struct(Project)282_storage)"
      },
      {
        "astId": 299,
        "contract": "contracts/SmartFrogFund.sol:FrogFund",
        "label": "contributions",
        "offset": 0,
        "slot": "4",
        "type": "t_mapping(t_uint256,t_mapping(t_address,t_uint256))"
      },
      {
        "astId": 305,
        "contract": "contracts/SmartFrogFund.sol:FrogFund",
        "label": "ethContributions",
        "offset": 0,
        "slot": "5",
        "type": "t_mapping(t_uint256,t_mapping(t_address,t_uint256))"
      },
      {
        "astId": 311,
        "contract": "contracts/SmartFrogFund.sol:FrogFund",
        "label": "progressDetails",
        "offset": 0,
        "slot": "6",
        "type": "t_mapping(t_uint256,t_mapping(t_uint256,t_string_storage))"
      },
      {
        "astId": 317,
        "contract": "contracts/SmartFrogFund.sol:FrogFund",
        "label": "approvalComments",
        "offset": 0,
        "slot": "7",
        "type": "t_mapping(t_uint256,t_mapping(t_uint256,t_string_storage))"
      },
      {
        "astId": 321,
        "contract": "contracts/SmartFrogFund.sol:FrogFund",
        "label": "creatorBalances",
        "offset": 0,
        "slot": "8",
        "type": "t_mapping(t_address,t_uint256)"
      },
      {
        "astId": 325,
        "contract": "contracts/SmartFrogFund.sol:FrogFund",
        "label": "creatorEthBalances",
        "offset": 0,
        "slot": "9",
        "type": "t_mapping(t_address,t_uint256)"
      },
      {
        "astId": 330,
        "contract": "contracts/SmartFrogFund.sol:FrogFund",
        "label": "projectInvestors",
        "offset": 0,
        "slot": "10",
        "type": "t_mapping(t_uint256,t_array(t_address)dyn_storage)"
      },
      {
        "astId": 336,
        "contract": "contracts/SmartFrogFund.sol:FrogFund",
        "label": "progressApprovals",
        "offset": 0,
        "slot": "11",
        "type": "t_mapping(t_uint256,t_mapping(t_uint256,t_uint256))"
      },
      {
        "astId": 342,
        "contract": "contracts/SmartFrogFund.sol:FrogFund",
        "label": "progressDisapprovals",
        "offset": 0,
        "slot": "12",
        "type": "t_mapping(t_uint256,t_mapping(t_uint256,t_uint256))"
      }
    ],
    "types": {
      "t_address": {
        "encoding": "inplace",
        "label": "address",
        "numberOfBytes": "20"
      },
      "t_address_payable": {
        "encoding": "inplace",
        "label": "address payable",
        "numberOfBytes": "20"
      },
      "t_array(t_address)dyn_storage": {
        "base": "t_address",
        "encoding": "dynamic_array",
        "label": "address[]",
        "numberOfBytes": "32"
      },
      "t_bool": {
        "encoding": "inplace",
        "label": "bool",
        "numberOfBytes": "1"
      },
      "t_contract(IERC20)225": {
        "encoding": "inplace",
        "label": "contract IERC20",
        "numberOfBytes": "20"
      },
      "t_mapping(t_address,t_uint256)": {
        "encoding": "mapping",
        "key": "t_address",
        "label": "mapping(address => uint256)",
        "numberOfBytes": "32",
        "value": "t_uint256"
      },
      "t_mapping(t_uint256,t_array(t_address)dyn_storage)": {
        "encoding": "mapping",
        "key": "t_uint256",
        "label": "mapping(uint256 => address[])",
        "numberOfBytes": "32",
        "value": "t_array(t_address)dyn_storage"
      },
      "t_mapping(t_uint256,t_mapping(t_address,t_uint256))": {
        "encoding": "mapping",
        "key": "t_uint256",
        "label": "mapping(uint256 => mapping(address => uint256))",
        "numberOfBytes": "32",
        "value": "t_mapping(t_address,t_uint256)"
      },
      "t_mapping(t_uint256,t_mapping(t_uint256,t_string_storage))": {
        "encoding": "mapping",
        "key": "t_uint256",
        "label": "mapping(uint256 => mapping(uint256 => string))",
        "numberOfBytes": "32",
        "value": "t_mapping(t_uint256,t_string_storage)"
      },
      "t_mapping(t_uint256,t_mapping(t_uint256,t_uint256))": {
        "encoding": "mapping",
        "key": "t_uint256",
        "label": "mapping(uint256 => mapping(uint256 => uint256))",
        "numberOfBytes": "32",
        "value": "t_mapping(t_uint256,t_uint256)"
      },
      "t_mapping(t_uint256,t_string_storage)": {
        "encoding": "mapping",
        "key": "t_uint256",
        "label": "mapping(uint256 => string)",
        "numberOfBytes": "32",
        "value": "t_string_storage"
      },
      "t_mapping(t_uint256,t_struct(Project)282_storage)": {
        "encoding": "mapping",
        "key": "t_uint256",
        "label": "mapping(uint256 => struct FrogFund.Project)",
        "numberOfBytes": "32",
        "value": "t_struct(Project)282_storage"
      },
      "t_mapping(t_uint256,t_uint256)": {
        "encoding": "mapping",
        "key": "t_uint256",
        "label": "mapping(uint256 => uint256)",
        "numberOfBytes": "32",
        "value": "t_uint256"
      },
      "t_string_storage": {
        "encoding": "bytes",
        "label": "string",
        "numberOfBytes": "32"
      },
      "t_struct(Project)282_storage": {
        "encoding": "inplace",
        "label": "struct FrogFund.Project",
        "members": [
          {
            "astId": 263,
            "contract": "contracts/SmartFrogFund.sol:FrogFund",
            "label": "creator",
            "offset": 0,
            "slot": "0",
            "type": "t_address_payable"
          },
          {
            "astId": 265,
            "contract": "contracts/SmartFrogFund.sol:FrogFund",
            "label": "title",
            "offset": 0,
            "slot": "1",
            "type": "t_string_storage"
          },
          {
            "astId": 267,
            "contract": "contracts/SmartFrogFund.sol:FrogFund",
            "label": "description",
            "offset": 0,
            "slot": "2",
            "type": "t_string_storage"
          },
          {
            "astId": 269,
            "contract": "contracts/SmartFrogFund.sol:FrogFund",
            "label": "link",
            "offset": 0,
            "slot": "3",
            "type": "t_string_storage"
          },
          {
            "astId": 271,
            "contract": "contracts/SmartFrogFund.sol:FrogFund",
            "label": "goalAmount",
            "offset": 0,
            "slot": "4",
            "type": "t_uint256"
          },
          {
            "astId": 273,
            "contract": "contracts/SmartFrogFund.sol:FrogFund",
            "label": "currentAmount",
            "offset": 0,
            "slot": "5",
            "type": "t_uint256"
          },
          {
            "astId": 275,
            "contract": "contracts/SmartFrogFund.sol:FrogFund",
            "label": "amountDistributed",
            "offset": 0,
            "slot": "6",
            "type": "t_uint256"
          },
          {
            "astId": 277,
            "contract": "contracts/SmartFrogFund.sol:FrogFund",
            "label": "deadline",
            "offset": 0,
            "slot": "7",
            "type": "t_uint256"
          },
          {
            "astId": 279,
            "contract": "contracts/SmartFrogFund.sol:FrogFund",
            "label": "completed",
            "offset": 0,
            "slot": "8",
            "type": "t_bool"
          },
          {
            "astId": 281,
            "contract": "contracts/SmartFrogFund.sol:FrogFund",
            "label": "currentProgress",
            "offset": 0,
            "slot": "9",
            "type": "t_uint256"
          }
        ],
        "numberOfBytes": "320"
      },
      "t_uint256": {
        "encoding": "inplace",
        "label": "uint256",
        "numberOfBytes": "32"
      }
    }
  }
}