{
  "address": "0x5d7053068ABa05B806C96631e67E22DdBeFd2d3a",
  "abi": [
    {
      "inputs": [
        {
          "internalType": "address",
          "name": "_tokenAddress",
          "type": "address"
        }
      ],
      "stateMutability": "nonpayable",
      "type": "constructor"
    },
    {
      "inputs": [
        {
          "internalType": "address",
          "name": "owner",
          "type": "address"
        }
      ],
      "name": "OwnableInvalidOwner",
      "type": "error"
    },
    {
      "inputs": [
        {
          "internalType": "address",
          "name": "account",
          "type": "address"
        }
      ],
      "name": "OwnableUnauthorizedAccount",
      "type": "error"
    },
    {
      "anonymous": false,
      "inputs": [
        {
          "indexed": true,
          "internalType": "uint256",
          "name": "projectId",
          "type": "uint256"
        },
        {
          "indexed": false,
          "internalType": "uint256",
          "name": "amount",
          "type": "uint256"
        }
      ],
      "name": "FundsDistributed",
      "type": "event"
    },
    {
      "anonymous": false,
      "inputs": [
        {
          "indexed": true,
          "internalType": "address",
          "name": "previousOwner",
          "type": "address"
        },
        {
          "indexed": true,
          "internalType": "address",
          "name": "newOwner",
          "type": "address"
        }
      ],
      "name": "OwnershipTransferred",
      "type": "event"
    },
    {
      "anonymous": false,
      "inputs": [
        {
          "indexed": true,
          "internalType": "uint256",
          "name": "projectId",
          "type": "uint256"
        },
        {
          "indexed": false,
          "internalType": "string",
          "name": "comment",
          "type": "string"
        },
        {
          "indexed": false,
          "internalType": "bool",
          "name": "approved",
          "type": "bool"
        }
      ],
      "name": "ProgressReviewed",
      "type": "event"
    },
    {
      "anonymous": false,
      "inputs": [
        {
          "indexed": true,
          "internalType": "uint256",
          "name": "projectId",
          "type": "uint256"
        },
        {
          "indexed": false,
          "internalType": "uint256",
          "name": "progress",
          "type": "uint256"
        },
        {
          "indexed": false,
          "internalType": "string",
          "name": "details",
          "type": "string"
        }
      ],
      "name": "ProgressUpdated",
      "type": "event"
    },
    {
      "anonymous": false,
      "inputs": [
        {
          "indexed": true,
          "internalType": "uint256",
          "name": "projectId",
          "type": "uint256"
        },
        {
          "indexed": true,
          "internalType": "address",
          "name": "creator",
          "type": "address"
        },
        {
          "indexed": false,
          "internalType": "uint256",
          "name": "goalAmount",
          "type": "uint256"
        },
        {
          "indexed": false,
          "internalType": "uint256",
          "name": "deadline",
          "type": "uint256"
        }
      ],
      "name": "ProjectCreated",
      "type": "event"
    },
    {
      "anonymous": false,
      "inputs": [
        {
          "indexed": true,
          "internalType": "uint256",
          "name": "projectId",
          "type": "uint256"
        },
        {
          "indexed": true,
          "internalType": "address",
          "name": "supporter",
          "type": "address"
        },
        {
          "indexed": false,
          "internalType": "uint256",
          "name": "amount",
          "type": "uint256"
        }
      ],
      "name": "ProjectFunded",
      "type": "event"
    },
    {
      "anonymous": false,
      "inputs": [
        {
          "indexed": true,
          "internalType": "uint256",
          "name": "projectId",
          "type": "uint256"
        },
        {
          "indexed": true,
          "internalType": "address",
          "name": "supporter",
          "type": "address"
        },
        {
          "indexed": false,
          "internalType": "uint256",
          "name": "amount",
          "type": "uint256"
        }
      ],
      "name": "RefundIssued",
      "type": "event"
    },
    {
      "inputs": [
        {
          "internalType": "uint256",
          "name": "",
          "type": "uint256"
        }
      ],
      "name": "approvalComments",
      "outputs": [
        {
          "internalType": "string",
          "name": "",
          "type": "string"
        }
      ],
      "stateMutability": "view",
      "type": "function"
    },
    {
      "inputs": [
        {
          "internalType": "uint256",
          "name": "",
          "type": "uint256"
        },
        {
          "internalType": "address",
          "name": "",
          "type": "address"
        }
      ],
      "name": "contributions",
      "outputs": [
        {
          "internalType": "uint256",
          "name": "",
          "type": "uint256"
        }
      ],
      "stateMutability": "view",
      "type": "function"
    },
    {
      "inputs": [
        {
          "internalType": "uint256",
          "name": "_goalAmount",
          "type": "uint256"
        },
        {
          "internalType": "uint256",
          "name": "_deadline",
          "type": "uint256"
        }
      ],
      "name": "createProject",
      "outputs": [],
      "stateMutability": "nonpayable",
      "type": "function"
    },
    {
      "inputs": [
        {
          "internalType": "uint256",
          "name": "_projectId",
          "type": "uint256"
        }
      ],
      "name": "distributeFunds",
      "outputs": [],
      "stateMutability": "nonpayable",
      "type": "function"
    },
    {
      "inputs": [
        {
          "internalType": "uint256",
          "name": "_projectId",
          "type": "uint256"
        }
      ],
      "name": "getProjectDetails",
      "outputs": [
        {
          "internalType": "address",
          "name": "",
          "type": "address"
        },
        {
          "internalType": "uint256",
          "name": "",
          "type": "uint256"
        },
        {
          "internalType": "uint256",
          "name": "",
          "type": "uint256"
        },
        {
          "internalType": "uint256",
          "name": "",
          "type": "uint256"
        },
        {
          "internalType": "bool",
          "name": "",
          "type": "bool"
        },
        {
          "internalType": "uint256",
          "name": "",
          "type": "uint256"
        }
      ],
      "stateMutability": "view",
      "type": "function"
    },
    {
      "inputs": [],
      "name": "owner",
      "outputs": [
        {
          "internalType": "address",
          "name": "",
          "type": "address"
        }
      ],
      "stateMutability": "view",
      "type": "function"
    },
    {
      "inputs": [
        {
          "internalType": "uint256",
          "name": "",
          "type": "uint256"
        }
      ],
      "name": "progressDetails",
      "outputs": [
        {
          "internalType": "string",
          "name": "",
          "type": "string"
        }
      ],
      "stateMutability": "view",
      "type": "function"
    },
    {
      "inputs": [],
      "name": "projectCount",
      "outputs": [
        {
          "internalType": "uint256",
          "name": "",
          "type": "uint256"
        }
      ],
      "stateMutability": "view",
      "type": "function"
    },
    {
      "inputs": [
        {
          "internalType": "uint256",
          "name": "",
          "type": "uint256"
        }
      ],
      "name": "projects",
      "outputs": [
        {
          "internalType": "address payable",
          "name": "creator",
          "type": "address"
        },
        {
          "internalType": "uint256",
          "name": "goalAmount",
          "type": "uint256"
        },
        {
          "internalType": "uint256",
          "name": "currentAmount",
          "type": "uint256"
        },
        {
          "internalType": "uint256",
          "name": "deadline",
          "type": "uint256"
        },
        {
          "internalType": "bool",
          "name": "completed",
          "type": "bool"
        },
        {
          "internalType": "uint256",
          "name": "currentProgress",
          "type": "uint256"
        }
      ],
      "stateMutability": "view",
      "type": "function"
    },
    {
      "inputs": [],
      "name": "renounceOwnership",
      "outputs": [],
      "stateMutability": "nonpayable",
      "type": "function"
    },
    {
      "inputs": [
        {
          "internalType": "uint256",
          "name": "_projectId",
          "type": "uint256"
        },
        {
          "internalType": "string",
          "name": "_comment",
          "type": "string"
        },
        {
          "internalType": "bool",
          "name": "_approved",
          "type": "bool"
        }
      ],
      "name": "reviewProgress",
      "outputs": [],
      "stateMutability": "nonpayable",
      "type": "function"
    },
    {
      "inputs": [
        {
          "internalType": "uint256",
          "name": "_projectId",
          "type": "uint256"
        },
        {
          "internalType": "uint256",
          "name": "_amount",
          "type": "uint256"
        }
      ],
      "name": "supportProject",
      "outputs": [],
      "stateMutability": "nonpayable",
      "type": "function"
    },
    {
      "inputs": [],
      "name": "token",
      "outputs": [
        {
          "internalType": "contract IERC20",
          "name": "",
          "type": "address"
        }
      ],
      "stateMutability": "view",
      "type": "function"
    },
    {
      "inputs": [
        {
          "internalType": "address",
          "name": "newOwner",
          "type": "address"
        }
      ],
      "name": "transferOwnership",
      "outputs": [],
      "stateMutability": "nonpayable",
      "type": "function"
    },
    {
      "inputs": [
        {
          "internalType": "uint256",
          "name": "_projectId",
          "type": "uint256"
        },
        {
          "internalType": "uint256",
          "name": "_progress",
          "type": "uint256"
        },
        {
          "internalType": "string",
          "name": "_details",
          "type": "string"
        }
      ],
      "name": "updateProgress",
      "outputs": [],
      "stateMutability": "nonpayable",
      "type": "function"
    },
    {
      "inputs": [
        {
          "internalType": "uint256",
          "name": "_projectId",
          "type": "uint256"
        },
        {
          "internalType": "uint256",
          "name": "_newGoalAmount",
          "type": "uint256"
        },
        {
          "internalType": "uint256",
          "name": "_newDeadline",
          "type": "uint256"
        }
      ],
      "name": "updateProject",
      "outputs": [],
      "stateMutability": "nonpayable",
      "type": "function"
    }
  ],
  "transactionHash": "0x093ed60eae44eb507699b47ea4616221c0c17c5d686202cb5fe571ab57dff827",
  "args": [
    "0x2ac0b31bcf6091c139e5a5e968434bcd5dcc63e8"
  ],
  "numDeployments": 2,
  "solcInputHash": "14e7a1ae76c4d43066d1c63827ae62b8",
  "bytecode": "0x608060405260006002553480156200001657600080fd5b5060405162002bcb38038062002bcb83398181016040528101906200003c9190620003b7565b33600073ffffffffffffffffffffffffffffffffffffffff168173ffffffffffffffffffffffffffffffffffffffff1603620000b25760006040517f1e4fbdf7000000000000000000000000000000000000000000000000000000008152600401620000a99190620003fa565b60405180910390fd5b620000c3816200011d60201b60201c565b5080600160006101000a81548173ffffffffffffffffffffffffffffffffffffffff021916908373ffffffffffffffffffffffffffffffffffffffff1602179055506200011633620001e160201b60201c565b5062000417565b60008060009054906101000a900473ffffffffffffffffffffffffffffffffffffffff169050816000806101000a81548173ffffffffffffffffffffffffffffffffffffffff021916908373ffffffffffffffffffffffffffffffffffffffff1602179055508173ffffffffffffffffffffffffffffffffffffffff168173ffffffffffffffffffffffffffffffffffffffff167f8be0079c531659141344cd1fd0a4f28419497f9722a3daafe3b4186f6b6457e060405160405180910390a35050565b620001f16200027a60201b60201c565b600073ffffffffffffffffffffffffffffffffffffffff168173ffffffffffffffffffffffffffffffffffffffff1603620002665760006040517f1e4fbdf70000000000000000000000000000000000000000000000000000000081526004016200025d9190620003fa565b60405180910390fd5b62000277816200011d60201b60201c565b50565b6200028a6200031c60201b60201c565b73ffffffffffffffffffffffffffffffffffffffff16620002b06200032460201b60201c565b73ffffffffffffffffffffffffffffffffffffffff16146200031a57620002dc6200031c60201b60201c565b6040517f118cdaa7000000000000000000000000000000000000000000000000000000008152600401620003119190620003fa565b60405180910390fd5b565b600033905090565b60008060009054906101000a900473ffffffffffffffffffffffffffffffffffffffff16905090565b600080fd5b600073ffffffffffffffffffffffffffffffffffffffff82169050919050565b60006200037f8262000352565b9050919050565b620003918162000372565b81146200039d57600080fd5b50565b600081519050620003b18162000386565b92915050565b600060208284031215620003d057620003cf6200034d565b5b6000620003e084828501620003a0565b91505092915050565b620003f48162000372565b82525050565b6000602082019050620004116000830184620003e9565b92915050565b6127a480620004276000396000f3fe608060405234801561001057600080fd5b50600436106101005760003560e01c8063715018a611610097578063c859b0a511610066578063c859b0a5146102a1578063f2fde38b146102d1578063f726f715146102ed578063fc0c546a1461030957610100565b8063715018a61461022d5780637a25f100146102375780638da5cb5b14610253578063ac06d9e21461027157610100565b80635955eb15116100d35780635955eb15146101a457806359d58e75146101c05780635f8439e3146101dc5780636db368121461021157610100565b806302da667b14610105578063107046bd1461012157806336fbad26146101565780633d891f5914610174575b600080fd5b61011f600480360381019061011a9190611584565b610327565b005b61013b600480360381019061013691906115c4565b61050a565b60405161014d9695949392919061165c565b60405180910390f35b61015e610573565b60405161016b91906116bd565b60405180910390f35b61018e60048036038101906101899190611716565b610579565b60405161019b91906116bd565b60405180910390f35b6101be60048036038101906101b99190611756565b61059e565b005b6101da60048036038101906101d5919061183a565b6106c4565b005b6101f660048036038101906101f191906115c4565b610906565b604051610208969594939291906118bd565b60405180910390f35b61022b60048036038101906102269190611584565b610987565b005b610235610bde565b005b610251600480360381019061024c919061191e565b610bf2565b005b61025b610db4565b6040516102689190611992565b60405180910390f35b61028b600480360381019061028691906115c4565b610ddd565b6040516102989190611a3d565b60405180910390f35b6102bb60048036038101906102b691906115c4565b610e7d565b6040516102c89190611a3d565b60405180910390f35b6102eb60048036038101906102e69190611a5f565b610f1d565b005b610307600480360381019061030291906115c4565b610fa3565b005b6103116113cb565b60405161031e9190611aeb565b60405180910390f35b6000821161036a576040517f08c379a000000000000000000000000000000000000000000000000000000000815260040161036190611b78565b60405180910390fd5b4281116103ac576040517f08c379a00000000000000000000000000000000000000000000000000000000081526004016103a390611be4565b60405180910390fd5b6040518060c001604052803373ffffffffffffffffffffffffffffffffffffffff16815260200183815260200160008152602001828152602001600015158152602001600081525060036000600254815260200190815260200160002060008201518160000160006101000a81548173ffffffffffffffffffffffffffffffffffffffff021916908373ffffffffffffffffffffffffffffffffffffffff16021790555060208201518160010155604082015181600201556060820151816003015560808201518160040160006101000a81548160ff02191690831515021790555060a082015181600501559050503373ffffffffffffffffffffffffffffffffffffffff166002547fb5d890eb2df709d2f732ed81f328b444e49c1618ed8d64c53c0a040ec4040e1e84846040516104e6929190611c04565b60405180910390a36002600081548092919061050190611c5c565b91905055505050565b60036020528060005260406000206000915090508060000160009054906101000a900473ffffffffffffffffffffffffffffffffffffffff16908060010154908060020154908060030154908060040160009054906101000a900460ff16908060050154905086565b60025481565b6004602052816000526040600020602052806000526040600020600091509150505481565b60006003600085815260200190815260200160002090508060000160009054906101000a900473ffffffffffffffffffffffffffffffffffffffff1673ffffffffffffffffffffffffffffffffffffffff163373ffffffffffffffffffffffffffffffffffffffff1614610647576040517f08c379a000000000000000000000000000000000000000000000000000000000815260040161063e90611cf0565b60405180910390fd5b8060040160009054906101000a900460ff1615610699576040517f08c379a000000000000000000000000000000000000000000000000000000000815260040161069090611d5c565b60405180910390fd5b60008311156106ac578281600101819055505b428211156106be578181600301819055505b50505050565b6106cc6113f1565b6000600360008681526020019081526020016000209050600081600501541161072a576040517f08c379a000000000000000000000000000000000000000000000000000000000815260040161072190611dc8565b60405180910390fd5b838360066000888152602001908152602001600020918261074c929190612024565b5081156108b857600060648260050154836001015461076b91906120f4565b6107759190612165565b9050600160009054906101000a900473ffffffffffffffffffffffffffffffffffffffff1673ffffffffffffffffffffffffffffffffffffffff1663a9059cbb8360000160009054906101000a900473ffffffffffffffffffffffffffffffffffffffff16836040518363ffffffff1660e01b81526004016107f89291906121b7565b6020604051808303816000875af1158015610817573d6000803e3d6000fd5b505050506040513d601f19601f8201168201806040525081019061083b91906121f5565b61087a576040517f08c379a00000000000000000000000000000000000000000000000000000000081526004016108719061226e565b60405180910390fd5b857f40d8c854b6d5329fd5fccae04f5a931d7529963fbab81aced7337394e737cb4d826040516108aa91906116bd565b60405180910390a2506108c3565b600081600501819055505b847fc5e6a549ac2c3754eb5455486bb1b8f04d2ae3e444764d35909d59537e4a51a08585856040516108f7939291906122ca565b60405180910390a25050505050565b60008060008060008060006003600089815260200190815260200160002090508060000160009054906101000a900473ffffffffffffffffffffffffffffffffffffffff168160010154826002015483600301548460040160009054906101000a900460ff1685600501549650965096509650965096505091939550919395565b6000600360008481526020019081526020016000209050806003015442106109e4576040517f08c379a00000000000000000000000000000000000000000000000000000000081526004016109db90612348565b60405180910390fd5b60008211610a27576040517f08c379a0000000000000000000000000000000000000000000000000000000008152600401610a1e906123b4565b60405180910390fd5b600160009054906101000a900473ffffffffffffffffffffffffffffffffffffffff1673ffffffffffffffffffffffffffffffffffffffff166323b872dd3330856040518463ffffffff1660e01b8152600401610a86939291906123d4565b6020604051808303816000875af1158015610aa5573d6000803e3d6000fd5b505050506040513d601f19601f82011682018060405250810190610ac991906121f5565b610b08576040517f08c379a0000000000000000000000000000000000000000000000000000000008152600401610aff9061226e565b60405180910390fd5b81816002016000828254610b1c919061240b565b92505081905550816004600085815260200190815260200160002060003373ffffffffffffffffffffffffffffffffffffffff1673ffffffffffffffffffffffffffffffffffffffff1681526020019081526020016000206000828254610b83919061240b565b925050819055503373ffffffffffffffffffffffffffffffffffffffff16837f6251418ffd7f504740544ec3d578897633e212c5d658b7dce793c5dc9d2e855e84604051610bd191906116bd565b60405180910390a3505050565b610be66113f1565b610bf06000611478565b565b60006003600086815260200190815260200160002090508060000160009054906101000a900473ffffffffffffffffffffffffffffffffffffffff1673ffffffffffffffffffffffffffffffffffffffff163373ffffffffffffffffffffffffffffffffffffffff1614610c9b576040517f08c379a0000000000000000000000000000000000000000000000000000000008152600401610c92906124b1565b60405180910390fd5b601e841480610caa5750603284145b80610cb55750604684145b80610cc05750606484145b610cff576040517f08c379a0000000000000000000000000000000000000000000000000000000008152600401610cf69061251d565b60405180910390fd5b80600501548411610d45576040517f08c379a0000000000000000000000000000000000000000000000000000000008152600401610d3c906125af565b60405180910390fd5b8381600501819055508282600560008881526020019081526020016000209182610d70929190612024565b50847f600f24eb98aa4205c376079c1cc9195e841a77574da91b88a61cfe6c612b56c1858585604051610da5939291906125cf565b60405180910390a25050505050565b60008060009054906101000a900473ffffffffffffffffffffffffffffffffffffffff16905090565b60056020528060005260406000206000915090508054610dfc90611e51565b80601f0160208091040260200160405190810160405280929190818152602001828054610e2890611e51565b8015610e755780601f10610e4a57610100808354040283529160200191610e75565b820191906000526020600020905b815481529060010190602001808311610e5857829003601f168201915b505050505081565b60066020528060005260406000206000915090508054610e9c90611e51565b80601f0160208091040260200160405190810160405280929190818152602001828054610ec890611e51565b8015610f155780601f10610eea57610100808354040283529160200191610f15565b820191906000526020600020905b815481529060010190602001808311610ef857829003601f168201915b505050505081565b610f256113f1565b600073ffffffffffffffffffffffffffffffffffffffff168173ffffffffffffffffffffffffffffffffffffffff1603610f975760006040517f1e4fbdf7000000000000000000000000000000000000000000000000000000008152600401610f8e9190611992565b60405180910390fd5b610fa081611478565b50565b60006003600083815260200190815260200160002090508060030154421015611001576040517f08c379a0000000000000000000000000000000000000000000000000000000008152600401610ff89061264d565b60405180910390fd5b8060040160009054906101000a900460ff1615611053576040517f08c379a000000000000000000000000000000000000000000000000000000000815260040161104a906126b9565b60405180910390fd5b80600101548160020154106111aa57600160009054906101000a900473ffffffffffffffffffffffffffffffffffffffff1673ffffffffffffffffffffffffffffffffffffffff1663a9059cbb8260000160009054906101000a900473ffffffffffffffffffffffffffffffffffffffff1683600201546040518363ffffffff1660e01b81526004016110e79291906121b7565b6020604051808303816000875af1158015611106573d6000803e3d6000fd5b505050506040513d601f19601f8201168201806040525081019061112a91906121f5565b611169576040517f08c379a00000000000000000000000000000000000000000000000000000000081526004016111609061226e565b60405180910390fd5b817f40d8c854b6d5329fd5fccae04f5a931d7529963fbab81aced7337394e737cb4d826002015460405161119d91906116bd565b60405180910390a26113aa565b60005b6002548110156113a85760006004600085815260200190815260200160002060003373ffffffffffffffffffffffffffffffffffffffff1673ffffffffffffffffffffffffffffffffffffffff168152602001908152602001600020549050600081111561139a5760006004600086815260200190815260200160002060003373ffffffffffffffffffffffffffffffffffffffff1673ffffffffffffffffffffffffffffffffffffffff16815260200190815260200160002081905550600160009054906101000a900473ffffffffffffffffffffffffffffffffffffffff1673ffffffffffffffffffffffffffffffffffffffff1663a9059cbb33836040518363ffffffff1660e01b81526004016112c89291906126d9565b6020604051808303816000875af11580156112e7573d6000803e3d6000fd5b505050506040513d601f19601f8201168201806040525081019061130b91906121f5565b61134a576040517f08c379a00000000000000000000000000000000000000000000000000000000081526004016113419061274e565b60405180910390fd5b3373ffffffffffffffffffffffffffffffffffffffff16847f7a482fdeb6bc9a1376f597068a214a7a39472bb2eff1b8cad21ba04f49ddca1b8360405161139191906116bd565b60405180910390a35b5080806001019150506111ad565b505b60018160040160006101000a81548160ff0219169083151502179055505050565b600160009054906101000a900473ffffffffffffffffffffffffffffffffffffffff1681565b6113f961153c565b73ffffffffffffffffffffffffffffffffffffffff16611417610db4565b73ffffffffffffffffffffffffffffffffffffffff16146114765761143a61153c565b6040517f118cdaa700000000000000000000000000000000000000000000000000000000815260040161146d9190611992565b60405180910390fd5b565b60008060009054906101000a900473ffffffffffffffffffffffffffffffffffffffff169050816000806101000a81548173ffffffffffffffffffffffffffffffffffffffff021916908373ffffffffffffffffffffffffffffffffffffffff1602179055508173ffffffffffffffffffffffffffffffffffffffff168173ffffffffffffffffffffffffffffffffffffffff167f8be0079c531659141344cd1fd0a4f28419497f9722a3daafe3b4186f6b6457e060405160405180910390a35050565b600033905090565b600080fd5b600080fd5b6000819050919050565b6115618161154e565b811461156c57600080fd5b50565b60008135905061157e81611558565b92915050565b6000806040838503121561159b5761159a611544565b5b60006115a98582860161156f565b92505060206115ba8582860161156f565b9150509250929050565b6000602082840312156115da576115d9611544565b5b60006115e88482850161156f565b91505092915050565b600073ffffffffffffffffffffffffffffffffffffffff82169050919050565b600061161c826115f1565b9050919050565b61162c81611611565b82525050565b61163b8161154e565b82525050565b60008115159050919050565b61165681611641565b82525050565b600060c0820190506116716000830189611623565b61167e6020830188611632565b61168b6040830187611632565b6116986060830186611632565b6116a5608083018561164d565b6116b260a0830184611632565b979650505050505050565b60006020820190506116d26000830184611632565b92915050565b60006116e3826115f1565b9050919050565b6116f3816116d8565b81146116fe57600080fd5b50565b600081359050611710816116ea565b92915050565b6000806040838503121561172d5761172c611544565b5b600061173b8582860161156f565b925050602061174c85828601611701565b9150509250929050565b60008060006060848603121561176f5761176e611544565b5b600061177d8682870161156f565b935050602061178e8682870161156f565b925050604061179f8682870161156f565b9150509250925092565b600080fd5b600080fd5b600080fd5b60008083601f8401126117ce576117cd6117a9565b5b8235905067ffffffffffffffff8111156117eb576117ea6117ae565b5b602083019150836001820283011115611807576118066117b3565b5b9250929050565b61181781611641565b811461182257600080fd5b50565b6000813590506118348161180e565b92915050565b6000806000806060858703121561185457611853611544565b5b60006118628782880161156f565b945050602085013567ffffffffffffffff81111561188357611882611549565b5b61188f878288016117b8565b935093505060406118a287828801611825565b91505092959194509250565b6118b7816116d8565b82525050565b600060c0820190506118d260008301896118ae565b6118df6020830188611632565b6118ec6040830187611632565b6118f96060830186611632565b611906608083018561164d565b61191360a0830184611632565b979650505050505050565b6000806000806060858703121561193857611937611544565b5b60006119468782880161156f565b94505060206119578782880161156f565b935050604085013567ffffffffffffffff81111561197857611977611549565b5b611984878288016117b8565b925092505092959194509250565b60006020820190506119a760008301846118ae565b92915050565b600081519050919050565b600082825260208201905092915050565b60005b838110156119e75780820151818401526020810190506119cc565b60008484015250505050565b6000601f19601f8301169050919050565b6000611a0f826119ad565b611a1981856119b8565b9350611a298185602086016119c9565b611a32816119f3565b840191505092915050565b60006020820190508181036000830152611a578184611a04565b905092915050565b600060208284031215611a7557611a74611544565b5b6000611a8384828501611701565b91505092915050565b6000819050919050565b6000611ab1611aac611aa7846115f1565b611a8c565b6115f1565b9050919050565b6000611ac382611a96565b9050919050565b6000611ad582611ab8565b9050919050565b611ae581611aca565b82525050565b6000602082019050611b006000830184611adc565b92915050565b7f476f616c20616d6f756e74206d7573742062652067726561746572207468616e60008201527f2030000000000000000000000000000000000000000000000000000000000000602082015250565b6000611b626022836119b8565b9150611b6d82611b06565b604082019050919050565b60006020820190508181036000830152611b9181611b55565b9050919050565b7f446561646c696e65206d75737420626520696e20746865206675747572650000600082015250565b6000611bce601e836119b8565b9150611bd982611b98565b602082019050919050565b60006020820190508181036000830152611bfd81611bc1565b9050919050565b6000604082019050611c196000830185611632565b611c266020830184611632565b9392505050565b7f4e487b7100000000000000000000000000000000000000000000000000000000600052601160045260246000fd5b6000611c678261154e565b91507fffffffffffffffffffffffffffffffffffffffffffffffffffffffffffffffff8203611c9957611c98611c2d565b5b600182019050919050565b7f4f6e6c792070726f6a6563742063726561746f722063616e2075706461746500600082015250565b6000611cda601f836119b8565b9150611ce582611ca4565b602082019050919050565b60006020820190508181036000830152611d0981611ccd565b9050919050565b7f50726f6a65637420697320616c726561647920636f6d706c6574656400000000600082015250565b6000611d46601c836119b8565b9150611d5182611d10565b602082019050919050565b60006020820190508181036000830152611d7581611d39565b9050919050565b7f4e6f2070726f677265737320746f207265766965770000000000000000000000600082015250565b6000611db26015836119b8565b9150611dbd82611d7c565b602082019050919050565b60006020820190508181036000830152611de181611da5565b9050919050565b600082905092915050565b7f4e487b7100000000000000000000000000000000000000000000000000000000600052604160045260246000fd5b7f4e487b7100000000000000000000000000000000000000000000000000000000600052602260045260246000fd5b60006002820490506001821680611e6957607f821691505b602082108103611e7c57611e7b611e22565b5b50919050565b60008190508160005260206000209050919050565b60006020601f8301049050919050565b600082821b905092915050565b600060088302611ee47fffffffffffffffffffffffffffffffffffffffffffffffffffffffffffffffff82611ea7565b611eee8683611ea7565b95508019841693508086168417925050509392505050565b6000611f21611f1c611f178461154e565b611a8c565b61154e565b9050919050565b6000819050919050565b611f3b83611f06565b611f4f611f4782611f28565b848454611eb4565b825550505050565b600090565b611f64611f57565b611f6f818484611f32565b505050565b5b81811015611f9357611f88600082611f5c565b600181019050611f75565b5050565b601f821115611fd857611fa981611e82565b611fb284611e97565b81016020851015611fc1578190505b611fd5611fcd85611e97565b830182611f74565b50505b505050565b600082821c905092915050565b6000611ffb60001984600802611fdd565b1980831691505092915050565b60006120148383611fea565b9150826002028217905092915050565b61202e8383611de8565b67ffffffffffffffff81111561204757612046611df3565b5b6120518254611e51565b61205c828285611f97565b6000601f83116001811461208b5760008415612079578287013590505b6120838582612008565b8655506120eb565b601f19841661209986611e82565b60005b828110156120c15784890135825560018201915060208501945060208101905061209c565b868310156120de57848901356120da601f891682611fea565b8355505b6001600288020188555050505b50505050505050565b60006120ff8261154e565b915061210a8361154e565b92508282026121188161154e565b9150828204841483151761212f5761212e611c2d565b5b5092915050565b7f4e487b7100000000000000000000000000000000000000000000000000000000600052601260045260246000fd5b60006121708261154e565b915061217b8361154e565b92508261218b5761218a612136565b5b828204905092915050565b60006121a182611ab8565b9050919050565b6121b181612196565b82525050565b60006040820190506121cc60008301856121a8565b6121d96020830184611632565b9392505050565b6000815190506121ef8161180e565b92915050565b60006020828403121561220b5761220a611544565b5b6000612219848285016121e0565b91505092915050565b7f546f6b656e207472616e73666572206661696c65640000000000000000000000600082015250565b60006122586015836119b8565b915061226382612222565b602082019050919050565b600060208201905081810360008301526122878161224b565b9050919050565b82818337600083830152505050565b60006122a983856119b8565b93506122b683858461228e565b6122bf836119f3565b840190509392505050565b600060408201905081810360008301526122e581858761229d565b90506122f4602083018461164d565b949350505050565b7f50726f6a6563742066756e64696e6720706572696f64206973206f7665720000600082015250565b6000612332601e836119b8565b915061233d826122fc565b602082019050919050565b6000602082019050818103600083015261236181612325565b9050919050565b7f416d6f756e74206d7573742062652067726561746572207468616e2030000000600082015250565b600061239e601d836119b8565b91506123a982612368565b602082019050919050565b600060208201905081810360008301526123cd81612391565b9050919050565b60006060820190506123e960008301866118ae565b6123f660208301856118ae565b6124036040830184611632565b949350505050565b60006124168261154e565b91506124218361154e565b925082820190508082111561243957612438611c2d565b5b92915050565b7f4f6e6c792070726f6a6563742063726561746f722063616e207570646174652060008201527f70726f6772657373000000000000000000000000000000000000000000000000602082015250565b600061249b6028836119b8565b91506124a68261243f565b604082019050919050565b600060208201905081810360008301526124ca8161248e565b9050919050565b7f496e76616c69642070726f67726573732076616c756500000000000000000000600082015250565b60006125076016836119b8565b9150612512826124d1565b602082019050919050565b60006020820190508181036000830152612536816124fa565b9050919050565b7f50726f6772657373206d7573742062652067726561746572207468616e20637560008201527f7272656e742070726f6772657373000000000000000000000000000000000000602082015250565b6000612599602e836119b8565b91506125a48261253d565b604082019050919050565b600060208201905081810360008301526125c88161258c565b9050919050565b60006040820190506125e46000830186611632565b81810360208301526125f781848661229d565b9050949350505050565b7f50726f6a656374206973207374696c6c206f6e676f696e670000000000000000600082015250565b60006126376018836119b8565b915061264282612601565b602082019050919050565b600060208201905081810360008301526126668161262a565b9050919050565b7f46756e647320616c726561647920646973747269627574656400000000000000600082015250565b60006126a36019836119b8565b91506126ae8261266d565b602082019050919050565b600060208201905081810360008301526126d281612696565b9050919050565b60006040820190506126ee60008301856118ae565b6126fb6020830184611632565b9392505050565b7f526566756e64207472616e73666572206661696c656400000000000000000000600082015250565b60006127386016836119b8565b915061274382612702565b602082019050919050565b600060208201905081810360008301526127678161272b565b905091905056fea2646970667358221220c2068e686c4a3f831936cc1d828e5354cb633ee0a9644ca60be799ca17a6a32164736f6c63430008180033",
  "devdoc": {
    "errors": {
      "OwnableInvalidOwner(address)": [
        {
          "details": "The owner is not a valid owner account. (eg. `address(0)`)"
        }
      ],
      "OwnableUnauthorizedAccount(address)": [
        {
          "details": "The caller account is not authorized to perform an operation."
        }
      ]
    },
    "kind": "dev",
    "methods": {
      "owner()": {
        "details": "Returns the address of the current owner."
      },
      "renounceOwnership()": {
        "details": "Leaves the contract without owner. It will not be possible to call `onlyOwner` functions. Can only be called by the current owner. NOTE: Renouncing ownership will leave the contract without an owner, thereby disabling any functionality that is only available to the owner."
      },
      "transferOwnership(address)": {
        "details": "Transfers ownership of the contract to a new account (`newOwner`). Can only be called by the current owner."
      }
    },
    "version": 1
  },
  "userdoc": {
    "kind": "user",
    "methods": {},
    "version": 1
  },
  "storageLayout": {
    "storage": [
      {
        "astId": 8,
        "contract": "contracts/SmartFrogFund.sol:FrogFund",
        "label": "_owner",
        "offset": 0,
        "slot": "0",
        "type": "t_address"
      },
      {
        "astId": 277,
        "contract": "contracts/SmartFrogFund.sol:FrogFund",
        "label": "token",
        "offset": 0,
        "slot": "1",
        "type": "t_contract(IERC20)225"
      },
      {
        "astId": 280,
        "contract": "contracts/SmartFrogFund.sol:FrogFund",
        "label": "projectCount",
        "offset": 0,
        "slot": "2",
        "type": "t_uint256"
      },
      {
        "astId": 285,
        "contract": "contracts/SmartFrogFund.sol:FrogFund",
        "label": "projects",
        "offset": 0,
        "slot": "3",
        "type": "t_mapping(t_uint256,t_struct(Project)274_storage)"
      },
      {
        "astId": 291,
        "contract": "contracts/SmartFrogFund.sol:FrogFund",
        "label": "contributions",
        "offset": 0,
        "slot": "4",
        "type": "t_mapping(t_uint256,t_mapping(t_address,t_uint256))"
      },
      {
        "astId": 295,
        "contract": "contracts/SmartFrogFund.sol:FrogFund",
        "label": "progressDetails",
        "offset": 0,
        "slot": "5",
        "type": "t_mapping(t_uint256,t_string_storage)"
      },
      {
        "astId": 299,
        "contract": "contracts/SmartFrogFund.sol:FrogFund",
        "label": "approvalComments",
        "offset": 0,
        "slot": "6",
        "type": "t_mapping(t_uint256,t_string_storage)"
      }
    ],
    "types": {
      "t_address": {
        "encoding": "inplace",
        "label": "address",
        "numberOfBytes": "20"
      },
      "t_address_payable": {
        "encoding": "inplace",
        "label": "address payable",
        "numberOfBytes": "20"
      },
      "t_bool": {
        "encoding": "inplace",
        "label": "bool",
        "numberOfBytes": "1"
      },
      "t_contract(IERC20)225": {
        "encoding": "inplace",
        "label": "contract IERC20",
        "numberOfBytes": "20"
      },
      "t_mapping(t_address,t_uint256)": {
        "encoding": "mapping",
        "key": "t_address",
        "label": "mapping(address => uint256)",
        "numberOfBytes": "32",
        "value": "t_uint256"
      },
      "t_mapping(t_uint256,t_mapping(t_address,t_uint256))": {
        "encoding": "mapping",
        "key": "t_uint256",
        "label": "mapping(uint256 => mapping(address => uint256))",
        "numberOfBytes": "32",
        "value": "t_mapping(t_address,t_uint256)"
      },
      "t_mapping(t_uint256,t_string_storage)": {
        "encoding": "mapping",
        "key": "t_uint256",
        "label": "mapping(uint256 => string)",
        "numberOfBytes": "32",
        "value": "t_string_storage"
      },
      "t_mapping(t_uint256,t_struct(Project)274_storage)": {
        "encoding": "mapping",
        "key": "t_uint256",
        "label": "mapping(uint256 => struct FrogFund.Project)",
        "numberOfBytes": "32",
        "value": "t_struct(Project)274_storage"
      },
      "t_string_storage": {
        "encoding": "bytes",
        "label": "string",
        "numberOfBytes": "32"
      },
      "t_struct(Project)274_storage": {
        "encoding": "inplace",
        "label": "struct FrogFund.Project",
        "members": [
          {
            "astId": 263,
            "contract": "contracts/SmartFrogFund.sol:FrogFund",
            "label": "creator",
            "offset": 0,
            "slot": "0",
            "type": "t_address_payable"
          },
          {
            "astId": 265,
            "contract": "contracts/SmartFrogFund.sol:FrogFund",
            "label": "goalAmount",
            "offset": 0,
            "slot": "1",
            "type": "t_uint256"
          },
          {
            "astId": 267,
            "contract": "contracts/SmartFrogFund.sol:FrogFund",
            "label": "currentAmount",
            "offset": 0,
            "slot": "2",
            "type": "t_uint256"
          },
          {
            "astId": 269,
            "contract": "contracts/SmartFrogFund.sol:FrogFund",
            "label": "deadline",
            "offset": 0,
            "slot": "3",
            "type": "t_uint256"
          },
          {
            "astId": 271,
            "contract": "contracts/SmartFrogFund.sol:FrogFund",
            "label": "completed",
            "offset": 0,
            "slot": "4",
            "type": "t_bool"
          },
          {
            "astId": 273,
            "contract": "contracts/SmartFrogFund.sol:FrogFund",
            "label": "currentProgress",
            "offset": 0,
            "slot": "5",
            "type": "t_uint256"
          }
        ],
        "numberOfBytes": "192"
      },
      "t_uint256": {
        "encoding": "inplace",
        "label": "uint256",
        "numberOfBytes": "32"
      }
    }
  }
}