{
  "address": "0x5FbDB2315678afecb367f032d93F642f64180aa3",
  "abi": [
    {
      "inputs": [
        {
          "internalType": "uint256",
          "name": "",
          "type": "uint256"
        }
      ],
      "name": "contracts",
      "outputs": [
        {
          "internalType": "contract RentalAgreement",
          "name": "",
          "type": "address"
        }
      ],
      "stateMutability": "view",
      "type": "function"
    },
    {
      "inputs": [
        {
          "internalType": "address",
          "name": "_tenant",
          "type": "address"
        },
        {
          "internalType": "uint256",
          "name": "_rent",
          "type": "uint256"
        },
        {
          "internalType": "uint256",
          "name": "_deposit",
          "type": "uint256"
        },
        {
          "internalType": "uint256",
          "name": "_leaseStart",
          "type": "uint256"
        },
        {
          "internalType": "uint256",
          "name": "_leaseEnd",
          "type": "uint256"
        },
        {
          "internalType": "uint256",
          "name": "_times",
          "type": "uint256"
        }
      ],
      "name": "createContract",
      "outputs": [
        {
          "internalType": "address",
          "name": "agreementAddress",
          "type": "address"
        }
      ],
      "stateMutability": "nonpayable",
      "type": "function"
    },
    {
      "inputs": [
        {
          "internalType": "uint256",
          "name": "index",
          "type": "uint256"
        }
      ],
      "name": "getContract",
      "outputs": [
        {
          "internalType": "contract RentalAgreement",
          "name": "",
          "type": "address"
        }
      ],
      "stateMutability": "view",
      "type": "function"
    }
  ],
  "transactionHash": "0xf9e4633e5a6815c72b8afae306816e4ed44df8a1c455e4ee1ff42831644d32c8",
  "args": [],
  "numDeployments": 1,
  "solcInputHash": "a82cbab55ac8b868b3e828b1f20f6ff4",
  "bytecode": "0x608060405234801561001057600080fd5b50611458806100206000396000f3fe60806040523480156200001157600080fd5b5060043610620000465760003560e01c8063474da79a146200004b5780636ebc8c861462000081578063c53bb67e14620000b7575b600080fd5b620000696004803603810190620000639190620003d4565b620000ed565b60405162000078919062000491565b60405180910390f35b6200009f6004803603810190620000999190620003d4565b6200012d565b604051620000ae919062000491565b60405180910390f35b620000d56004803603810190620000cf9190620004f3565b62000177565b604051620000e49190620005a0565b60405180910390f35b60008181548110620000fe57600080fd5b906000526020600020016000915054906101000a900473ffffffffffffffffffffffffffffffffffffffff1681565b6000808281548110620001455762000144620005bd565b5b9060005260206000200160009054906101000a900473ffffffffffffffffffffffffffffffffffffffff169050919050565b600080338888888888886040516200018f9062000386565b620001a19796959493929190620005fd565b604051809103906000f080158015620001be573d6000803e3d6000fd5b50905060008173ffffffffffffffffffffffffffffffffffffffff1663dc1997ea6040518163ffffffff1660e01b8152600401602060405180830381865afa1580156200020f573d6000803e3d6000fd5b505050506040513d601f19601f8201168201806040525081019062000235919062000691565b9050600160008a73ffffffffffffffffffffffffffffffffffffffff1673ffffffffffffffffffffffffffffffffffffffff168152602001908152602001600020829080600181540180825580915050600190039060005260206000200160009091909190916101000a81548173ffffffffffffffffffffffffffffffffffffffff021916908373ffffffffffffffffffffffffffffffffffffffff160217905550600160008273ffffffffffffffffffffffffffffffffffffffff1673ffffffffffffffffffffffffffffffffffffffff168152602001908152602001600020829080600181540180825580915050600190039060005260206000200160009091909190916101000a81548173ffffffffffffffffffffffffffffffffffffffff021916908373ffffffffffffffffffffffffffffffffffffffff16021790555081925050509695505050505050565b610d5f80620006c483390190565b600080fd5b6000819050919050565b620003ae8162000399565b8114620003ba57600080fd5b50565b600081359050620003ce81620003a3565b92915050565b600060208284031215620003ed57620003ec62000394565b5b6000620003fd84828501620003bd565b91505092915050565b600073ffffffffffffffffffffffffffffffffffffffff82169050919050565b6000819050919050565b6000620004516200044b620004458462000406565b62000426565b62000406565b9050919050565b6000620004658262000430565b9050919050565b6000620004798262000458565b9050919050565b6200048b816200046c565b82525050565b6000602082019050620004a8600083018462000480565b92915050565b6000620004bb8262000406565b9050919050565b620004cd81620004ae565b8114620004d957600080fd5b50565b600081359050620004ed81620004c2565b92915050565b60008060008060008060c0878903121562000513576200051262000394565b5b60006200052389828a01620004dc565b96505060206200053689828a01620003bd565b95505060406200054989828a01620003bd565b94505060606200055c89828a01620003bd565b93505060806200056f89828a01620003bd565b92505060a06200058289828a01620003bd565b9150509295509295509295565b6200059a81620004ae565b82525050565b6000602082019050620005b760008301846200058f565b92915050565b7f4e487b7100000000000000000000000000000000000000000000000000000000600052603260045260246000fd5b620005f78162000399565b82525050565b600060e08201905062000614600083018a6200058f565b6200062360208301896200058f565b620006326040830188620005ec565b620006416060830187620005ec565b620006506080830186620005ec565b6200065f60a0830185620005ec565b6200066e60c0830184620005ec565b98975050505050505050565b6000815190506200068b81620004c2565b92915050565b600060208284031215620006aa57620006a962000394565b5b6000620006ba848285016200067a565b9150509291505056fe60806040523480156200001157600080fd5b5060405162000d5f38038062000d5f8339818101604052810190620000379190620001bb565b86600060016101000a81548173ffffffffffffffffffffffffffffffffffffffff021916908373ffffffffffffffffffffffffffffffffffffffff16021790555085600160006101000a81548173ffffffffffffffffffffffffffffffffffffffff021916908373ffffffffffffffffffffffffffffffffffffffff160217905550846002819055508360038190555082600481905550816005819055508060068190555060008060006101000a81548160ff021916908360018111156200010457620001036200026e565b5b0217905550505050505050506200029d565b600080fd5b600073ffffffffffffffffffffffffffffffffffffffff82169050919050565b600062000148826200011b565b9050919050565b6200015a816200013b565b81146200016657600080fd5b50565b6000815190506200017a816200014f565b92915050565b6000819050919050565b620001958162000180565b8114620001a157600080fd5b50565b600081519050620001b5816200018a565b92915050565b600080600080600080600060e0888a031215620001dd57620001dc62000116565b5b6000620001ed8a828b0162000169565b9750506020620002008a828b0162000169565b9650506040620002138a828b01620001a4565b9550506060620002268a828b01620001a4565b9450506080620002398a828b01620001a4565b93505060a06200024c8a828b01620001a4565b92505060c06200025f8a828b01620001a4565b91505092959891949750929550565b7f4e487b7100000000000000000000000000000000000000000000000000000000600052602160045260246000fd5b610ab280620002ad6000396000f3fe6080604052600436106100915760003560e01c80639e3b34bf116100595780639e3b34bf1461014c578063a709c4fe14610177578063adf0779114610181578063d0e30db0146101ac578063dc1997ea146101d757610091565b80630cc63ea414610096578063200d2ed2146100c15780637e88f603146100ec57806382996d9f146100f657806387822b6214610121575b600080fd5b3480156100a257600080fd5b506100ab610202565b6040516100b8919061063c565b60405180910390f35b3480156100cd57600080fd5b506100d6610208565b6040516100e391906106ce565b60405180910390f35b6100f4610219565b005b34801561010257600080fd5b5061010b61037b565b604051610118919061063c565b60405180910390f35b34801561012d57600080fd5b50610136610381565b604051610143919061063c565b60405180910390f35b34801561015857600080fd5b50610161610387565b60405161016e919061063c565b60405180910390f35b61017f61038d565b005b34801561018d57600080fd5b506101966105d1565b6040516101a3919061072a565b60405180910390f35b3480156101b857600080fd5b506101c16105f7565b6040516101ce919061063c565b60405180910390f35b3480156101e357600080fd5b506101ec6105fd565b6040516101f9919061072a565b60405180910390f35b60055481565b60008054906101000a900460ff1681565b600060019054906101000a900473ffffffffffffffffffffffffffffffffffffffff1673ffffffffffffffffffffffffffffffffffffffff163373ffffffffffffffffffffffffffffffffffffffff16146102a9576040517f08c379a00000000000000000000000000000000000000000000000000000000081526004016102a0906107a2565b60405180910390fd5b60008060019054906101000a900473ffffffffffffffffffffffffffffffffffffffff1673ffffffffffffffffffffffffffffffffffffffff166003546040516102f2906107f3565b60006040518083038185875af1925050503d806000811461032f576040519150601f19603f3d011682016040523d82523d6000602084013e610334565b606091505b5050905080610378576040517f08c379a000000000000000000000000000000000000000000000000000000000815260040161036f90610854565b60405180910390fd5b50565b60025481565b60045481565b60065481565b600160009054906101000a900473ffffffffffffffffffffffffffffffffffffffff1673ffffffffffffffffffffffffffffffffffffffff163373ffffffffffffffffffffffffffffffffffffffff161461041d576040517f08c379a0000000000000000000000000000000000000000000000000000000008152600401610414906108c0565b60405180910390fd5b6002543414610461576040517f08c379a00000000000000000000000000000000000000000000000000000000081526004016104589061092c565b60405180910390fd5b600454421015801561047557506005544211155b6104b4576040517f08c379a00000000000000000000000000000000000000000000000000000000081526004016104ab90610998565b60405180910390fd5b60008060019054906101000a900473ffffffffffffffffffffffffffffffffffffffff1673ffffffffffffffffffffffffffffffffffffffff16346040516104fb906107f3565b60006040518083038185875af1925050503d8060008114610538576040519150601f19603f3d011682016040523d82523d6000602084013e61053d565b606091505b5050905080610581576040517f08c379a000000000000000000000000000000000000000000000000000000000815260040161057890610a04565b60405180910390fd5b6006600081548092919061059490610a53565b91905055506000600654036105ce5760016000806101000a81548160ff021916908360018111156105c8576105c7610657565b5b02179055505b50565b600160009054906101000a900473ffffffffffffffffffffffffffffffffffffffff1681565b60035481565b600060019054906101000a900473ffffffffffffffffffffffffffffffffffffffff1681565b6000819050919050565b61063681610623565b82525050565b6000602082019050610651600083018461062d565b92915050565b7f4e487b7100000000000000000000000000000000000000000000000000000000600052602160045260246000fd5b6002811061069757610696610657565b5b50565b60008190506106a882610686565b919050565b60006106b88261069a565b9050919050565b6106c8816106ad565b82525050565b60006020820190506106e360008301846106bf565b92915050565b600073ffffffffffffffffffffffffffffffffffffffff82169050919050565b6000610714826106e9565b9050919050565b61072481610709565b82525050565b600060208201905061073f600083018461071b565b92915050565b600082825260208201905092915050565b7f4f6e6c79206c616e646c6f72642063616e2072657475726e206465706f736974600082015250565b600061078c602083610745565b915061079782610756565b602082019050919050565b600060208201905081810360008301526107bb8161077f565b9050919050565b600081905092915050565b50565b60006107dd6000836107c2565b91506107e8826107cd565b600082019050919050565b60006107fe826107d0565b9150819050919050565b7f4661696c20746f2072657475726e206465706f73697400000000000000000000600082015250565b600061083e601683610745565b915061084982610808565b602082019050919050565b6000602082019050818103600083015261086d81610831565b9050919050565b7f4f6e6c792074656e616e742063616e207061792072656e740000000000000000600082015250565b60006108aa601883610745565b91506108b582610874565b602082019050919050565b600060208201905081810360008301526108d98161089d565b9050919050565b7f52656e7420616d6f756e7420697320696e636f72726563740000000000000000600082015250565b6000610916601883610745565b9150610921826108e0565b602082019050919050565b6000602082019050818103600083015261094581610909565b9050919050565b7f4c65617365206e6f742061637469766500000000000000000000000000000000600082015250565b6000610982601083610745565b915061098d8261094c565b602082019050919050565b600060208201905081810360008301526109b181610975565b9050919050565b7f4661696c656420746f2073656e64204574686572000000000000000000000000600082015250565b60006109ee601483610745565b91506109f9826109b8565b602082019050919050565b60006020820190508181036000830152610a1d816109e1565b9050919050565b7f4e487b7100000000000000000000000000000000000000000000000000000000600052601160045260246000fd5b6000610a5e82610623565b915060008203610a7157610a70610a24565b5b60018203905091905056fea2646970667358221220ee6c6448d8fd24d1d9b7c6bb67576205058db45664cb757f667b99f64b87091e64736f6c63430008180033a2646970667358221220f6eb8429f8a9821aa9ee268f6a6a6d8e0f34d3fba33c3fd769f0569bf98a730464736f6c63430008180033",
  "devdoc": {
    "kind": "dev",
    "methods": {},
    "version": 1
  },
  "userdoc": {
    "kind": "user",
    "methods": {},
    "version": 1
  },
  "storageLayout": {
    "storage": [
      {
        "astId": 792,
        "contract": "contracts/AgreementFactory.sol:ContractFactory",
        "label": "contracts",
        "offset": 0,
        "slot": "0",
        "type": "t_array(t_contract(RentalAgreement)1070)dyn_storage"
      },
      {
        "astId": 797,
        "contract": "contracts/AgreementFactory.sol:ContractFactory",
        "label": "contractMap",
        "offset": 0,
        "slot": "1",
        "type": "t_mapping(t_address,t_array(t_address)dyn_storage)"
      }
    ],
    "types": {
      "t_address": {
        "encoding": "inplace",
        "label": "address",
        "numberOfBytes": "20"
      },
      "t_array(t_address)dyn_storage": {
        "base": "t_address",
        "encoding": "dynamic_array",
        "label": "address[]",
        "numberOfBytes": "32"
      },
      "t_array(t_contract(RentalAgreement)1070)dyn_storage": {
        "base": "t_contract(RentalAgreement)1070",
        "encoding": "dynamic_array",
        "label": "contract RentalAgreement[]",
        "numberOfBytes": "32"
      },
      "t_contract(RentalAgreement)1070": {
        "encoding": "inplace",
        "label": "contract RentalAgreement",
        "numberOfBytes": "20"
      },
      "t_mapping(t_address,t_array(t_address)dyn_storage)": {
        "encoding": "mapping",
        "key": "t_address",
        "label": "mapping(address => address[])",
        "numberOfBytes": "32",
        "value": "t_array(t_address)dyn_storage"
      }
    }
  }
}