{
  "address": "0x9fE46736679d2D9a65F0992F2272dE9f3c7fa6e0",
  "abi": [
    {
      "inputs": [
        {
          "internalType": "address",
          "name": "_tokenAddress",
          "type": "address"
        }
      ],
      "stateMutability": "nonpayable",
      "type": "constructor"
    },
    {
      "inputs": [
        {
          "internalType": "address",
          "name": "owner",
          "type": "address"
        }
      ],
      "name": "OwnableInvalidOwner",
      "type": "error"
    },
    {
      "inputs": [
        {
          "internalType": "address",
          "name": "account",
          "type": "address"
        }
      ],
      "name": "OwnableUnauthorizedAccount",
      "type": "error"
    },
    {
      "anonymous": false,
      "inputs": [
        {
          "indexed": true,
          "internalType": "uint256",
          "name": "projectId",
          "type": "uint256"
        },
        {
          "indexed": false,
          "internalType": "uint256",
          "name": "amount",
          "type": "uint256"
        },
        {
          "indexed": false,
          "internalType": "bool",
          "name": "isEth",
          "type": "bool"
        }
      ],
      "name": "FundsDistributed",
      "type": "event"
    },
    {
      "anonymous": false,
      "inputs": [
        {
          "indexed": true,
          "internalType": "address",
          "name": "previousOwner",
          "type": "address"
        },
        {
          "indexed": true,
          "internalType": "address",
          "name": "newOwner",
          "type": "address"
        }
      ],
      "name": "OwnershipTransferred",
      "type": "event"
    },
    {
      "anonymous": false,
      "inputs": [
        {
          "indexed": true,
          "internalType": "uint256",
          "name": "projectId",
          "type": "uint256"
        },
        {
          "indexed": false,
          "internalType": "string",
          "name": "comment",
          "type": "string"
        },
        {
          "indexed": false,
          "internalType": "bool",
          "name": "approved",
          "type": "bool"
        }
      ],
      "name": "ProgressReviewed",
      "type": "event"
    },
    {
      "anonymous": false,
      "inputs": [
        {
          "indexed": true,
          "internalType": "uint256",
          "name": "projectId",
          "type": "uint256"
        },
        {
          "indexed": false,
          "internalType": "uint256",
          "name": "progress",
          "type": "uint256"
        },
        {
          "indexed": false,
          "internalType": "string",
          "name": "details",
          "type": "string"
        }
      ],
      "name": "ProgressUpdated",
      "type": "event"
    },
    {
      "anonymous": false,
      "inputs": [
        {
          "indexed": true,
          "internalType": "uint256",
          "name": "projectId",
          "type": "uint256"
        },
        {
          "indexed": true,
          "internalType": "address",
          "name": "creator",
          "type": "address"
        },
        {
          "indexed": false,
          "internalType": "uint256",
          "name": "goalAmount",
          "type": "uint256"
        },
        {
          "indexed": false,
          "internalType": "uint256",
          "name": "deadline",
          "type": "uint256"
        }
      ],
      "name": "ProjectCreated",
      "type": "event"
    },
    {
      "anonymous": false,
      "inputs": [
        {
          "indexed": true,
          "internalType": "uint256",
          "name": "projectId",
          "type": "uint256"
        },
        {
          "indexed": true,
          "internalType": "address",
          "name": "supporter",
          "type": "address"
        },
        {
          "indexed": false,
          "internalType": "uint256",
          "name": "amount",
          "type": "uint256"
        },
        {
          "indexed": false,
          "internalType": "bool",
          "name": "isEth",
          "type": "bool"
        }
      ],
      "name": "ProjectFunded",
      "type": "event"
    },
    {
      "anonymous": false,
      "inputs": [
        {
          "indexed": true,
          "internalType": "uint256",
          "name": "projectId",
          "type": "uint256"
        },
        {
          "indexed": true,
          "internalType": "address",
          "name": "supporter",
          "type": "address"
        },
        {
          "indexed": false,
          "internalType": "uint256",
          "name": "amount",
          "type": "uint256"
        },
        {
          "indexed": false,
          "internalType": "bool",
          "name": "isEth",
          "type": "bool"
        }
      ],
      "name": "RefundIssued",
      "type": "event"
    },
    {
      "inputs": [
        {
          "internalType": "uint256",
          "name": "",
          "type": "uint256"
        }
      ],
      "name": "approvalComments",
      "outputs": [
        {
          "internalType": "string",
          "name": "",
          "type": "string"
        }
      ],
      "stateMutability": "view",
      "type": "function"
    },
    {
      "inputs": [
        {
          "internalType": "uint256",
          "name": "",
          "type": "uint256"
        },
        {
          "internalType": "address",
          "name": "",
          "type": "address"
        }
      ],
      "name": "contributions",
      "outputs": [
        {
          "internalType": "uint256",
          "name": "",
          "type": "uint256"
        }
      ],
      "stateMutability": "view",
      "type": "function"
    },
    {
      "inputs": [
        {
          "internalType": "string",
          "name": "_title",
          "type": "string"
        },
        {
          "internalType": "string",
          "name": "_description",
          "type": "string"
        },
        {
          "internalType": "string",
          "name": "_link",
          "type": "string"
        },
        {
          "internalType": "uint256",
          "name": "_goalAmount",
          "type": "uint256"
        },
        {
          "internalType": "uint256",
          "name": "_deadline",
          "type": "uint256"
        }
      ],
      "name": "createProject",
      "outputs": [],
      "stateMutability": "nonpayable",
      "type": "function"
    },
    {
      "inputs": [
        {
          "internalType": "address",
          "name": "",
          "type": "address"
        }
      ],
      "name": "creatorBalances",
      "outputs": [
        {
          "internalType": "uint256",
          "name": "",
          "type": "uint256"
        }
      ],
      "stateMutability": "view",
      "type": "function"
    },
    {
      "inputs": [
        {
          "internalType": "address",
          "name": "",
          "type": "address"
        }
      ],
      "name": "creatorEthBalances",
      "outputs": [
        {
          "internalType": "uint256",
          "name": "",
          "type": "uint256"
        }
      ],
      "stateMutability": "view",
      "type": "function"
    },
    {
      "inputs": [
        {
          "internalType": "uint256",
          "name": "_projectId",
          "type": "uint256"
        }
      ],
      "name": "distributeFunds",
      "outputs": [],
      "stateMutability": "nonpayable",
      "type": "function"
    },
    {
      "inputs": [
        {
          "internalType": "uint256",
          "name": "",
          "type": "uint256"
        },
        {
          "internalType": "address",
          "name": "",
          "type": "address"
        }
      ],
      "name": "ethContributions",
      "outputs": [
        {
          "internalType": "uint256",
          "name": "",
          "type": "uint256"
        }
      ],
      "stateMutability": "view",
      "type": "function"
    },
    {
      "inputs": [
        {
          "internalType": "address",
          "name": "_creator",
          "type": "address"
        }
      ],
      "name": "getCreatorBalance",
      "outputs": [
        {
          "internalType": "uint256",
          "name": "",
          "type": "uint256"
        }
      ],
      "stateMutability": "view",
      "type": "function"
    },
    {
      "inputs": [
        {
          "internalType": "address",
          "name": "_creator",
          "type": "address"
        }
      ],
      "name": "getCreatorEthBalance",
      "outputs": [
        {
          "internalType": "uint256",
          "name": "",
          "type": "uint256"
        }
      ],
      "stateMutability": "view",
      "type": "function"
    },
    {
      "inputs": [
        {
          "internalType": "address",
          "name": "_user",
          "type": "address"
        }
      ],
      "name": "getPlatformBalance",
      "outputs": [
        {
          "internalType": "uint256",
          "name": "",
          "type": "uint256"
        }
      ],
      "stateMutability": "view",
      "type": "function"
    },
    {
      "inputs": [
        {
          "internalType": "uint256",
          "name": "_projectId",
          "type": "uint256"
        }
      ],
      "name": "getProjectDetails",
      "outputs": [
        {
          "internalType": "address",
          "name": "",
          "type": "address"
        },
        {
          "internalType": "uint256",
          "name": "",
          "type": "uint256"
        },
        {
          "internalType": "uint256",
          "name": "",
          "type": "uint256"
        },
        {
          "internalType": "uint256",
          "name": "",
          "type": "uint256"
        },
        {
          "internalType": "bool",
          "name": "",
          "type": "bool"
        },
        {
          "internalType": "uint256",
          "name": "",
          "type": "uint256"
        }
      ],
      "stateMutability": "view",
      "type": "function"
    },
    {
      "inputs": [],
      "name": "owner",
      "outputs": [
        {
          "internalType": "address",
          "name": "",
          "type": "address"
        }
      ],
      "stateMutability": "view",
      "type": "function"
    },
    {
      "inputs": [
        {
          "internalType": "uint256",
          "name": "",
          "type": "uint256"
        }
      ],
      "name": "progressDetails",
      "outputs": [
        {
          "internalType": "string",
          "name": "",
          "type": "string"
        }
      ],
      "stateMutability": "view",
      "type": "function"
    },
    {
      "inputs": [],
      "name": "projectCount",
      "outputs": [
        {
          "internalType": "uint256",
          "name": "",
          "type": "uint256"
        }
      ],
      "stateMutability": "view",
      "type": "function"
    },
    {
      "inputs": [
        {
          "internalType": "uint256",
          "name": "",
          "type": "uint256"
        }
      ],
      "name": "projects",
      "outputs": [
        {
          "internalType": "address payable",
          "name": "creator",
          "type": "address"
        },
        {
          "internalType": "string",
          "name": "title",
          "type": "string"
        },
        {
          "internalType": "string",
          "name": "description",
          "type": "string"
        },
        {
          "internalType": "string",
          "name": "link",
          "type": "string"
        },
        {
          "internalType": "uint256",
          "name": "goalAmount",
          "type": "uint256"
        },
        {
          "internalType": "uint256",
          "name": "currentAmount",
          "type": "uint256"
        },
        {
          "internalType": "uint256",
          "name": "deadline",
          "type": "uint256"
        },
        {
          "internalType": "bool",
          "name": "completed",
          "type": "bool"
        },
        {
          "internalType": "uint256",
          "name": "currentProgress",
          "type": "uint256"
        }
      ],
      "stateMutability": "view",
      "type": "function"
    },
    {
      "inputs": [],
      "name": "renounceOwnership",
      "outputs": [],
      "stateMutability": "nonpayable",
      "type": "function"
    },
    {
      "inputs": [
        {
          "internalType": "uint256",
          "name": "_projectId",
          "type": "uint256"
        },
        {
          "internalType": "string",
          "name": "_comment",
          "type": "string"
        },
        {
          "internalType": "bool",
          "name": "_approved",
          "type": "bool"
        }
      ],
      "name": "reviewProgress",
      "outputs": [],
      "stateMutability": "nonpayable",
      "type": "function"
    },
    {
      "inputs": [
        {
          "internalType": "uint256",
          "name": "_projectId",
          "type": "uint256"
        }
      ],
      "name": "supportProjectWithEth",
      "outputs": [],
      "stateMutability": "payable",
      "type": "function"
    },
    {
      "inputs": [
        {
          "internalType": "uint256",
          "name": "_projectId",
          "type": "uint256"
        },
        {
          "internalType": "uint256",
          "name": "_amount",
          "type": "uint256"
        }
      ],
      "name": "supportProjectWithToken",
      "outputs": [],
      "stateMutability": "nonpayable",
      "type": "function"
    },
    {
      "inputs": [],
      "name": "token",
      "outputs": [
        {
          "internalType": "contract IERC20",
          "name": "",
          "type": "address"
        }
      ],
      "stateMutability": "view",
      "type": "function"
    },
    {
      "inputs": [
        {
          "internalType": "address",
          "name": "newOwner",
          "type": "address"
        }
      ],
      "name": "transferOwnership",
      "outputs": [],
      "stateMutability": "nonpayable",
      "type": "function"
    },
    {
      "inputs": [
        {
          "internalType": "uint256",
          "name": "_projectId",
          "type": "uint256"
        },
        {
          "internalType": "uint256",
          "name": "_progress",
          "type": "uint256"
        },
        {
          "internalType": "string",
          "name": "_details",
          "type": "string"
        }
      ],
      "name": "updateProgress",
      "outputs": [],
      "stateMutability": "nonpayable",
      "type": "function"
    },
    {
      "inputs": [
        {
          "internalType": "uint256",
          "name": "_projectId",
          "type": "uint256"
        },
        {
          "internalType": "uint256",
          "name": "_newGoalAmount",
          "type": "uint256"
        },
        {
          "internalType": "uint256",
          "name": "_newDeadline",
          "type": "uint256"
        }
      ],
      "name": "updateProject",
      "outputs": [],
      "stateMutability": "nonpayable",
      "type": "function"
    }
  ],
  "transactionHash": "0xfc78c9ce848cf24a3d62eff0bab03f83ea5e2bee09acc09a2d424aaac23ba655",
  "args": [
    "0x2ac0b31bcf6091c139e5a5e968434bcd5dcc63e8"
  ],
  "numDeployments": 1,
  "solcInputHash": "bdb5ea20901e7a6fabcd44ef0aa51d7d",
  "bytecode": "0x608060405260006002553480156200001657600080fd5b5060405162003b4138038062003b4183398181016040528101906200003c9190620003b7565b33600073ffffffffffffffffffffffffffffffffffffffff168173ffffffffffffffffffffffffffffffffffffffff1603620000b25760006040517f1e4fbdf7000000000000000000000000000000000000000000000000000000008152600401620000a99190620003fa565b60405180910390fd5b620000c3816200011d60201b60201c565b5080600160006101000a81548173ffffffffffffffffffffffffffffffffffffffff021916908373ffffffffffffffffffffffffffffffffffffffff1602179055506200011633620001e160201b60201c565b5062000417565b60008060009054906101000a900473ffffffffffffffffffffffffffffffffffffffff169050816000806101000a81548173ffffffffffffffffffffffffffffffffffffffff021916908373ffffffffffffffffffffffffffffffffffffffff1602179055508173ffffffffffffffffffffffffffffffffffffffff168173ffffffffffffffffffffffffffffffffffffffff167f8be0079c531659141344cd1fd0a4f28419497f9722a3daafe3b4186f6b6457e060405160405180910390a35050565b620001f16200027a60201b60201c565b600073ffffffffffffffffffffffffffffffffffffffff168173ffffffffffffffffffffffffffffffffffffffff1603620002665760006040517f1e4fbdf70000000000000000000000000000000000000000000000000000000081526004016200025d9190620003fa565b60405180910390fd5b62000277816200011d60201b60201c565b50565b6200028a6200031c60201b60201c565b73ffffffffffffffffffffffffffffffffffffffff16620002b06200032460201b60201c565b73ffffffffffffffffffffffffffffffffffffffff16146200031a57620002dc6200031c60201b60201c565b6040517f118cdaa7000000000000000000000000000000000000000000000000000000008152600401620003119190620003fa565b60405180910390fd5b565b600033905090565b60008060009054906101000a900473ffffffffffffffffffffffffffffffffffffffff16905090565b600080fd5b600073ffffffffffffffffffffffffffffffffffffffff82169050919050565b60006200037f8262000352565b9050919050565b620003918162000372565b81146200039d57600080fd5b50565b600081519050620003b18162000386565b92915050565b600060208284031215620003d057620003cf6200034d565b5b6000620003e084828501620003a0565b91505092915050565b620003f48162000372565b82525050565b6000602082019050620004116000830184620003e9565b92915050565b61371a80620004276000396000f3fe6080604052600436106101405760003560e01c80635f8439e3116100b6578063bbbf146a1161006f578063bbbf146a146104a4578063c859b0a5146104cd578063d5f2cf051461050a578063f2fde38b14610547578063f726f71514610570578063fc0c546a1461059957610140565b80635f8439e31461037d5780636a78c833146103bf578063715018a6146103fc5780637a25f100146104135780638da5cb5b1461043c578063ac06d9e21461046757610140565b80633170ee1d116101085780633170ee1d1461024957806336fbad26146102865780633d891f59146102b15780635955eb15146102ee57806359d58e75146103175780635b3259681461034057610140565b8063056c29ee1461014557806309cf7ffc1461016e578063107046bd146101ab5780631b5d5f81146101f05780632a7828021461020c575b600080fd5b34801561015157600080fd5b5061016c60048036038101906101679190612301565b6105c4565b005b34801561017a57600080fd5b506101956004803603810190610190919061242e565b610800565b6040516101a2919061246a565b60405180910390f35b3480156101b757600080fd5b506101d260048036038101906101cd9190612485565b610849565b6040516101e79998979695949392919061256d565b60405180910390f35b61020a60048036038101906102059190612485565b610a5c565b005b34801561021857600080fd5b50610233600480360381019061022e919061242e565b610bd4565b604051610240919061246a565b60405180910390f35b34801561025557600080fd5b50610270600480360381019061026b919061242e565b610bec565b60405161027d919061246a565b60405180910390f35b34801561029257600080fd5b5061029b610ce0565b6040516102a8919061246a565b60405180910390f35b3480156102bd57600080fd5b506102d860048036038101906102d3919061260f565b610ce6565b6040516102e5919061246a565b60405180910390f35b3480156102fa57600080fd5b506103156004803603810190610310919061264f565b610d0b565b005b34801561032357600080fd5b5061033e6004803603810190610339919061272e565b610e31565b005b34801561034c57600080fd5b506103676004803603810190610362919061242e565b6110fa565b604051610374919061246a565b60405180910390f35b34801561038957600080fd5b506103a4600480360381019061039f9190612485565b611112565b6040516103b6969594939291906127b1565b60405180910390f35b3480156103cb57600080fd5b506103e660048036038101906103e1919061242e565b611193565b6040516103f3919061246a565b60405180910390f35b34801561040857600080fd5b506104116111dc565b005b34801561041f57600080fd5b5061043a60048036038101906104359190612812565b6111f0565b005b34801561044857600080fd5b506104516113b2565b60405161045e9190612886565b60405180910390f35b34801561047357600080fd5b5061048e60048036038101906104899190612485565b6113db565b60405161049b91906128a1565b60405180910390f35b3480156104b057600080fd5b506104cb60048036038101906104c691906128c3565b61147b565b005b3480156104d957600080fd5b506104f460048036038101906104ef9190612485565b6116d5565b60405161050191906128a1565b60405180910390f35b34801561051657600080fd5b50610531600480360381019061052c919061260f565b611775565b60405161053e919061246a565b60405180910390f35b34801561055357600080fd5b5061056e6004803603810190610569919061242e565b61179a565b005b34801561057c57600080fd5b5061059760048036038101906105929190612485565b611820565b005b3480156105a557600080fd5b506105ae611ff8565b6040516105bb9190612962565b60405180910390f35b60008211610607576040517f08c379a00000000000000000000000000000000000000000000000000000000081526004016105fe906129ef565b60405180910390fd5b428111610649576040517f08c379a000000000000000000000000000000000000000000000000000000000815260040161064090612a5b565b60405180910390fd5b6040518061012001604052803373ffffffffffffffffffffffffffffffffffffffff16815260200186815260200185815260200184815260200183815260200160008152602001828152602001600015158152602001600081525060036000600254815260200190815260200160002060008201518160000160006101000a81548173ffffffffffffffffffffffffffffffffffffffff021916908373ffffffffffffffffffffffffffffffffffffffff16021790555060208201518160010190816107159190612c7d565b50604082015181600201908161072b9190612c7d565b5060608201518160030190816107419190612c7d565b506080820151816004015560a0820151816005015560c0820151816006015560e08201518160070160006101000a81548160ff02191690831515021790555061010082015181600801559050503373ffffffffffffffffffffffffffffffffffffffff166002547fb5d890eb2df709d2f732ed81f328b444e49c1618ed8d64c53c0a040ec4040e1e84846040516107d9929190612d4f565b60405180910390a3600260008154809291906107f490612da7565b91905055505050505050565b6000600860008373ffffffffffffffffffffffffffffffffffffffff1673ffffffffffffffffffffffffffffffffffffffff168152602001908152602001600020549050919050565b60036020528060005260406000206000915090508060000160009054906101000a900473ffffffffffffffffffffffffffffffffffffffff169080600101805461089290612aaa565b80601f01602080910402602001604051908101604052809291908181526020018280546108be90612aaa565b801561090b5780601f106108e05761010080835404028352916020019161090b565b820191906000526020600020905b8154815290600101906020018083116108ee57829003601f168201915b50505050509080600201805461092090612aaa565b80601f016020809104026020016040519081016040528092919081815260200182805461094c90612aaa565b80156109995780601f1061096e57610100808354040283529160200191610999565b820191906000526020600020905b81548152906001019060200180831161097c57829003601f168201915b5050505050908060030180546109ae90612aaa565b80601f01602080910402602001604051908101604052809291908181526020018280546109da90612aaa565b8015610a275780601f106109fc57610100808354040283529160200191610a27565b820191906000526020600020905b815481529060010190602001808311610a0a57829003601f168201915b5050505050908060040154908060050154908060060154908060070160009054906101000a900460ff16908060080154905089565b600060036000838152602001908152602001600020905080600601544210610ab9576040517f08c379a0000000000000000000000000000000000000000000000000000000008152600401610ab090612e3b565b60405180910390fd5b60003411610afc576040517f08c379a0000000000000000000000000000000000000000000000000000000008152600401610af390612ea7565b60405180910390fd5b34816005016000828254610b109190612ec7565b92505081905550346005600084815260200190815260200160002060003373ffffffffffffffffffffffffffffffffffffffff1673ffffffffffffffffffffffffffffffffffffffff1681526020019081526020016000206000828254610b779190612ec7565b925050819055503373ffffffffffffffffffffffffffffffffffffffff16827f296213327784aed1db3e4aef381db3aa91efdaf000bf7527e0de40be86a21f9f346001604051610bc8929190612efb565b60405180910390a35050565b60086020528060005260406000206000915090505481565b600080600090506000805b600254811015610cca576004600082815260200190815260200160002060008673ffffffffffffffffffffffffffffffffffffffff1673ffffffffffffffffffffffffffffffffffffffff1681526020019081526020016000205483610c5d9190612ec7565b92506005600082815260200190815260200160002060008673ffffffffffffffffffffffffffffffffffffffff1673ffffffffffffffffffffffffffffffffffffffff1681526020019081526020016000205482610cbb9190612ec7565b91508080600101915050610bf7565b508082610cd79190612ec7565b92505050919050565b60025481565b6004602052816000526040600020602052806000526040600020600091509150505481565b60006003600085815260200190815260200160002090508060000160009054906101000a900473ffffffffffffffffffffffffffffffffffffffff1673ffffffffffffffffffffffffffffffffffffffff163373ffffffffffffffffffffffffffffffffffffffff1614610db4576040517f08c379a0000000000000000000000000000000000000000000000000000000008152600401610dab90612f70565b60405180910390fd5b8060070160009054906101000a900460ff1615610e06576040517f08c379a0000000000000000000000000000000000000000000000000000000008152600401610dfd90612fdc565b60405180910390fd5b6000831115610e19578281600401819055505b42821115610e2b578181600601819055505b50505050565b610e3961201e565b60006003600086815260200190815260200160002090506000816008015411610e97576040517f08c379a0000000000000000000000000000000000000000000000000000000008152600401610e8e90613048565b60405180910390fd5b8383600760008881526020019081526020016000209182610eb9929190613073565b5081156110ac576000606482600801548360040154610ed89190613143565b610ee291906131b4565b905060008111156110a657600160009054906101000a900473ffffffffffffffffffffffffffffffffffffffff1673ffffffffffffffffffffffffffffffffffffffff1663a9059cbb8360000160009054906101000a900473ffffffffffffffffffffffffffffffffffffffff16836040518363ffffffff1660e01b8152600401610f6e929190613206565b6020604051808303816000875af1158015610f8d573d6000803e3d6000fd5b505050506040513d601f19601f82011682018060405250810190610fb19190613244565b610ff0576040517f08c379a0000000000000000000000000000000000000000000000000000000008152600401610fe7906132bd565b60405180910390fd5b80600860008460000160009054906101000a900473ffffffffffffffffffffffffffffffffffffffff1673ffffffffffffffffffffffffffffffffffffffff1673ffffffffffffffffffffffffffffffffffffffff16815260200190815260200160002060008282546110639190612ec7565b92505081905550857ff76e1f2eb07b2469e4d234c31a9e74911c283b015d12d264993fbb5544bb1b2e82600060405161109d929190612efb565b60405180910390a25b506110b7565b600081600801819055505b847fc5e6a549ac2c3754eb5455486bb1b8f04d2ae3e444764d35909d59537e4a51a08585856040516110eb9392919061330a565b60405180910390a25050505050565b60096020528060005260406000206000915090505481565b60008060008060008060006003600089815260200190815260200160002090508060000160009054906101000a900473ffffffffffffffffffffffffffffffffffffffff168160040154826005015483600601548460070160009054906101000a900460ff1685600801549650965096509650965096505091939550919395565b6000600960008373ffffffffffffffffffffffffffffffffffffffff1673ffffffffffffffffffffffffffffffffffffffff168152602001908152602001600020549050919050565b6111e461201e565b6111ee60006120a5565b565b60006003600086815260200190815260200160002090508060000160009054906101000a900473ffffffffffffffffffffffffffffffffffffffff1673ffffffffffffffffffffffffffffffffffffffff163373ffffffffffffffffffffffffffffffffffffffff1614611299576040517f08c379a0000000000000000000000000000000000000000000000000000000008152600401611290906133ae565b60405180910390fd5b601e8414806112a85750603284145b806112b35750604684145b806112be5750606484145b6112fd576040517f08c379a00000000000000000000000000000000000000000000000000000000081526004016112f49061341a565b60405180910390fd5b80600801548411611343576040517f08c379a000000000000000000000000000000000000000000000000000000000815260040161133a906134ac565b60405180910390fd5b838160080181905550828260066000888152602001908152602001600020918261136e929190613073565b50847f600f24eb98aa4205c376079c1cc9195e841a77574da91b88a61cfe6c612b56c18585856040516113a3939291906134cc565b60405180910390a25050505050565b60008060009054906101000a900473ffffffffffffffffffffffffffffffffffffffff16905090565b600660205280600052604060002060009150905080546113fa90612aaa565b80601f016020809104026020016040519081016040528092919081815260200182805461142690612aaa565b80156114735780601f1061144857610100808354040283529160200191611473565b820191906000526020600020905b81548152906001019060200180831161145657829003601f168201915b505050505081565b6000600360008481526020019081526020016000209050806006015442106114d8576040517f08c379a00000000000000000000000000000000000000000000000000000000081526004016114cf90612e3b565b60405180910390fd5b6000821161151b576040517f08c379a000000000000000000000000000000000000000000000000000000000815260040161151290612ea7565b60405180910390fd5b600160009054906101000a900473ffffffffffffffffffffffffffffffffffffffff1673ffffffffffffffffffffffffffffffffffffffff166323b872dd3330856040518463ffffffff1660e01b815260040161157a939291906134fe565b6020604051808303816000875af1158015611599573d6000803e3d6000fd5b505050506040513d601f19601f820116820180604052508101906115bd9190613244565b6115fc576040517f08c379a00000000000000000000000000000000000000000000000000000000081526004016115f3906132bd565b60405180910390fd5b818160050160008282546116109190612ec7565b92505081905550816004600085815260200190815260200160002060003373ffffffffffffffffffffffffffffffffffffffff1673ffffffffffffffffffffffffffffffffffffffff16815260200190815260200160002060008282546116779190612ec7565b925050819055503373ffffffffffffffffffffffffffffffffffffffff16837f296213327784aed1db3e4aef381db3aa91efdaf000bf7527e0de40be86a21f9f8460006040516116c8929190612efb565b60405180910390a3505050565b600760205280600052604060002060009150905080546116f490612aaa565b80601f016020809104026020016040519081016040528092919081815260200182805461172090612aaa565b801561176d5780601f106117425761010080835404028352916020019161176d565b820191906000526020600020905b81548152906001019060200180831161175057829003601f168201915b505050505081565b6005602052816000526040600020602052806000526040600020600091509150505481565b6117a261201e565b600073ffffffffffffffffffffffffffffffffffffffff168173ffffffffffffffffffffffffffffffffffffffff16036118145760006040517f1e4fbdf700000000000000000000000000000000000000000000000000000000815260040161180b9190612886565b60405180910390fd5b61181d816120a5565b50565b6000600360008381526020019081526020016000209050806006015442101561187e576040517f08c379a000000000000000000000000000000000000000000000000000000000815260040161187590613581565b60405180910390fd5b8060070160009054906101000a900460ff16156118d0576040517f08c379a00000000000000000000000000000000000000000000000000000000081526004016118c7906135ed565b60405180910390fd5b8060040154816005015410611c8557600081600501541115611c805760004790506000600160009054906101000a900473ffffffffffffffffffffffffffffffffffffffff1673ffffffffffffffffffffffffffffffffffffffff166370a08231306040518263ffffffff1660e01b815260040161194e9190612886565b602060405180830381865afa15801561196b573d6000803e3d6000fd5b505050506040513d601f19601f8201168201806040525081019061198f9190613622565b90506000821115611abb578260000160009054906101000a900473ffffffffffffffffffffffffffffffffffffffff1673ffffffffffffffffffffffffffffffffffffffff166108fc839081150290604051600060405180830381858888f19350505050158015611a04573d6000803e3d6000fd5b5081600960008560000160009054906101000a900473ffffffffffffffffffffffffffffffffffffffff1673ffffffffffffffffffffffffffffffffffffffff1673ffffffffffffffffffffffffffffffffffffffff1681526020019081526020016000206000828254611a789190612ec7565b92505081905550837ff76e1f2eb07b2469e4d234c31a9e74911c283b015d12d264993fbb5544bb1b2e836001604051611ab2929190612efb565b60405180910390a25b6000811115611c7d57600160009054906101000a900473ffffffffffffffffffffffffffffffffffffffff1673ffffffffffffffffffffffffffffffffffffffff1663a9059cbb8460000160009054906101000a900473ffffffffffffffffffffffffffffffffffffffff16836040518363ffffffff1660e01b8152600401611b45929190613206565b6020604051808303816000875af1158015611b64573d6000803e3d6000fd5b505050506040513d601f19601f82011682018060405250810190611b889190613244565b611bc7576040517f08c379a0000000000000000000000000000000000000000000000000000000008152600401611bbe906132bd565b60405180910390fd5b80600860008560000160009054906101000a900473ffffffffffffffffffffffffffffffffffffffff1673ffffffffffffffffffffffffffffffffffffffff1673ffffffffffffffffffffffffffffffffffffffff1681526020019081526020016000206000828254611c3a9190612ec7565b92505081905550837ff76e1f2eb07b2469e4d234c31a9e74911c283b015d12d264993fbb5544bb1b2e826000604051611c74929190612efb565b60405180910390a25b50505b611fd7565b60005b600254811015611fd55760006004600085815260200190815260200160002060003373ffffffffffffffffffffffffffffffffffffffff1673ffffffffffffffffffffffffffffffffffffffff16815260200190815260200160002054905060006005600086815260200190815260200160002060003373ffffffffffffffffffffffffffffffffffffffff1673ffffffffffffffffffffffffffffffffffffffff1681526020019081526020016000205490506000821115611ecd5760006004600087815260200190815260200160002060003373ffffffffffffffffffffffffffffffffffffffff1673ffffffffffffffffffffffffffffffffffffffff16815260200190815260200160002081905550600160009054906101000a900473ffffffffffffffffffffffffffffffffffffffff1673ffffffffffffffffffffffffffffffffffffffff1663a9059cbb33846040518363ffffffff1660e01b8152600401611df892919061364f565b6020604051808303816000875af1158015611e17573d6000803e3d6000fd5b505050506040513d601f19601f82011682018060405250810190611e3b9190613244565b611e7a576040517f08c379a0000000000000000000000000000000000000000000000000000000008152600401611e71906136c4565b60405180910390fd5b3373ffffffffffffffffffffffffffffffffffffffff16857f7b36342f1d1e3bd779b1a5cb13a29cb325f776c3e51cca488f0a1e1a994e1bc9846000604051611ec4929190612efb565b60405180910390a35b6000811115611fc65760006005600087815260200190815260200160002060003373ffffffffffffffffffffffffffffffffffffffff1673ffffffffffffffffffffffffffffffffffffffff168152602001908152602001600020819055503373ffffffffffffffffffffffffffffffffffffffff166108fc829081150290604051600060405180830381858888f19350505050158015611f72573d6000803e3d6000fd5b503373ffffffffffffffffffffffffffffffffffffffff16857f7b36342f1d1e3bd779b1a5cb13a29cb325f776c3e51cca488f0a1e1a994e1bc9836001604051611fbd929190612efb565b60405180910390a35b50508080600101915050611c88565b505b60018160070160006101000a81548160ff0219169083151502179055505050565b600160009054906101000a900473ffffffffffffffffffffffffffffffffffffffff1681565b612026612169565b73ffffffffffffffffffffffffffffffffffffffff166120446113b2565b73ffffffffffffffffffffffffffffffffffffffff16146120a357612067612169565b6040517f118cdaa700000000000000000000000000000000000000000000000000000000815260040161209a9190612886565b60405180910390fd5b565b60008060009054906101000a900473ffffffffffffffffffffffffffffffffffffffff169050816000806101000a81548173ffffffffffffffffffffffffffffffffffffffff021916908373ffffffffffffffffffffffffffffffffffffffff1602179055508173ffffffffffffffffffffffffffffffffffffffff168173ffffffffffffffffffffffffffffffffffffffff167f8be0079c531659141344cd1fd0a4f28419497f9722a3daafe3b4186f6b6457e060405160405180910390a35050565b600033905090565b6000604051905090565b600080fd5b600080fd5b600080fd5b600080fd5b6000601f19601f8301169050919050565b7f4e487b7100000000000000000000000000000000000000000000000000000000600052604160045260246000fd5b6121d88261218f565b810181811067ffffffffffffffff821117156121f7576121f66121a0565b5b80604052505050565b600061220a612171565b905061221682826121cf565b919050565b600067ffffffffffffffff821115612236576122356121a0565b5b61223f8261218f565b9050602081019050919050565b82818337600083830152505050565b600061226e6122698461221b565b612200565b90508281526020810184848401111561228a5761228961218a565b5b61229584828561224c565b509392505050565b600082601f8301126122b2576122b1612185565b5b81356122c284826020860161225b565b91505092915050565b6000819050919050565b6122de816122cb565b81146122e957600080fd5b50565b6000813590506122fb816122d5565b92915050565b600080600080600060a0868803121561231d5761231c61217b565b5b600086013567ffffffffffffffff81111561233b5761233a612180565b5b6123478882890161229d565b955050602086013567ffffffffffffffff81111561236857612367612180565b5b6123748882890161229d565b945050604086013567ffffffffffffffff81111561239557612394612180565b5b6123a18882890161229d565b93505060606123b2888289016122ec565b92505060806123c3888289016122ec565b9150509295509295909350565b600073ffffffffffffffffffffffffffffffffffffffff82169050919050565b60006123fb826123d0565b9050919050565b61240b816123f0565b811461241657600080fd5b50565b60008135905061242881612402565b92915050565b6000602082840312156124445761244361217b565b5b600061245284828501612419565b91505092915050565b612464816122cb565b82525050565b600060208201905061247f600083018461245b565b92915050565b60006020828403121561249b5761249a61217b565b5b60006124a9848285016122ec565b91505092915050565b60006124bd826123d0565b9050919050565b6124cd816124b2565b82525050565b600081519050919050565b600082825260208201905092915050565b60005b8381101561250d5780820151818401526020810190506124f2565b60008484015250505050565b6000612524826124d3565b61252e81856124de565b935061253e8185602086016124ef565b6125478161218f565b840191505092915050565b60008115159050919050565b61256781612552565b82525050565b600061012082019050612583600083018c6124c4565b8181036020830152612595818b612519565b905081810360408301526125a9818a612519565b905081810360608301526125bd8189612519565b90506125cc608083018861245b565b6125d960a083018761245b565b6125e660c083018661245b565b6125f360e083018561255e565b61260161010083018461245b565b9a9950505050505050505050565b600080604083850312156126265761262561217b565b5b6000612634858286016122ec565b925050602061264585828601612419565b9150509250929050565b6000806000606084860312156126685761266761217b565b5b6000612676868287016122ec565b9350506020612687868287016122ec565b9250506040612698868287016122ec565b9150509250925092565b600080fd5b600080fd5b60008083601f8401126126c2576126c1612185565b5b8235905067ffffffffffffffff8111156126df576126de6126a2565b5b6020830191508360018202830111156126fb576126fa6126a7565b5b9250929050565b61270b81612552565b811461271657600080fd5b50565b60008135905061272881612702565b92915050565b600080600080606085870312156127485761274761217b565b5b6000612756878288016122ec565b945050602085013567ffffffffffffffff81111561277757612776612180565b5b612783878288016126ac565b9350935050604061279687828801612719565b91505092959194509250565b6127ab816123f0565b82525050565b600060c0820190506127c660008301896127a2565b6127d3602083018861245b565b6127e0604083018761245b565b6127ed606083018661245b565b6127fa608083018561255e565b61280760a083018461245b565b979650505050505050565b6000806000806060858703121561282c5761282b61217b565b5b600061283a878288016122ec565b945050602061284b878288016122ec565b935050604085013567ffffffffffffffff81111561286c5761286b612180565b5b612878878288016126ac565b925092505092959194509250565b600060208201905061289b60008301846127a2565b92915050565b600060208201905081810360008301526128bb8184612519565b905092915050565b600080604083850312156128da576128d961217b565b5b60006128e8858286016122ec565b92505060206128f9858286016122ec565b9150509250929050565b6000819050919050565b600061292861292361291e846123d0565b612903565b6123d0565b9050919050565b600061293a8261290d565b9050919050565b600061294c8261292f565b9050919050565b61295c81612941565b82525050565b60006020820190506129776000830184612953565b92915050565b7f476f616c20616d6f756e74206d7573742062652067726561746572207468616e60008201527f2030000000000000000000000000000000000000000000000000000000000000602082015250565b60006129d96022836124de565b91506129e48261297d565b604082019050919050565b60006020820190508181036000830152612a08816129cc565b9050919050565b7f446561646c696e65206d75737420626520696e20746865206675747572650000600082015250565b6000612a45601e836124de565b9150612a5082612a0f565b602082019050919050565b60006020820190508181036000830152612a7481612a38565b9050919050565b7f4e487b7100000000000000000000000000000000000000000000000000000000600052602260045260246000fd5b60006002820490506001821680612ac257607f821691505b602082108103612ad557612ad4612a7b565b5b50919050565b60008190508160005260206000209050919050565b60006020601f8301049050919050565b600082821b905092915050565b600060088302612b3d7fffffffffffffffffffffffffffffffffffffffffffffffffffffffffffffffff82612b00565b612b478683612b00565b95508019841693508086168417925050509392505050565b6000612b7a612b75612b70846122cb565b612903565b6122cb565b9050919050565b6000819050919050565b612b9483612b5f565b612ba8612ba082612b81565b848454612b0d565b825550505050565b600090565b612bbd612bb0565b612bc8818484612b8b565b505050565b5b81811015612bec57612be1600082612bb5565b600181019050612bce565b5050565b601f821115612c3157612c0281612adb565b612c0b84612af0565b81016020851015612c1a578190505b612c2e612c2685612af0565b830182612bcd565b50505b505050565b600082821c905092915050565b6000612c5460001984600802612c36565b1980831691505092915050565b6000612c6d8383612c43565b9150826002028217905092915050565b612c86826124d3565b67ffffffffffffffff811115612c9f57612c9e6121a0565b5b612ca98254612aaa565b612cb4828285612bf0565b600060209050601f831160018114612ce75760008415612cd5578287015190505b612cdf8582612c61565b865550612d47565b601f198416612cf586612adb565b60005b82811015612d1d57848901518255600182019150602085019450602081019050612cf8565b86831015612d3a5784890151612d36601f891682612c43565b8355505b6001600288020188555050505b505050505050565b6000604082019050612d64600083018561245b565b612d71602083018461245b565b9392505050565b7f4e487b7100000000000000000000000000000000000000000000000000000000600052601160045260246000fd5b6000612db2826122cb565b91507fffffffffffffffffffffffffffffffffffffffffffffffffffffffffffffffff8203612de457612de3612d78565b5b600182019050919050565b7f50726f6a6563742066756e64696e6720706572696f64206973206f7665720000600082015250565b6000612e25601e836124de565b9150612e3082612def565b602082019050919050565b60006020820190508181036000830152612e5481612e18565b9050919050565b7f416d6f756e74206d7573742062652067726561746572207468616e2030000000600082015250565b6000612e91601d836124de565b9150612e9c82612e5b565b602082019050919050565b60006020820190508181036000830152612ec081612e84565b9050919050565b6000612ed2826122cb565b9150612edd836122cb565b9250828201905080821115612ef557612ef4612d78565b5b92915050565b6000604082019050612f10600083018561245b565b612f1d602083018461255e565b9392505050565b7f4f6e6c792070726f6a6563742063726561746f722063616e2075706461746500600082015250565b6000612f5a601f836124de565b9150612f6582612f24565b602082019050919050565b60006020820190508181036000830152612f8981612f4d565b9050919050565b7f50726f6a65637420697320616c726561647920636f6d706c6574656400000000600082015250565b6000612fc6601c836124de565b9150612fd182612f90565b602082019050919050565b60006020820190508181036000830152612ff581612fb9565b9050919050565b7f4e6f2070726f677265737320746f207265766965770000000000000000000000600082015250565b60006130326015836124de565b915061303d82612ffc565b602082019050919050565b6000602082019050818103600083015261306181613025565b9050919050565b600082905092915050565b61307d8383613068565b67ffffffffffffffff811115613096576130956121a0565b5b6130a08254612aaa565b6130ab828285612bf0565b6000601f8311600181146130da57600084156130c8578287013590505b6130d28582612c61565b86555061313a565b601f1984166130e886612adb565b60005b82811015613110578489013582556001820191506020850194506020810190506130eb565b8683101561312d5784890135613129601f891682612c43565b8355505b6001600288020188555050505b50505050505050565b600061314e826122cb565b9150613159836122cb565b9250828202613167816122cb565b9150828204841483151761317e5761317d612d78565b5b5092915050565b7f4e487b7100000000000000000000000000000000000000000000000000000000600052601260045260246000fd5b60006131bf826122cb565b91506131ca836122cb565b9250826131da576131d9613185565b5b828204905092915050565b60006131f08261292f565b9050919050565b613200816131e5565b82525050565b600060408201905061321b60008301856131f7565b613228602083018461245b565b9392505050565b60008151905061323e81612702565b92915050565b60006020828403121561325a5761325961217b565b5b60006132688482850161322f565b91505092915050565b7f546f6b656e207472616e73666572206661696c65640000000000000000000000600082015250565b60006132a76015836124de565b91506132b282613271565b602082019050919050565b600060208201905081810360008301526132d68161329a565b9050919050565b60006132e983856124de565b93506132f683858461224c565b6132ff8361218f565b840190509392505050565b600060408201905081810360008301526133258185876132dd565b9050613334602083018461255e565b949350505050565b7f4f6e6c792070726f6a6563742063726561746f722063616e207570646174652060008201527f70726f6772657373000000000000000000000000000000000000000000000000602082015250565b60006133986028836124de565b91506133a38261333c565b604082019050919050565b600060208201905081810360008301526133c78161338b565b9050919050565b7f496e76616c69642070726f67726573732076616c756500000000000000000000600082015250565b60006134046016836124de565b915061340f826133ce565b602082019050919050565b60006020820190508181036000830152613433816133f7565b9050919050565b7f50726f6772657373206d7573742062652067726561746572207468616e20637560008201527f7272656e742070726f6772657373000000000000000000000000000000000000602082015250565b6000613496602e836124de565b91506134a18261343a565b604082019050919050565b600060208201905081810360008301526134c581613489565b9050919050565b60006040820190506134e1600083018661245b565b81810360208301526134f48184866132dd565b9050949350505050565b600060608201905061351360008301866127a2565b61352060208301856127a2565b61352d604083018461245b565b949350505050565b7f50726f6a656374206973207374696c6c206f6e676f696e670000000000000000600082015250565b600061356b6018836124de565b915061357682613535565b602082019050919050565b6000602082019050818103600083015261359a8161355e565b9050919050565b7f46756e647320616c726561647920646973747269627574656400000000000000600082015250565b60006135d76019836124de565b91506135e2826135a1565b602082019050919050565b60006020820190508181036000830152613606816135ca565b9050919050565b60008151905061361c816122d5565b92915050565b6000602082840312156136385761363761217b565b5b60006136468482850161360d565b91505092915050565b600060408201905061366460008301856127a2565b613671602083018461245b565b9392505050565b7f526566756e64207472616e73666572206661696c656400000000000000000000600082015250565b60006136ae6016836124de565b91506136b982613678565b602082019050919050565b600060208201905081810360008301526136dd816136a1565b905091905056fea264697066735822122039041c92ad411c5602628b92a47ae9ef657f31ea0536a664f6d91f76ec37c21864736f6c63430008180033",
  "devdoc": {
    "errors": {
      "OwnableInvalidOwner(address)": [
        {
          "details": "The owner is not a valid owner account. (eg. `address(0)`)"
        }
      ],
      "OwnableUnauthorizedAccount(address)": [
        {
          "details": "The caller account is not authorized to perform an operation."
        }
      ]
    },
    "kind": "dev",
    "methods": {
      "owner()": {
        "details": "Returns the address of the current owner."
      },
      "renounceOwnership()": {
        "details": "Leaves the contract without owner. It will not be possible to call `onlyOwner` functions. Can only be called by the current owner. NOTE: Renouncing ownership will leave the contract without an owner, thereby disabling any functionality that is only available to the owner."
      },
      "transferOwnership(address)": {
        "details": "Transfers ownership of the contract to a new account (`newOwner`). Can only be called by the current owner."
      }
    },
    "version": 1
  },
  "userdoc": {
    "kind": "user",
    "methods": {},
    "version": 1
  },
  "storageLayout": {
    "storage": [
      {
        "astId": 8,
        "contract": "contracts/SmartFrogFund.sol:FrogFund",
        "label": "_owner",
        "offset": 0,
        "slot": "0",
        "type": "t_address"
      },
      {
        "astId": 283,
        "contract": "contracts/SmartFrogFund.sol:FrogFund",
        "label": "token",
        "offset": 0,
        "slot": "1",
        "type": "t_contract(IERC20)225"
      },
      {
        "astId": 286,
        "contract": "contracts/SmartFrogFund.sol:FrogFund",
        "label": "projectCount",
        "offset": 0,
        "slot": "2",
        "type": "t_uint256"
      },
      {
        "astId": 291,
        "contract": "contracts/SmartFrogFund.sol:FrogFund",
        "label": "projects",
        "offset": 0,
        "slot": "3",
        "type": "t_mapping(t_uint256,t_struct(Project)280_storage)"
      },
      {
        "astId": 297,
        "contract": "contracts/SmartFrogFund.sol:FrogFund",
        "label": "contributions",
        "offset": 0,
        "slot": "4",
        "type": "t_mapping(t_uint256,t_mapping(t_address,t_uint256))"
      },
      {
        "astId": 303,
        "contract": "contracts/SmartFrogFund.sol:FrogFund",
        "label": "ethContributions",
        "offset": 0,
        "slot": "5",
        "type": "t_mapping(t_uint256,t_mapping(t_address,t_uint256))"
      },
      {
        "astId": 307,
        "contract": "contracts/SmartFrogFund.sol:FrogFund",
        "label": "progressDetails",
        "offset": 0,
        "slot": "6",
        "type": "t_mapping(t_uint256,t_string_storage)"
      },
      {
        "astId": 311,
        "contract": "contracts/SmartFrogFund.sol:FrogFund",
        "label": "approvalComments",
        "offset": 0,
        "slot": "7",
        "type": "t_mapping(t_uint256,t_string_storage)"
      },
      {
        "astId": 315,
        "contract": "contracts/SmartFrogFund.sol:FrogFund",
        "label": "creatorBalances",
        "offset": 0,
        "slot": "8",
        "type": "t_mapping(t_address,t_uint256)"
      },
      {
        "astId": 319,
        "contract": "contracts/SmartFrogFund.sol:FrogFund",
        "label": "creatorEthBalances",
        "offset": 0,
        "slot": "9",
        "type": "t_mapping(t_address,t_uint256)"
      }
    ],
    "types": {
      "t_address": {
        "encoding": "inplace",
        "label": "address",
        "numberOfBytes": "20"
      },
      "t_address_payable": {
        "encoding": "inplace",
        "label": "address payable",
        "numberOfBytes": "20"
      },
      "t_bool": {
        "encoding": "inplace",
        "label": "bool",
        "numberOfBytes": "1"
      },
      "t_contract(IERC20)225": {
        "encoding": "inplace",
        "label": "contract IERC20",
        "numberOfBytes": "20"
      },
      "t_mapping(t_address,t_uint256)": {
        "encoding": "mapping",
        "key": "t_address",
        "label": "mapping(address => uint256)",
        "numberOfBytes": "32",
        "value": "t_uint256"
      },
      "t_mapping(t_uint256,t_mapping(t_address,t_uint256))": {
        "encoding": "mapping",
        "key": "t_uint256",
        "label": "mapping(uint256 => mapping(address => uint256))",
        "numberOfBytes": "32",
        "value": "t_mapping(t_address,t_uint256)"
      },
      "t_mapping(t_uint256,t_string_storage)": {
        "encoding": "mapping",
        "key": "t_uint256",
        "label": "mapping(uint256 => string)",
        "numberOfBytes": "32",
        "value": "t_string_storage"
      },
      "t_mapping(t_uint256,t_struct(Project)280_storage)": {
        "encoding": "mapping",
        "key": "t_uint256",
        "label": "mapping(uint256 => struct FrogFund.Project)",
        "numberOfBytes": "32",
        "value": "t_struct(Project)280_storage"
      },
      "t_string_storage": {
        "encoding": "bytes",
        "label": "string",
        "numberOfBytes": "32"
      },
      "t_struct(Project)280_storage": {
        "encoding": "inplace",
        "label": "struct FrogFund.Project",
        "members": [
          {
            "astId": 263,
            "contract": "contracts/SmartFrogFund.sol:FrogFund",
            "label": "creator",
            "offset": 0,
            "slot": "0",
            "type": "t_address_payable"
          },
          {
            "astId": 265,
            "contract": "contracts/SmartFrogFund.sol:FrogFund",
            "label": "title",
            "offset": 0,
            "slot": "1",
            "type": "t_string_storage"
          },
          {
            "astId": 267,
            "contract": "contracts/SmartFrogFund.sol:FrogFund",
            "label": "description",
            "offset": 0,
            "slot": "2",
            "type": "t_string_storage"
          },
          {
            "astId": 269,
            "contract": "contracts/SmartFrogFund.sol:FrogFund",
            "label": "link",
            "offset": 0,
            "slot": "3",
            "type": "t_string_storage"
          },
          {
            "astId": 271,
            "contract": "contracts/SmartFrogFund.sol:FrogFund",
            "label": "goalAmount",
            "offset": 0,
            "slot": "4",
            "type": "t_uint256"
          },
          {
            "astId": 273,
            "contract": "contracts/SmartFrogFund.sol:FrogFund",
            "label": "currentAmount",
            "offset": 0,
            "slot": "5",
            "type": "t_uint256"
          },
          {
            "astId": 275,
            "contract": "contracts/SmartFrogFund.sol:FrogFund",
            "label": "deadline",
            "offset": 0,
            "slot": "6",
            "type": "t_uint256"
          },
          {
            "astId": 277,
            "contract": "contracts/SmartFrogFund.sol:FrogFund",
            "label": "completed",
            "offset": 0,
            "slot": "7",
            "type": "t_bool"
          },
          {
            "astId": 279,
            "contract": "contracts/SmartFrogFund.sol:FrogFund",
            "label": "currentProgress",
            "offset": 0,
            "slot": "8",
            "type": "t_uint256"
          }
        ],
        "numberOfBytes": "288"
      },
      "t_uint256": {
        "encoding": "inplace",
        "label": "uint256",
        "numberOfBytes": "32"
      }
    }
  }
}